:020000040800F2
:10000000D840002089020008910D00088D0D0008DD
:100010008F0D0008450A00080115000800000000C7
:10002000000000000000000000000000F1010008D6
:10003000F10A00080000000035020008B5100008B1
:10004000A3020008A3020008A3020008A3020008FC
:10005000A3020008A3020008F50A0008390B0008F3
:100060007D0B0008C10B0008A3020008A3020008D2
:10007000A3020008A3020008A3020008A3020008CC
:10008000A3020008A3020008A3020008A3020008BC
:10009000A3020008A3020008A3020008190C00082C
:1000A000A3020008A30200081D110008A302000813
:1000B000A3020008A302000885110008A30200089B
:1000C000A3020008A3020008A3020008A30200087C
:1000D000A3020008B91200081D130008A3020008BB
:1000E000A3020008A3020008A3020008A30200085C
:1000F000A302000800F002F800F06BF80AA090E8F4
:10010000000C82448344AAF10107DA4501D100F0D2
:1001100060F8AFF2090EBAE80F0013F0010F18BF34
:10012000FB1A43F00103184798490000B849000042
:100130000A444FF0000C10F8013B13F0070408BF0D
:1001400010F8014B1D1108BF10F8015B641E05D0AB
:1001500010F8016B641E01F8016BF9D113F0080F60
:100160001EBF10F8014BAD1C0C1B09D16D1E58BFF2
:1001700001F801CBFAD505E014F8016B01F8016B29
:100180006D1EF9D59142D6D370470000002300249C
:1001900000250026103A28BF78C1FBD8520728BF97
:1001A00030C148BF0B607047642900F0EB807529AF
:1001B00000F0E880782900F02181632900F00283B3
:1001C000732900F00783002070471FB51FBD10B5CD
:1001D00010BD00F06DFB1146FFF7F7FF01F0A2FC28
:1001E00000F08BFB03B4FFF7F2FF03BC01F090F9C2
:1001F000224B19680868B0E8F00F80F30988BFF354
:100200006F8F4FF0000080F311884EF00D0E704795
:100210000000000006480068006880F3088862B6A5
:1002200061B6BFF34F8FBFF36F8F00DF00BF00BF1A
:1002300008ED00E0EFF30980BFF36F8F0F4B1A68F2
:1002400020E9F00F106008B54FF0500080F31188DE
:10025000BFF34F8FBFF36F8F03F042FD4FF00000ED
:1002600080F31188BDE8084019680868B0E8F00F0D
:1002700080F30988BFF36F8F704700BF58000020DC
:10028000EFF30580704700000948804709480047A0
:10029000FEE7FEE7FEE7FEE7FEE7FEE7FEE7FEE736
:1002A000FEE7FEE704480549054A064B7047000093
:1002B000C9100008F5000008D8300020D840002000
:1002C000D83C0020D83C0020704700000FB40449FF
:1002D00010B503AA029800F081FA10BC5DF814FB77
:1002E0002800002070B5044685690068C10601D564
:1002F000302600E02026C00707D070BDD4E90121D8
:1003000030469047206A401C20626D1EF6D570BDB5
:1003100070B5044685690078C00707D170BDD4E97F
:10032000012120209047206A401C20626D1EF6D5D6
:1003300070BD70B50C460546012A05D028788006A8
:1003400000D5EA69002302E0012305E05B1C93422B
:1003500002D2E05C0028F9D1A869E618C01AA861A9
:10036000286A184428622846FFF7BCFF04E0D5E954
:10037000012114F8010B9047B442F8D32846FFF747
:10038000C7FF70BD2DE9F0410646002410687529AD
:10039000314616A510D0AFF30080002802DA4042A3
:1003A00013A507E031688A0701D512A502E04907C5
:1003B00004D511A5012401E0AFF3008000210A2239
:1003C00006F1240709E0B0FBF2FCB0FBF2F302FBFC
:1003D0001C00303078541846491C0028F3D12346BD
:1003E0002A463046BDE8F04100F070B90000000038
:1003F0002D0000002B0000002000000070B5044616
:100400000D4621461068AFF300802188090502D50A
:100410000F4A7A4402E00E4A7A440E32002104F177
:10042000240305E000F00F060009965D5E54491CA8
:100430000028F7D120780023000704D5702D02D0C2
:1004400009B1022311322046BDE8704000F03EB9E8
:100450004F4500002DE9F05F894604464FF0000A41
:10046000DFF874B1FB44C0F820A02046E16888475B
:10047000002874D0252806D0D4E901219047206AAD
:10048000401C2062F1E700265F462046E16888476D
:100490002028054607DB312D05D2781910F8200CED
:1004A00008B10643F1E7B00701D526F00406C4F809
:1004B0001CA00027C4F818A02A2D09D0284601F056
:1004C00020F838B304EB8708303DC8F8185019E01D
:1004D00059F8041B204604EB87029161E1688847C4
:1004E000012F054618D1E069002820DA26F0200601
:1004F0001DE0D8F8180000EB800005EB4000303814
:10050000C8F818002046E1688847054600F0F9FF62
:100510000028EED1012F0AD02E2D08D12046E16807
:1005200088477F1C0546022F46F02006C4DBA069E1
:10053000002803DA404246F00106A061F00701D02E
:1005400026F010066C2D0BD0682D09D04C2D39D01B
:100550006A2D35D0742D35D07A2D33D016E038E0A1
:10056000E1682F4620468847B842054609D16C2FDE
:1005700026D04FF48060E168064320468847054650
:1005800004E06C2F1AD04FF4807006430DB3A5F130
:100590004100192802D8203546F400664A4629460B
:1005A000204626604E46FFF7FFFD80B101280BD0A4
:1005B000F61D26F0070000F1080956E74020E4E7A1
:1005C0008020D8E70020D6E706F104094DE7284649
:1005D00052E7206ABDE8F09F25450000032A40F25B
:1005E000308010F0030C00F0158011F8013BBCF1D5
:1005F000020F624498BF11F801CB00F8013B38BFED
:1006000011F8013BA2F1040298BF00F801CB38BFFA
:1006100000F8013B11F0030300F0F280083AC0F04B
:10062000088051F8043B083A51F804CBA0E80810C0
:10063000F5E7121D5CBF51F8043B40F8043BAFF3F3
:100640000080D20724BF11F8013B11F801CB48BF4D
:1006500011F8012B24BF00F8013B00F801CB48BF83
:1006600000F8012B704702F0FF0343EA032242EA3D
:10067000024200F0F9B84FF0000200B5134694466C
:100680009646203922BFA0E80C50A0E80C50B1F1EA
:100690002001BFF4F7AF090728BFA0E80C5048BFFE
:1006A0000CC05DF804EB890028BF40F8042B08BF9C
:1006B000704748BF20F8022B11F0804F18BF00F898
:1006C000012B704770477047704770472DE9F0471E
:1006D0000D4699469246044600F1240801688806B2
:1006E00004D5E06921F01001216000E00120A8425A
:1006F00001DD471B00E00027A1697A1902EB090020
:10070000081AA0612078C00602D42046FFF7EAFD4F
:10071000002608E0D4E901211AF806009047206A73
:10072000401C761C20624E45F4DB2078C0060AD5BA
:100730002046FFF7D7FD06E0D4E90121302090479D
:10074000206A401C2062381EA7F10107F4DC07E094
:10075000D4E9012118F805009047206A401C206266
:10076000281EA5F10105F3DC2046FFF7D1FD207816
:10077000000602D50220BDE8F0870120FBE700005B
:1007800001694A1C02610878704700B58FB0CDE955
:1007900001310021059105497944CDE90310114645
:1007A0006846FFF757FE0FB000BD0000E5FFFFFFF2
:1007B00010B5436913B1AFF3008001E0FFF7B9FD55
:1007C000012010BD127800F124010A7000224A7045
:1007D0000122EDE711684FF0FF32E9E7074B70B5F2
:1007E0000D467B44FFF7D1FF0446284600F05CF835
:1007F00010B14FF0FF3070BD204670BDB312000045
:1008000010B5203AC0F00B80B1E81850203AA0E8AB
:100810001850B1E81850A0E81850BFF4F5AF5FEADF
:10082000027C24BFB1E81850A0E8185044BF18C992
:1008300018C0BDE810405FEA827C24BF51F8043B39
:1008400040F8043B08BF7047D20728BF31F8023B8D
:1008500048BF11F8012B28BF20F8023B48BF00F821
:10086000012B70474FF000020429C0F0128010F0F5
:10087000030C3FF402AFCCF1040CBCF1020F18BF23
:1008800000F8012BA8BF20F8022BA1EB0C01FFF709
:10089000F4BE5FEAC17C24BF00F8012B00F8012BF5
:1008A00048BF00F8012B7047007B00F080007047C4
:1008B000754600F029F8AE4605006946534620F01B
:1008C0000700854618B020B5FFF7ECFCBDE82040D6
:1008D0004FF000064FF000074FF000084FF0000BFC
:1008E00021F00701AC46ACE8C009ACE8C009ACE8AF
:1008F000C009ACE8C0098D4670470446AFF30080DC
:100900002046FFF76FFC000000487047743000205D
:10091000FEB52E4D2E4C2B784BB12246002607CA31
:10092000012B09D0022B13D0032B2ED035E000F081
:1009300067FF00F055FF19E03223CDE90063002383
:1009400000F062FB012828D100F062FF21A00BE03B
:100950004FF4FA73CDE90063002300F055FB012842
:100960001BD100F045FF1EA0FFF7B0FC684600F069
:1009700005FA9DE8070084E807002878401CC1B20A
:1009800029701BA0FFF7A2FC07E00323CDE9003686
:10099000002300F039FB012802D04FF0FF30FEBDEC
:1009A00000F01EFF17A0FFF791FC684600F0E6F983
:1009B0009DE8070084E807002878401CC1B2297030
:1009C0000BA0FFF783FC0120FEBD00001C000020EF
:1009D000280200200D0A56424154204F4E0D0A00B5
:1009E0000D0A5057524B4559204F4E0D0A0000003A
:1009F0000D0A735F756341545374613A25640D0A9F
:100A0000000000000D0A5057524B4559204F4646F2
:100A10000D0A00001CB50121022000F00FFA402051
:100A2000009001208DF80400054C8DF80500694602
:100A3000204600F059F94021204600F09CF91CBDE9
:100A400000040240FEE7000070B5084800244FF49F
:100A500080752946C0F80441FFF70DFE0448294679
:100A6000C0F80441BDE87040FFF705BEFC0200205D
:100A7000040400201CB505490220CDE90001002333
:100A8000C82203A1064803F0D1FC1CBD10000020C1
:100A900052756E696E675F53746174650000000083
:100AA000FD0E00081CB505490620CDE90001002314
:100AB000642203A1074803F0B9FC1CBD1800002004
:100AC000765472616E736D697373696F6E5461737E
:100AD0006B0000005D3D0008044A0029516801D008
:100AE000014300E08143516070470000002004E0B2
:100AF0007047000010B5012000F0B4F800280AD0BB
:100B000005A0FFF7E3FB642000F066FFBDE810409E
:100B1000012000F0A1B810BD0D0A204558544930FD
:100B20005F49525148616E646C6572B2FAC9FAD677
:100B3000D0B6CF0D0A00000010B5022000F092F8E8
:100B400000280AD005A0FFF7C1FB642000F044FF95
:100B5000BDE81040022000F07FB810BD0D0A20450E
:100B6000585449315F49525148616E646C6572B2A4
:100B7000FAC9FAD6D0B6CF0D0A00000010B504208D
:100B800000F070F800280AD005A0FFF79FFB642052
:100B900000F022FFBDE81040042000F05DB810BD59
:100BA0000D0A2045585449325F49525148616E64DC
:100BB0006C6572B2FAC9FAD6D0B6CF0D0A00000041
:100BC00010B5082000F04EF8002813D00A4801782C
:100BD000491C01700178032903D300210170012110
:100BE0008170017805A0FFF771FBBDE81040082077
:100BF00000F032B810BD000020000020675F756370
:100C00004D70755F74726967676572436E74203DDD
:100C1000202564210D0A000010B5802000F022F884
:100C2000002807D004A0FFF751FBBDE8104080204A
:100C300000F012B810BD00000D0A20455854495F5D
:100C40004C696E6520506F776572B2FAC9FAD6D0DA
:100C5000B6CF0D0A0000000001490860704700008F
:100C600014040140034A0146002012680A4200D0E1
:100C7000012070471404014030B51A4A8379016895
:100C800053B313688B431360111D0B680468A343AF
:100C90000B60017911440B68046823430B60114B0E
:100CA000083319680468A14319601C1D2168056890
:100CB000A94321604179102905D011440A680068D0
:100CC00002430A6030BD1968026811431960216847
:100CD00000680143216030BD0079104402688A43F6
:100CE000026030BD00040140F0B5002201274FF042
:100CF000030E0B6807FA02F52B40AB4227D10668BA
:100D0000530091F804C00EFA03F4A6430CFA03FC56
:100D10004CEA060CC0F800C00E79012E01D0022E5C
:100D20000FD1866891F805C0A6430CFA03FC4CEA83
:100D3000060CC0F808C08688AE438D7995403543CF
:100D40008580C568A543CC799C402C43C460521C67
:100D5000102ACED3F0BD4B07DB0E9A40C90810B560
:100D600000EB8100016A0F249C40A1430162016AEB
:100D70001143016210BD41837047000002490EC952
:100D800080E80E00704700001C050020FEE7FEE72B
:100D90007047000030B50F23C27801780125FAB101
:100DA000144A126801F1E02102F4E062C2F5E06247
:100DB000C2F30722C2F10404D3404278A2408478EF
:100DC0001C401443220181F80024007800F01F0128
:100DD0008D404009800000F1E020C0F8005130BD96
:100DE00001F01F0085404809800000F1E020C0F8B4
:100DF000805130BD0CED00E0024908430249086013
:100E0000704700000000FA050CED00E0044A0029DC
:100E1000116801D0014300E0814311607047000078
:100E20001C380240044A0029116801D0014300E047
:100E3000814311607047000024380240044A0029B1
:100E4000116801D0014300E0814311607047000048
:100E50002038024030B5254B1968A3F1040211F087
:100E60000C014FF4004405D004290AD008290AD007
:100E70000C290AD01168C1F34231491C8C4004602E
:100E800019E01B4916E01B4914E019681A6801F4BF
:100E90007011194C02F4400204EB914109780124CD
:100EA00004EB92521C6814F4803F1DD0114C614336
:100EB000B1FBF2F1016019680F2202EA11110E4A2A
:100EC0000932545C0168E14041601C68072505EA6D
:100ED0001424145D21FA04F484601B6805EAD3230A
:100EE000D25CD140C16030BD014CE0E7083802401F
:100EF0000024F40000127A00D40000204FF4FA74A9
:100F0000012000F07FFB204602F096FD022000F059
:100F100079FB204602F090FDF2E7000010B58A0749
:100F200021F003040649120F21440F238C689340DB
:100F30009C438C608B68904003438B6010BD000025
:100F4000000001400CB500222C4900920192086873
:100F500040F4803008604FF4A043086800F400308B
:100F600001900098401C0090019810B90098984298
:100F7000F3D1086880033FD5012001902048026822
:100F800042F004020260026842F00202026002685B
:100F900042F00102026019482430026842F0805297
:100FA0000260C214174802604268D206FCD413489B
:100FB000083002680260026802600268026002682B
:100FC00022F47D020260026842F4110202600A68A3
:100FD00042F080720A600A689201FCD5016821F033
:100FE00003010160016841F0030101600168C1F380
:100FF00081010329FAD10CBD01920CBD00380240D9
:10100000003C0240007000402DE9FE4F0746DDE93C
:101010000CAB1E46884691466846FFF7AFFE00249B
:101020003C252046E9FB05804FF47A71A8FB013C82
:1010300000FB01C008FB0402B8B213EB0009DDE9B4
:1010400001032146E3FB05014FF47A73A0FB03780B
:1010500001FB038100FB0410BDF80010624117EB97
:10106000010C51462346E6FB05134FF47A75A1FBAC
:10107000056803FB0583002701FB0731604116EB80
:101080000B036141BCEB090460EB02001A1B8141B8
:1010900002D20120BDE8FE8F0020FBE74FF0E021E7
:1010A0000428086903D020F004000861704740F06C
:1010B0000400FAE710B503F0E5F9012803D0BDE814
:1010C000104002F0E5BE10BD104800B5016841F4C3
:1010D000807101600D4908310A680D4B1A400A60A1
:1010E00002680C4B1A400260026822F480220260FF
:1010F000086820F47D000860091D00200860FFF7E3
:1011000021FF05494FF00060086000BD0038024033
:101110000CC0FF88FEFFFEEE08ED00E070B5174D35
:101120000221284600F057F8002825D00221284641
:1011300000F042F8124C206888B1206801281BD1C9
:10114000284600F046F8E06000220221284600F020
:101150004EF8D4E90201814207D9081A09E028466D
:1011600000F037F8A060012005E04FF6FF72101A7A
:10117000084460600220206070BD0000000C014047
:101180000000002010B50A4C2088C0070BD0094889
:1011900000698047064900201431086004494FF473
:1011A0007A701C310860208820F00100208010BD7A
:1011B0001008004034010020C94301827047002913
:1011C000018802D041F0010101E021F0010101801C
:1011D0007047406B704702460020138A92890B4289
:1011E00002EA010202D0002A00D001207047002A42
:1011F000828901D00A4300E08A438281704700005F
:101200000288B0F1804F08D00F4B984205D00F4BA9
:10121000984202D00E4B984203D122F070034A88C4
:101220001A430C4B984206D00B4B984203D022F441
:1012300040730A891A4302804A68C262098801859C
:101240000121818270470000000400400008004036
:10125000000C004000100040001400407FB50D4617
:10126000044601210420FFF7DDFD01940020ADF8C4
:101270000050104CADF80800ADF802006946204659
:10128000FFF7BEFF012241212046FFF7B0FF1E21DC
:101290008DF80C1003218DF80D108DF80E10012023
:1012A0008DF80F0003A8FFF775FD01212046FFF719
:1012B00086FF7FBD0008004070B5154C40F22551F7
:1012C000204600F06FF800280ED0204600F0F4F819
:1012D000104AC1B21088030406D444044FF000033E
:1012E00006D50A2901D0138070BD40F400400DE0FE
:1012F0000D2909D0C0F30D04074D401C80B22955BB
:101300001080C728EFD870BD40F48040108070BDB9
:1013100000380140240000203402002070B5134C36
:1013200040F225552946204600F03CF8012809D115
:10133000204600F0C1F8C0B200F050FC294620461B
:1013400000F019F80821204600F025F801280BD1FB
:10135000204600F0B1F8C0B200F040FC2046BDE8E5
:101360007040082100F004B870BD00000044004047
:10137000C943018070470A0A01219140C943018095
:1013800070470029818902D041F4005101E021F425
:101390000051818170470246002012880A4200D025
:1013A0000120704770B501F01F0501260024C1F32C
:1013B000421306FA05F2012B0FD0022B0FD0838ABD
:1013C0004FEA11210088134206FA01F600EA0600EE
:1013D00001D000B10124204670BD8389F0E7038A63
:1013E000EEE710B5C1F3421301F01F040121A14043
:1013F000012B07D0022B07D01430002A026805D039
:101400000A4304E00C30F8E71030F6E78A43026044
:1014100010BD00007FB50446008A0D4620F44051FF
:10142000E88808432082A18941F20C608143A888A2
:101430002A8910436A890A431043A081A08A20F4B4
:101440004071A8890843A0826846FFF703FD194848
:10145000844201D1039800E00298A189090400EBBD
:10146000C00101EB0010296801D5490000E08900A6
:10147000B0FBF1F06422B0FBF2F109010B096FF04F
:1014800018056B4300EB8300A3891D044FF0320362
:1014900006D503EBC000B0FBF2F000F0070005E05A
:1014A00003EB0010B0FBF2F000F00F0008432081C6
:1014B0007FBD0000003801408088C0F308007047FD
:1014C00010B506490C1D04E00B885B06FCD5228094
:1014D000401C0278002AF7D110BD000000380140FE
:1014E00010B506490C1D04E00B885B06FCD5228074
:1014F000401C0278002AF7D110BD000000440040D3
:10150000FEE730380A2801D20120704700207047DA
:10151000704710B5FFF7AEFABDE81040FFF7C2BA4A
:1015200010B500F0C5FA00F009F800F097F800F0E7
:10153000ADF9BDE81040FFF76DBA00007CB50121A0
:101540000846FFF763FC01258DF8045000248DF850
:10155000064010208DF8055000908DF80740694630
:101560002648FFF7C1FB01210420FFF74FFC8DF84F
:1015700004508DF806402020214E8DF80550009033
:101580008DF8074069463046FFF7AEFB0121042085
:10159000FFF73CFC8DF804508DF80640E8028DF80A
:1015A000055000908DF8074069463046FFF79CFBD8
:1015B00001210420FFF72AFC8DF804508DF8064025
:1015C00028038DF8055000908DF807406946304695
:1015D000FFF78AFB01210420FFF718FC8DF8045067
:1015E0008DF80640A8028DF8055000908DF8074050
:1015F00069463046FFF778FB7CBD000000000240E2
:10160000000802400F4908280AD2DFE800F0090468
:101610000A09090E12160C48818A81F01001818294
:101620007047088880F020000AE0088880F4006095
:1016300006E0088880F4805002E0088880F480602A
:1016400008807047140802400000024002494FF42D
:1016500000700880704700001A0402402DE9FC4722
:1016600001210220FFF7D2FB01248DF80440002560
:101670008DF80650DFF85C818DF805404FF02009A9
:101680008DF8075069464046CDF80090FFF72CFBD7
:1016900001210420FFF7BAFB8DF804408DF80650B5
:1016A0000420DFF834A18DF8054000908DF8075034
:1016B00069465046FFF718FB01210220FFF7A6FB01
:1016C0008DF804408DF806508DF8054066028DF8BF
:1016D0000750694640460096FFF706FB01210220AD
:1016E000FFF794FB8DF804408DF806508DF8054007
:1016F00027028DF80750694640460097FFF7F4FA35
:1017000001210420FFF782FB8DF804408DF806507C
:101710008DF805408DF80750694650460096FFF752
:10172000E3FA01210846FFF771FB8DF804408DF8BC
:101730000650DFF8A8808DF805408DF807506946FF
:1017400040460097FFF7D0FA01210420FFF75EFB27
:101750008DF804408DF806508DF805408DF807503F
:10176000694650460096FFF7BFFA01210846FFF789
:101770004DFB8DF804408DF806508DF805408DF82E
:101780000750694640460097FFF7AEFA0121084628
:10179000FFF73CFB8DF804408DF806508DF80540AE
:1017A00002248DF80750694640460094FFF79CFAE2
:1017B00008481830A0F80090811C0E800780064869
:1017C0001A30068000F02CF8A8F81840A8F81A7013
:1017D000BDE8FC870004024000080240000002400F
:1017E00002494FF400700880704700001A08024058
:1017F00002494FF40070088070470000180802404A
:1018000002494FF4807008807047000018040240BD
:1018100002494FF480700880704700001A040240AB
:101820007CB517480426068001210820FFF7EEFA50
:1018300001248DF8044000258DF806508DF80540F0
:101840008DF8075069460F480096FFF74DFA0D488E
:101850001A30068001210220FFF7D8FA8DF80440E3
:101860008DF806508DF8054018248DF8075069460C
:1018700005480094FFF738FA03481A3004807CBD0D
:101880001A080240000C0240000402402DE9F04119
:1018900086B001210220FFF7B9FA00254C4E8DF8E1
:1018A000105080248DF8135003A930460394FFF79D
:1018B0001BFA8DF810504FF007088DF8135003A94C
:1018C0003046CDF80C80FFF70FFA01210846FFF7EC
:1018D000B5FA07210120FFF721FB00948DF8045091
:1018E0000C278DF8057001248DF806406846FFF737
:1018F000C3F917208DF808008DF809408DF80A50BB
:101900008DF80B4002A8FFF745FA324E306840F0E0
:101910008000306000210120FFF700FB8DF80450AB
:101920008DF8057000948DF806406846FFF7A4F91D
:1019300006208DF808008DF809508DF80A408DF8C2
:101940000B4002A8FFF726FA306840F00100306033
:1019500001210846FFF7E2FA02208DF804500090BA
:101960008DF805708DF806406846FFF785F98DF80B
:1019700008808DF809508DF80A408DF80B4002A8B8
:10198000FFF708FA306840F00200306002210120C1
:10199000FFF7C4FA04208DF8045000908DF805700C
:1019A0008DF806406846FFF767F908208DF80800B3
:1019B0008DF809508DF80A408DF80B4002A8FFF70A
:1019C000E9F9306840F00400306006B0BDE8F0810D
:1019D00000040240000401400149088070470000F3
:1019E0001E00002010B50420FFF758FB0C480D49DD
:1019F0000D4A0068B0FBF1F3B0FBF1F14FF47A70DF
:101A000041431370012050804FF0E020026942F002
:101A1000020202614161016941F00101016110BDF1
:101A20003800002040420F002C00002070B5044612
:101A300002F028FD01280CD0094D6888844203D3A8
:101A4000B4FBF0F001F0F8FF6888B4FBF0F100FBA4
:101A500011444FF47A706043BDE8704000F002B862
:101A60002C00002070B54FF0E02500216C69094A78
:101A7000AB6912785043AA699A42FCD002D2A3EB18
:101A8000020302E0A4EB02063344194413468142E8
:101A9000F1D370BD2C00002004490A885206FCD501
:101AA000024AC1B2121D1180704700000038014087
:101AB00070B51149114A0020831893F850300B5427
:101AC000401CC0B20C28F7D301F056FE34220C495A
:101AD0000CA0FEF7FBFB01F08BFE074D0024295DF7
:101AE0000EA0FEF7F3FB641CE4B20C2CF7D3BDE8A8
:101AF000704009A0FEF7EABB0C0500200000F81FAB
:101B00005449000844454255473A2825732D256419
:101B1000294348495049443A0D0A0000253032789B
:101B2000000000001CB5012080F310880146FEF77C
:101B3000D3FF4FF44070FFF75FF9FFF753FF4FF407
:101B40001654204600F018FE204600F04DFD2046B9
:101B500000F0B2FD0D48FEF7B9FBFFF7E1FC01F024
:101B60000BFE54220A490BA0FEF7B0FB01F040FE29
:101B700015490120CDE900010202002313A11648F6
:101B800002F054FC02F05AF8FEE70000A0490008F9
:101B90006049000844454255473A2825732D25647D
:101BA000294672656552544F532D53544D33324C70
:101BB00031353120323032332F30382F323520401A
:101BC0002076312E300D0A003400002073746172CB
:101BD000745F7461736B0000C9250008064AD2F86F
:101BE0000411FF2901D9002003E05054D2F8040168
:101BF000401CC2F804017047040400202DE9F041A4
:101C0000184E0F460446F5683068001D01F06EFD61
:101C100038B9306890F82C10012088403169814330
:101C20003161601C07D137B13168BDE8F0410E4821
:101C3000091D01F094BD30682C44AC424460316809
:101C400005D2B06BBDE8F041091D01F070BD706BAD
:101C5000091D01F06CFDB06A844200D2B462BDE897
:101C6000F081000058000020380800202DE9F041E4
:101C7000054601F081FD2D4EB068401CB060306813
:101C80002B4F10B1706930B32BE03560B06801287C
:101C900027D1002404EB840007EB800001F039FD1C
:101CA000641C202CF6D3234801F033FD2148143066
:101CB00001F02FFD1F48283001F02BFD1D483C305E
:101CC00001F027FD1B48503001F023FD19487063D7
:101CD0001430B06305E03068E96AC06A884200D811
:101CE0003560706A0121401C7062A864E86A32693C
:101CF00081401143316100EB800007EB8000291D1A
:101D000001F02DFD01F074FD706900280CD03068E1
:101D1000E96AC06A884207D207494FF080500860DC
:101D2000BFF34F8FBFF36F8FBDE8F08158000020E5
:101D300068050020E807002004ED00E010B501F080
:101D40001BFD0E4C2068A0B90D4801F0E2FC0C48C8
:101D5000143001F0DEFC0A48E060143020610022FB
:101D60001021052002F0ACF8206010B105A101F0AF
:101D700015FEBDE8104001F03BBD000094000020BE
:101D80004C080020546D72510000000030B4026C09
:101D90000B46002A0BD0C1681144C1608468A1427F
:101DA00001D30168C16030BC1846FEF717BC30BCD7
:101DB00070472DE9F041856B174604460026026CFA
:101DC00082B1C7B1E068FEF709FCE168206C091A2E
:101DD000E1602268914202D2A168081AE060022FF5
:101DE00016D017E02068A8B9A06802F0D5FB064617
:101DF0000020A0600EE06068FEF7F0FB216C6068D8
:101E000008446060A168884204D32068606001E0F3
:101E100005B16D1E6D1CA5633046BDE8F08110B59F
:101E20000446006B01F016FD2046BDE8104001F0AD
:101E300011BD000010484FF42051420706D0C01DCC
:101E40000D4920F00700411AC1F520510B4A00232B
:101E50000144C2E900030839183A21F00701116072
:101E60004B600B600B1AC0E9001393604FF0004009
:101E7000536050617047000074080020CC000020BF
:101E8000134E144DA6F52F774FF08058DFF8489089
:101E900011E001F071FCF068C468201D01F026FC1F
:101EA000A868401EA8606868401E686001F0A0FC39
:101EB0002046FFF7B4FF68680028EAD13868012897
:101EC000F9D9C9F80080BFF34F8FBFF36F8FF2E7E6
:101ED000240800205800002004ED00E02DE9F05F08
:101EE000DDE90B940E461746834691009A460A9DFB
:101EF000A522206BFEF7B7FB6FF00301206B01EB0F
:101F00008701084420F00707780705D04FF459727D
:101F10001CA121A0FEF7DAF94FF0000866B10020FD
:101F20002218315C82F83410315C11B1401C142845
:101F3000F6D384F8478001E084F83480202D00D364
:101F40001F25E562C4E91458201D01F0EDFB04F1E2
:101F5000180001F0E9FB2461C5F120006462A06172
:101F6000C4F8588084F85C8052465946384600F0E0
:101F700017FB2060B9F1000F01D0C9F80040BDE89F
:101F8000F09F00002E2E5C4672656552544F535CE4
:101F90007461736B732E63004572726F723A2573AE
:101FA0002C25640D0A00000030B5114900E01146EF
:101FB0000A688242FBD34B685C18844203D14068B4
:101FC00018444860084643681C18944209D1084CDC
:101FD000183C2468A24209D052681A4442600A6838
:101FE00012680260814200D0086030BD0460F9E7E9
:101FF000CC00002070B5002441600B4D006191427F
:1020000006D8D11A8269914206D2011D286907E0DB
:102010009A4203D2994201D3012403E0011DE868EA
:1020200001F085FB204670BD9400002010B50446E9
:1020300001F0A2FBA06B20B1002401F0D9FB2046E7
:1020400010BD0124F9E70000F1B500980026846C6A
:102050002CB940F6493216A11AA0FEF737F9A06B49
:10206000E16B884205D340F64A3211A115A0FEF774
:102070002DF9A06BE16B88420CD294F945500022F7
:1020800069462046FFF795FE0646681C04D06D1C85
:1020900084F845503046F8BD606A0028FAD004F153
:1020A000240002F0D3FA0028F4D00126F2E7000061
:1020B0002E2E5C4672656552544F535C7175657582
:1020C000652E63004572726F723A25732C25640D7C
:1020D0000A000000F8B5054617480E46C068C068FB
:1020E000C468201D01F002FB94F82800410718D5B0
:1020F000A0692B46411932462046FFF77BFFA0B16D
:1021000000200346014600902A46204602F0DAFBF2
:1021100058B90A4940F2112201F11800FEF7D6F829
:1021200003E020F0010084F82800216A01B0204675
:10213000BDE8F0400847000094000020284800084F
:1021400070B586B03D4E70E00198002806DADDE9F2
:102150000301029A90470198002866DB039C60699E
:1021600010B1201D01F0C2FA05A800F0C3F8054621
:1021700001980A2859D2DFE800F00505052F354CF3
:1021800005052F3594F828002A4640F0010084F810
:1021900028000298A169034601442046FFF72AFF60
:1021A000002842D0216A2046884794F8280040073A
:1021B0003BD5002000900298A169002342181946DF
:1021C000204602F07FFB00282FD14FF44B721CA158
:1021D00021A0FEF77BF828E014F8280F20F001007A
:1021E000207022E094F8280040F0010084F82800D4
:1021F0000298A06128B94FF4517211A116A0FEF700
:1022000065F8A0692B4641191A462046FFF7F2FEF1
:102210000BE094F82800810703D4204601F01AFB54
:1022200003E020F0010084F82800002201A93068B2
:1022300002F00CF8002887D106B070BD9400002091
:102240002E2E5C4672656552544F535C74696D6501
:1022500072732E63000000004572726F723A25732C
:102260002C25640D0A000000F8B50D46064601F065
:102270002FFD684600F03EF80446009810B102F0C9
:1022800031FAF8BD1148ADB101690968D9B100252D
:10229000311B2A46006801F093FB02F023FA002864
:1022A000EFD10B494FF080500860BFF34F8FBFF361
:1022B0006F8FF8BDA642EBD802F014FA21463046E3
:1022C000FFF708FFF8BD0125E2E7000094000020B9
:1022D00004ED00E00648416B096829B1416BC9680B
:1022E000C9684968816270474FF0FF31FAE7000022
:1022F0005800002070B5054602F0D2F8064E04469C
:10230000B068844203D200F009F8012000E0002008
:1023100028602046B46070BD94000020F8B5194EC6
:1023200027E0C068C4680568201D01F0DFF9216A54
:102330002046884794F8280040071AD5A069284409
:10234000A84206D924616060211DF06801F0EFF910
:102350000FE000200346014600902A46204602F086
:10236000B1FA30B9084940F29D3201F11800FDF789
:10237000ADFFF06801680029D3D13169C6E90310C7
:10238000F8BD000094000020284800080848406874
:10239000401C04D0CA2207A111A0FDF797FF5020CE
:1023A00080F31188BFF34F8FBFF36F8FFEE70000FC
:1023B000A80000202E2E5C4672656552544F535C77
:1023C000706F727461626C655C525644535C41522A
:1023D0004D5F434D335C706F72742E6300000000DC
:1023E0004572726F723A25732C25640D0A00000045
:1023F000084CE068016839B1002139B10020FFF7CD
:1024000033FFFFF79DFEF4E70121F6E7C06800689F
:10241000F5E70000940000202DE9F041044601F0AA
:10242000ABF994F9455004F124060FE0A06C18B103
:102430002046FFF709FE04E0606A48B1304602F02A
:1024400005F908B101F09CFB6D1E6DB2002DEDDCAD
:102450004FF0FF3684F8456001F0CAF901F08CF9BD
:1024600094F9445004F1100709E0206948B1384656
:1024700002F0ECF808B101F083FB6D1E6DB2002D87
:10248000F3DC84F84460BDE8F04101F0B1B900002C
:102490002DE9F0410546002601F01AFC334F38685B
:1024A00008B9FFF7C7FC7869054252D1002D50D01A
:1024B000083568070BD005F00700C0F10800054497
:1024C000680704D097222AA131A0FDF7FFFE002D56
:1024D0003FD0786885423CD82449183108460468C2
:1024E00001E0214604466068A84202D22068002824
:1024F000F7D13868B84684422BD00E68206808604F
:1025000060680836401B10280ED96719780704D078
:10251000C42217A11EA0FDF7D9FE6068401B786099
:1025200038466560FFF740FD6168D8F80400424610
:10253000401AC8F80400D8F80830984200D29060D9
:10254000506901430020C4E90001D068401CC8F86C
:102550000C0002F0C7F8700705D040F2051204A184
:102560000BA0FDF7B3FE3046BDE8F081B4000020BB
:102570002E2E5C4672656552544F535C4D656D4D11
:10258000616E675C686561705F342E6300000000F7
:102590004572726F723A25732C25640D0A00000093
:1025A00010B5031F4FF080741C601B1F21F0010148
:1025B0001960191F024B0B60143940380A6010BDB6
:1025C0008D2300080068704710B501F0D5F8FEF7BC
:1025D000A0FF0448006801F065FABDE8104001F072
:1025E00007B90000340000202DE9F04180460121A8
:1025F00088B00846FEF70AFC01214804FEF712FCE9
:102600002B4F072202213846FEF7A5FB07220321A4
:102610003846FEF7A0FB022504208DF804500090F8
:102620008DF8055000248DF8064069463846FEF7BF
:102630005BFB08208DF8055000908DF804500126B2
:102640008DF8076069463846FEF74EFB26208DF868
:1026500018008DF819508DF81A408DF81B6006A8E7
:10266000FEF798FBADF80C40ADF80E40ADF8104009
:10267000ADF814400C200F4CADF81200CDF80880D6
:1026800002A92046FEF7C6FE40F225550122294642
:102690002046FEF7A6FE01212046FEF772FE01222B
:1026A00029462046FEF79DFE08B0BDE8F0810000F7
:1026B00000000240004400402DE9F041804688B00F
:1026C00001210220FEF7A2FB01218804FEF7AAFBEC
:1026D000274F07220A213846FEF73DFB07220B2130
:1026E0003846FEF738FB02258DF8045038158DF872
:1026F0000550002400908DF8064001268DF80760F3
:1027000069463846FEF7F0FAA80200908DF80450AA
:1027100069463846FEF7E8FA27208DF818000320AE
:102720008DF819008DF81A408DF81B6006A8FEF789
:1027300031FBADF80C40ADF80E40ADF81040ADF8EF
:1027400014400C200B4CADF81200CDF8088002A903
:102750002046FEF75FFE012240F225512046FEF79B
:1027600040FE01212046FEF70CFE08B0BDE8F081D6
:1027700000040240004800402DE9F041804601215C
:1027800088B00846FEF742FB01218803FEF756FB9E
:10279000274F072209213846FEF7DDFA07220A21D2
:1027A0003846FEF7D8FA02258DF8045078158DF8D2
:1027B0000550002400908DF8064001268DF8076032
:1027C00069463846FEF790FA680200908DF804508A
:1027D00069463846FEF788FA25208DF818008DF8EE
:1027E00019608DF81A408DF81B6006A8FEF7D2FA22
:1027F000ADF80C40ADF80E40ADF81040ADF8144007
:102800000C200C4CADF81200CDF8088002A920462F
:10281000FEF700FE012240F225512046FEF7E1FDC1
:1028200001212046FEF7ADFD08B0BDE8F0810000B3
:10283000000002400038014070B594B0064613AB6A
:1028400011AA694600F0DAF9002824D18DF8400079
:102850001D4C042514E0206805EBC10113AB405862
:1028600012AA08A900F0CAF9002814D1694608A8DC
:1028700000F0E6FB88B19DF84000401C8DF8400058
:10288000207D9DF840108842E5D8207D9DF84010BD
:1028900088420ED1042014B070BD9DF848009DF808
:1028A0004410884201D90220F5E79DF84000A07548
:1028B000EBE710A9304600F055FA0028EBD19DF85F
:1028C000400060750020E6E7340100202DE9F0416A
:1028D0007F4E00279AB0B57D307DA8427CD9042177
:1028E000306801EBC50119AB405818AA10A900F0D7
:1028F00085F910A977A0FDF7E9FC00240DF118086F
:1029000032E0308B0121A140084217D0222173A070
:10291000FDF7DCFC204600F08DFA811970A024310F
:10292000FDF7D4FC22216DA0FDF7D0FC204600F07D
:1029300081FA3044243048F824000BE0204600F0AF
:1029400079FA3044416A48F82410F07D00B365A05C
:10295000FDF7BCFC9DF86000401E844202D063A0DD
:10296000FDF7B4FC641CE4B29DF860008442C8D357
:102970005FA0FDF7ABFC00F0A3FA707D0B2814D22A
:10298000DFE800F0080D31384048525E6B7888006F
:1029900058A0DDE7306850F83500804704E0306823
:1029A00050F8351006988847074600F055FA9DF80C
:1029B000640001287DD050A0FDF788FC96F8EC005B
:1029C00000280DD0D6F8F0000A21B0FBF1F201FB8F
:1029D0001202B0FBF1F100E002E048A0FDF776FC46
:1029E0001AB0BDE8F081306850F83520DDE9060105
:1029F0009047D9E7306806AC50F8353094E80700C6
:102A00009847D1E7306806AF50F8354097E80F0097
:102A1000A047C9E70A980090306806AF50F83540E3
:102A200097E80F00A047BFE7DDE90A01CDE9000103
:102A3000306806AF50F8354097E80F00A047B3E77D
:102A40000AAB06AF93E807008DE80700306850F83E
:102A5000354097E80F00A047A6E70AAC06AF94E818
:102A60000F008DE80F00306850F8354097E80F00F0
:102A7000A04799E70BAC06AF94E80F0001AC84E8DF
:102A80000F000A980090306850F8354097E80F0022
:102A9000A04789E70CAC06AF94E80F0002AC84E8CD
:102AA0000F00DDE90A01CDE90001306850F835403A
:102AB00000E003E097E80F00A04775E7F07D394696
:102AC00018B116A0FDF702FC78E717A0FAE700009E
:102AD000340100200D0A2573280000002563000042
:102AE0002573000030582558000000002C0000001D
:102AF00029000000256C75003B0D0A0046756E63C9
:102B000074696F6E2052756E2054696D653A256444
:102B10002E2531646D730D0A000000003D305825EC
:102B2000583B0D0A000000003D256C753B0D0A0066
:102B3000F0B500252E462F462C4603782C2B03D0CB
:102B4000292B04D01BB103E014B9012600E05CB3CB
:102B500017B1222B26D026E0A3F1300CBCF1090FCF
:102B600015D9A3F1610CBCF1050F10D9A3F1410CEB
:102B7000BCF1050F0BD9582B09D0782B07D0222B8D
:102B80000CD0202B1ED02C2B1CD0FF270CE05EB9C4
:102B9000612B00D3203B01F8013B13E026B901274C
:102BA0003C460FE0002426B100200870177028462C
:102BB000F0BD3CB15C2B02D16D1CEDB2401C037822
:102BC00001F8013B6D1CEDB2401CB6E730B50025A5
:102BD00015700AE001F8014B1478401C641CE4B243
:102BE00014709C4201D3012030BD0478202C01D008
:102BF000002CEFD10D70002030BD00002DE9FF4FFB
:102C0000002482B089469846A246274601252646DA
:102C10002246EB46029915E0202810D002F07F03EF
:102C2000052B0CD202B9802202F07F03042B01D1C4
:102C30002A280AD1521C0BF80300D2B201E0852ADF
:102C400004D0491C08780028E6D16AB102F07F025E
:102C500000200BF8020041A1584600F0F1F938B10C
:102C6000012188F8001000224FF00008029B15E0B7
:102C7000002088F80000F6E708F1010000F0FF08E6
:102C800013F8010F202801D02A2807D1184600F098
:102C90007FF9282802D02A2800D0C2461878282890
:102CA00001D00028E8D10299BAF1000F01D05144B7
:102CB000491C4FF000084346087888B1282804D002
:102CC000292806D0222810D011E083B9641CE4B270
:102CD0000DE063B924B1641E14F0FF0402D00DE0CE
:102CE0004FF00108012F27D02FE04BB100234CB14A
:102CF0002C280CD0202816D0282814D05AB110E047
:102D00000123F4E7202815D009F8010B12E0012572
:102D1000521CD2B207E0052E03D20BF80600761C37
:102D2000F6B26D1CEDB2012C04D1022D02D10325A7
:102D30007F1CFFB2491CBFE700200BF8060007A16B
:102D4000684600F07DF900B900270498077000205C
:102D500089F8000006B04046BDE8F08F766F6964E0
:102D6000000000002DE9F04300248946304DB5B045
:102D7000214622466B18491CC9B29A760A29F9D312
:102D800002E010F8011F99B101782829F9D1461CF9
:102D90004FF0010833AA69463046FFF7C9FE0644E2
:102DA0009DF8CC0040B1012824D0FF2836D10BE09B
:102DB000012035B0BDE8F0839DF8000070B334A960
:102DC000684600F0EDF808B10220F2E7204600F076
:102DD00031F8284434994162298B08FA04F0814380
:102DE0002983042029198876641CE4B20A2C15D999
:102DF0000320DEE7684600F038F9471C204600F063
:102E000019F841196846243100F026F9298B08FA8F
:102E100004F00143281929838776E5E730782928CB
:102E200001D00028B6D189F800400020C1E7000099
:102E300034010020024610B500200146054B05E094
:102E40005C18491CA47EC9B22044C0B29142F7D399
:102E500010BD000034010020094800880949C0075E
:102E6000D1F8F00004D04FF6FF721044C1F8F00022
:102E7000034A143212681044C1F8F0007047000091
:102E8000100800403401002000EBC00101EB0010ED
:102E90004FF0FF3101EB800010B581B24FF47A7032
:102EA000FEF7DCF901490120C87510BD340100208E
:102EB0000346012000E05843491EC9B2FBD27047C7
:102EC0000848018821F00101018006494FF6FF7092
:102ED0001C31086003490020143108600249C1F820
:102EE000F000704710080040340100202DE9F04147
:102EF000164E3088010426D51549C0B2154F00255D
:102F00000D54B9681248884704000FD0104800F0EB
:102F1000B5F8012801D0040014D0012C09D0022CEE
:102F200009D0032C09D0042C0CD108E0F8688047A4
:102F300008E009A004E00BA002E00DA000E00FA053
:102F4000FDF7C4F93580BDE8F081000024000020C1
:102F50003402002034010020BAAFCAFDB4EDCEF334
:102F6000210D0A00B2CECAFDB4EDCEF3210D0A0048
:102F7000B2CECAFDCCABB6E0210D0A00CEB4D5D29C
:102F8000B5BDC6A5C5E4B5C4BAAFCAFD210D0A00DA
:102F900010F8011F202901D10028F9D1C8B27047CB
:102FA0002DE9F0410024884605460A260C60017888
:102FB000A1F13002092A0DD9113A052A0AD9582956
:102FC00005D011F0FF0F0CD00120BDE8F081012CDD
:102FD00002D0F9E7412900D31026641CE4B2401C5A
:102FE000E5E7102E01D084B112E0032C01D20220BB
:102FF000EBE72878302802D16878582801D00320E0
:10300000E3E7A41EE4B2AD1C01E00420DDE70CB14F
:10301000641EE4B22F783846303F092F01D9A0F161
:10302000370721463046FFF743FFD8F8001007FB6B
:103030000011C8F8001015F8010F0028E7D1C4E707
:1030400002780B789A4201D00120704712B1401CDF
:10305000491CF5E70020704702780A700278002AC0
:1030600002D0401C491CF7E77047002102781AB1D2
:10307000491CC9B2401CF9E708467047F0B58DB04D
:1030800004461E2308AA6946FFF7A0FD0990002800
:1030900072D19DF82000271800253E4C8DF8205055
:1030A0009DF8200054F820106846FFF7C9FF38B19A
:1030B0009DF82000401CC0B28DF820000728EFD3F7
:1030C0009DF820000426344C072855D2DFE800F094
:1030D0000404395A605F5E0030A0FDF7F7F830A0B5
:1030E000FDF7F4F83EA0FDF7F1F84DA0FDF7EEF87E
:1030F0005BA0FDF7EBF86AA0FDF7E8F878A0FDF714
:10310000E5F885A0FDF7E2F88AA0FDF7DFF88FA0CB
:10311000FDF7DCF893A0FDF7D9F898A0FDF7D6F8F5
:103120009DA0FDF7D3F8A3A0FDF7D0F8AFA0FDF761
:10313000CDF8BCA0FDF7CAF8C7A0FDF7C7F8D3A02B
:103140001BE016A0FDF7C2F8E0A0FDF7BFF88DF870
:1031500020500BE0216806EBC0000958EBA0FDF7FA
:10316000B5F89DF82000401C8DF82000217D9DF8C9
:1031700020008142EED84EE24FE2FDF7A7F8002092
:103180000DB0F0BD05A0FDF7A1F8C3E124E204E213
:10319000E3E10000F0000020340100200D0A0000EF
:1031A0002D2D2D2D2D2D2D2D2D2D2D2D2D2D2D2D4F
:1031B0002D2D2D2D2D2D2D2D55534D415254205655
:1031C000332E312D2D2D2D2D2D2D2D2D2D2D2D2D24
:1031D0002D2D2D2D2D2D2D2D2D2D2D200D0A0000C9
:1031E0002020202055534D415254CAC7D3C9414CC9
:1031F00049454E54454BBFAAB7A2B5C4D2BBB8F699
:10320000C1E9C7C9B5C4B4AEBFDAB5F7CAD4BBA566
:10321000BDBBD7E9BCFE2CCDA8B9FD200D0A00002E
:10322000CBFC2CC4E3BFC9D2D4CDA8B9FDB4AEBF8A
:10323000DAD6FACAD6B5F7D3C3B3CCD0F2C0EFC34F
:10324000E6B5C4C8CEBACEBAAFCAFD2CB2A2D6B4C7
:10325000D0D02ED2F2B4CB2CC4E3BFC90D0A0000EB
:10326000D2D4CBE6D2E2B8FCB8C4BAAFCAFDB5C47A
:10327000CAE4C8EBB2CECAFD28D6A7B3D6CAFDD7DA
:10328000D62831302F3136BDF8D6C629A1A2D7D6DF
:10329000B7FBB4AEA1A2BAAFCAFDC8EB0D0A0000DD
:1032A000BFDAB5D8D6B7B5C8D7F7CEAAB2CECAFD61
:1032B000292CB5A5B8F6BAAFCAFDD7EEB6E0D6A7A9
:1032C000B3D63130B8F6CAE4C8EBB2CECAFD2CB2E0
:1032D000A2D6A7B3D6BAAFCAFDB7B5200D0A000073
:1032E000BBD8D6B5CFD4CABE2ED0C2D4F6B2CECAC1
:1032F000FDCFD4CABEBDF8D6C6C9E8D6C3B9A6C4E8
:10330000DC2CD0C2D4F6BDF8D6C6D7AABBBBB9A6B2
:10331000C4DC2E0D0A000000BCBCCAF5D6A7B3D68B
:103320003A7777772E6F70656E6564762E636F6D72
:103330000D0A000055534D415254D3D037B8F6CF43
:10334000B5CDB3C3FCC1EE3A0D0A00003F3A2020D0
:1033500020202020BBF1C8A1B0EFD6FAD0C5CFA263
:103360000D0A000068656C703A202020BBF1C8A1EE
:10337000B0EFD6FAD0C5CFA20D0A00006C69737405
:103380003A202020BFC9D3C3B5C4BAAFCAFDC1D04B
:10339000B1ED0D0A0A00000069643A2020202020C7
:1033A000BFC9D3C3BAAFCAFDB5C44944C1D0B1ED9A
:1033B0000D0A0A006865783A20202020B2CECAFDA6
:1033C0003136BDF8D6C6CFD4CABE2CBAF3B8FABFD0
:1033D000D5B8F12BCAFDD7D6BCB4D6B4D0D0BDF881
:1033E000D6C6D7AABBBB0D0A0A0000006465633AC3
:1033F00020202020B2CECAFD3130BDF8D6C6CFD4B1
:10340000CABE2CBAF3B8FABFD5B8F12BCAFDD7D6CD
:10341000BCB4D6B4D0D0BDF8D6C6D7AABBBB0D0AB3
:103420000A00000072756E74696D653A312CBFAA8E
:10343000C6F4BAAFCAFDD4CBD0D0BCC6CAB13B30FB
:103440002CB9D8B1D5BAAFCAFDD4CBD0D0BCC6CA7E
:10345000B13B0D0A0A000000C7EBB0B4D5D5B3CC20
:10346000D0F2B1E0D0B4B8F1CABDCAE4C8EBBAAF8B
:10347000CAFDC3FBBCB0B2CECAFDB2A2D2D4BBD887
:10348000B3B5BCFCBDE1CAF82E0D0A002D2D2D2DC3
:103490002D2D2D2D2D2D2D2D2D2D2D2D2D2D2D2D5C
:1034A0002D2D2D2D2D2D414C49454E54454B2D2D67
:1034B0002D2D2D2D2D2D2D2D2D2D2D2D2D2D2D2D3C
:1034C0002D2D2D2D2D2D2D200D0A00002D2D2D2DD6
:1034D0002D2D2D2D2D2D2D2D2D2D2D2D2D2D2D2D1C
:1034E0002D2D2D2D2DBAAFCAFDC7E5B5A52D2D2D3E
:1034F0002D2D2D2D2D2D2D2D2D2D2D2D2D2D2D2DFC
:103500002D2D2D2D2D2D2D2D200D0A0025730D0A6D
:103510000000000042A0FCF7D9FE8DF8205016E014
:10352000216806EBC0000BAB08580AAA6946FFF7F2
:1035300065FB9DF82010206850F83120694648A0AE
:10354000FCF7C4FE9DF82000401C8DF82000217D72
:103550009DF820008142E3D85DE0AFF2C030FCF777
:10356000B5FE08AA69463846FFF7E2FA9DF8200042
:10357000002843D109A96846FFF712FD8DF8200005
:1035800010B104283AD102E03AA009991CE03CA00D
:10359000FCF79CFE0120E0753DE038A0FCF796FEAC
:1035A00008AA69463846FFF7C3FA9DF8200028BBF1
:1035B00009A96846FFF7F4FC8DF8200010B1042833
:1035C0001CD104E033A00999FCF780FE23E034A06D
:1035D000FCF77CFEE5751EE028A0FCF777FE08AA44
:1035E00069463846FFF7A4FA9DF8200030B909A9CA
:1035F0006846FFF7D5FC8DF8200008B10220BFE532
:10360000099810F0FF0084F8EC0001D029A000E038
:103610002FA0FCF75BFE19A0AFE50120B0E500008C
:103620002D2D2D2D2D2D2D2D2D2D2D2D2D2D2D2DCA
:103630002D2D2D2D2D2D2D2D2DBAAFCAFD20494418
:10364000202D2D2D2D2D2D2D2D2D2D2D2D2D2D2DB7
:103650002D2D2D2D2D2D2D2D2D2D2D2D200D0A0017
:1036600025732069642069733A0D0A305825303873
:10367000580D0A004845583A305825580D0A0000A0
:103680003136BDF8D6C6B2CECAFDCFD4CABE210DE2
:103690000A0000004445433A256C750D0A000000FD
:1036A0003130BDF8D6C6B2CECAFDCFD4CABE210DC8
:1036B0000A00000052756E2054696D652043616CEC
:1036C00063756C6174696F6E204F4E0D0A000000C7
:1036D00052756E2054696D652043616C63756C6131
:1036E00074696F6E204F46460D0A0000D0E9013222
:1036F00001699A60D0E901235A604A68824201D187
:1037000082684A60002202610868401E08600868FA
:10371000704700F108014FF0FF32C0E90112C160AB
:10372000016100210160704700210161704730B5DF
:103730000C68621C02D000F1080202E0026904E099
:103740001A4653681D68A542FAD953684B609960C0
:103750008A60516008610168491C016030BD42689F
:103760004A6093688B609368596091600861016852
:10377000491C016070470000502080F31188BFF39E
:103780004F8FBFF36F8F09494868401C486001287C
:103790000AD10748006810F0FF0F05D04FF4B3724C
:1037A00004A10FA0FCF792BD70470000A800002004
:1037B00004ED00E02E2E5C4672656552544F535C5A
:1037C000706F727461626C655C525644535C415216
:1037D0004D5F434D335C706F72742E6300000000C8
:1037E0004572726F723A25732C25640D0A00000031
:1037F00010B5084C606828B940F26D1206A111A0FE
:10380000FCF764FD6068401E606001D180F31188A0
:1038100010BD0000A80000202E2E5C467265655287
:10382000544F535C706F727461626C655C525644A5
:10383000535C41524D5F434D335C706F72742E6325
:10384000000000004572726F723A25732C25640DDA
:103850000A00000070B500282DD0174DA0F1080413
:1038600060686969084205D140F2191213A11BA0D2
:10387000FCF72CFD206828B14FF48D720FA117A022
:10388000FCF724FD60686969084214D02268002AA8
:1038900011D18843606000F01BFA606869680844D1
:1038A00068602046FEF780FB2869401C2861BDE85F
:1038B000704000F017BF70BDB40000202E2E5C4693
:1038C00072656552544F535C4D656D4D616E675C1A
:1038D000686561705F342E63000000004572726F8E
:1038E000723A25732C25640D0A0000004FF0E02089
:1038F00000210161816105494FF47A720968B1FBC9
:10390000F2F1491E41610721016170473800002032
:1039100010B5FCF7B5FC104C10280CD300F1E020DA
:1039200090F8F0032178884205D240F2A6220BA13C
:1039300015A0FCF7CBFC18480068A16800F4E06013
:10394000884207D9BDE8104040F2B62203A10EA07C
:10395000FCF7BCBC10BD0000A80000202E2E5C4669
:1039600072656552544F535C706F727461626C651E
:103970005C525644535C41524D5F434D335C706F13
:1039800072742E63000000004572726F723A2573E4
:103990002C25640D0A0000000CED00E010B5074B6B
:1039A000002253F832401CB1521C082AF9D310BD32
:1039B00043F8321003EBC201486010BD2805002017
:1039C00070B515460E460446FFF7D6FE94F944102E
:1039D0000020491C01D184F8440094F94510491C89
:1039E00001D184F84500FFF703FFA06B28B92A46F0
:1039F000314604F1240000F0F3F82046BDE87040A1
:103A0000FEF70ABD0A490B4A08881278104480B2B2
:103A10000880B0F57A7F0AD300220A804868401CEB
:103A200048603C2803D34A608868401C886070471F
:103A30001C0500203000002010B5040012D00E49F3
:103A4000096B29B140F244520CA111A0FCF73EFCD5
:103A500000F03EF900212046FEF7D0F800F042FECB
:103A6000002807D10E494FF080500860BFF34F8FF8
:103A7000BFF36F8F10BD0000580000202E2E5C4653
:103A800072656552544F535C7461736B732E63009F
:103A90004572726F723A25732C25640D0A0000007E
:103AA00004ED00E070B50446FFF766FE234D04B94F
:103AB0002C68201DFFF71AFE58B9E06A204A00EB77
:103AC000800152F8211021B90121814028698843E1
:103AD0002861A06A18B104F11800FFF707FE686AB0
:103AE000401C68622868844207D1211D1548FFF7F1
:103AF00036FE6868401C686007E0A868401EA86041
:103B00002046FEF78CF9FEF7E5FBFFF771FE6869CA
:103B1000002812D0286884420FD1286B28B140F2C7
:103B2000DA4209A10DA0FCF7D1FB10494FF08050FB
:103B30000860BFF34F8FBFF36F8F70BD5800002038
:103B400068050020240800202E2E5C467265655210
:103B5000544F535C7461736B732E63004572726FC4
:103B6000723A25732C25640D0A00000004ED00E074
:103B700002490A6A0260C968416070475800002023
:103B800001490120C86170475800002070B50D46FA
:103B9000040005D140F6FA3207A10CA0FCF796FB11
:103BA0000E48016820461831FFF7C1FD2846BDE8E0
:103BB00070400121FEF722B82E2E5C4672656552D8
:103BC000544F535C7461736B732E63004572726F54
:103BD000723A25732C25640D0A000000580000205D
:103BE00070B514460E46050005D140F6254209A1E0
:103BF0000DA0FCF76BFB1048016828461831FFF751
:103C0000AEFD0CB14FF0FF3621463046BDE87040A6
:103C1000FDF7F4BF2E2E5C4672656552544F535C1F
:103C20007461736B732E63004572726F723A257301
:103C30002C25640D0A000000580000201CB5174810
:103C40000024CDE900402346822215A1164800F049
:103C5000EDFB012803D100F0FBFD01280AD0401C38
:103C60001BD102B040F62A02BDE810400FA114A0FB
:103C7000FCF72CBB502080F31188BFF34F8FBFF3AC
:103C80006F8F06484FF0FF312C388162012141616E
:103C9000C460BDE81C4000F081B81CBD8400002059
:103CA00049444C4500000000811E00082E2E5C4651
:103CB00072656552544F535C7461736B732E63006D
:103CC0004572726F723A25732C25640D0A0000004C
:103CD0000248016B491C0163704700005800002036
:103CE00070B5134D286B10B10120E86170BD002044
:103CF000E86128690F4EB0FA80F0C0F11F0000EBB8
:103D0000800456F8240028B940F6E1320AA10FA039
:103D1000FCF7DCFA06EB840000F108024168496810
:103D20004160914201D149684160C868286070BD16
:103D300058000020680500202E2E5C4672656552F2
:103D4000544F535C7461736B732E63004572726FD2
:103D5000723A25732C25640D0A000000FDF776FCED
:103D6000FCF7D6FD401CFBD0094C0A4DD4F80401E9
:103D700010B10748FDF7B4FBD5F8040110B10548B0
:103D8000FDF79EFBFCF760FE3220FFF755FEEDE7E6
:103D9000FC02002004040020016070477CB52A4D1D
:103DA00028780190FF20287028788DF800009DF871
:103DB00000009DF8001000F0F000884205D04FF49C
:103DC0008A7222A12CA0FCF781FA9DF800002E4CEB
:103DD00000F0500020700720A06006E0401EA060A8
:103DE0009DF8000040008DF800009DF800000006DE
:103DF000A068F3D403280ED040F2271213A11EA00E
:103E0000FCF764FAA068032805D04FF498720FA15C
:103E100019A0FCF75BFA207A000200F4E060A060D1
:103E2000019828701948016841F470010160016827
:103E300041F070410160FFF759FD00206060FCF720
:103E4000E9F900207CBD000000E400E02E2E5C4675
:103E500072656552544F535C706F727461626C6529
:103E60005C525644535C41524D5F434D335C706F1E
:103E700072742E63000000004572726F723A2573EF
:103E80002C25640D0A000000A800002020ED00E0B1
:103E900010B5502080F31188BFF34F8FBFF36F8FA1
:103EA00000F004FB18B105494FF080500860FFF79F
:103EB000A9FD002080F3118810BD000004ED00E092
:103EC0002DE9F04117460E46050005D14FF4BB72AF
:103ED0000EA113A0FCF7FAF905FB06F05430FEF72B
:103EE000D7FA04000ED004F154006EB12060C4E98A
:103EF0000F562046012100F01BF884F85070002175
:103F00002046A164BDE8F0812460F0E72E2E5C46D7
:103F100072656552544F535C71756575652E63000B
:103F20004572726F723A25732C25640D0A000000E9
:103F300070B50D46040005D140F203121CA121A06A
:103F4000FCF7C4F9FFF718FCD4E90F20216802FB45
:103F50000011A1600021A163216861600A46D4E9D3
:103F60000F01401E00FB0121E16021464FF0FF30B0
:103F700001F8440F487004F110004DB1FFF7C9FB80
:103F800004F12400FFF7C5FBFFF732FC012070BDF0
:103F900021690029F8D000F059FB0028F4D00D4920
:103FA0004FF080500860BFF34F8FBFF36F8FEBE788
:103FB0002E2E5C4672656552544F535C7175657563
:103FC000652E63004572726F723A25732C25640D5D
:103FD0000A00000004ED00E02DE9FF4F83B01F460A
:103FE0008B4604004FF0000605D140F2EA2252A1B0
:103FF00056A0FCF76BF9BBF1000F07D1206C28B17C
:1040000040F2EB224CA151A0FCF760F9022F08D13D
:10401000E06B012805D04FF43B7247A14BA0FCF7A1
:1040200055F900F02FFA38B9059828B140F2EF227F
:1040300041A146A0FCF74AF94FF0000A4FF0805822
:10404000DFF81891FFF798FBA06BE16B884205D36E
:10405000022F03D0059818B32EB328E0A56B3A467B
:1040600059462046FDF7A5FEA16C31B1022F00D1C3
:1040700085B92046FDF7E8FF05E0616A19B104F152
:10408000240000F0E3FA28B1C9F80080BFF34F8F95
:10409000BFF36F8FFFF7ACFB012007B0BDE8F08FD7
:1040A000FFF7A6FB21E06846FFF762FD0126FFF758
:1040B0009FFBFFF70DFEFFF75FFB94F94400401CE8
:1040C00001D184F844A094F94500401C01D184F842
:1040D00045A0FFF78DFB05A9684600F05FF930B1F8
:1040E0002046FEF799F900F0FDFA0020D5E7FFF72A
:1040F00043FBA06BE16B884201D1012500E0002564
:10410000FFF776FB95B104F110000599FFF73EFD2E
:104110002046FEF781F900F0E5FA002892D1C9F8AF
:104120000080BFF34F8FBFF36F8F8BE72046FEF702
:1041300073F900F0D7FA85E72E2E5C46726565525A
:10414000544F535C71756575652E63004572726FCF
:10415000723A25732C25640D0A00000004ED00E07E
:104160002DE9F0471F4615468A46040005D14FF455
:104170006F722DA131A0FCF7A9F8BAF1000F07D199
:10418000206C28B140F2BD3227A12CA0FCF79EF88C
:10419000022F08D1E06B012805D040F2BE3222A1E7
:1041A00026A0FCF793F8FFF7B3FB5021EFF3118043
:1041B00081F31188BFF34F8FBFF36F8F8046A06BE1
:1041C000E16B884206D3022F04D0002088F31188C7
:1041D000BDE8F08794F94560D4F838903A465146E6
:1041E0002046FDF7E6FD701C04D0761C84F845607F
:1041F0000120EBE7A06C012640B1022F02D1B9F1FA
:10420000000FF5D12046FDF71FFF06E0606A002889
:10421000EED004F1240000F019FA0028E8D0002DB7
:10422000E6D02E60E4E700002E2E5C4672656552F3
:10423000544F535C71756575652E63004572726FDE
:10424000723A25732C25640D0A0000002DE9F7470A
:1042500083B08A4604004FF0000605D140F20452B4
:1042600044A149A0FCF732F8BAF1000F07D1206C45
:1042700028B14FF4A1623FA143A0FCF727F800F05A
:1042800001F938B9059828B140F20D5239A13EA084
:10429000FCF71CF800274FF08058DFF8FC90FFF780
:1042A0006BFAA56BC5B151462046FDF76FFD6D1E3B
:1042B000A563206950B104F1100000F0C7F928B1DE
:1042C000C9F80080BFF34F8FBFF36F8FFFF790FAED
:1042D000012006B0BDE8F087059808B11EB106E0E0
:1042E000FFF786FA27E06846FFF742FC0126FFF752
:1042F0007FFAFFF7EDFCFFF73FFA94F94400401C0A
:1043000001D184F8447094F94500401C01D184F82F
:104310004570FFF76DFA05A9684600F03FF80028E0
:1043200020460AD0FEF778F800F0DCF92046FDF7C9
:104330007DFE0028B3D00020CBE7FDF777FE90B1DB
:1043400004F124000599FFF721FC2046FEF764F8EC
:1043500000F0C8F90028A2D1C9F80080BFF34F8F40
:10436000BFF36F8F9BE72046FEF756F800F0BAF9CF
:1043700095E700002E2E5C4672656552544F535CE3
:1043800071756575652E63004572726F723A25739B
:104390002C25640D0A00000004ED00E02DE9F04139
:1043A0000C46050005D140F6CE4216A11AA0FBF737
:1043B0008DFF2CB940F6CF4212A117A0FBF786FF64
:1043C000FFF7DAF9184EF1686B682268C81A571CB3
:1043D00007D02F68366AB74209D08B4207D801242C
:1043E00000E00024FFF704FA2046BDE8F081824295
:1043F00005D9101A20602846FFF7BAFBF1E7002024
:104400002060ECE72E2E5C4672656552544F535C7B
:104410007461736B732E63004572726F723A257309
:104420002C25640D0A000000580000202DE9FF5FD4
:104430008346DDE90E87994616468A469000FEF7C8
:1044400027F805001AD06020FEF722F8040012D0E9
:1044500025630021CDE90241CDE900874B46324674
:1044600051465846FDF73AFD2046FDF7FFFB012077
:1044700004B0BDE8F09F2846FFF7ECF94FF0FF309D
:10448000F6E700000548416919B1006B18B100203A
:10449000704701207047022070470000580000203C
:1044A0000148C06870470000580000202DE9F04125
:1044B0002E4F0026386B28B1B869401CB8613046D1
:1044C000BDE8F081FD686D1CFD6011D1786B00685E
:1044D00028B140F6A92226A12AA0FBF7F7FE786BA7
:1044E000B96B7963B863386A401C3862FDF7F2FE35
:1044F000B86ADFF8A080854209D3786B0068A0B164
:10450000786BC068C4686068854211D2B862386848
:10451000C06A00EB800158F82100012800D901266B
:10452000F8690028CBD00126C9E74FF0FF30EDE74E
:10453000201DFFF7DBF8A06A18B104F11800FFF79F
:10454000D5F8E06A01213A6981401143396100EBF5
:10455000800108EB8100211DFFF701F9E06A39684D
:10456000C96A8842C9D30126C7E700005800002065
:104570002E2E5C4672656552544F535C7461736BAA
:10458000732E63004572726F723A25732C25640D89
:104590000A0000006805002070B504004FF0000616
:1045A0003CD01F4D2868844205D041F213021DA162
:1045B00021A0FBF78BFE606D28B941F2140219A10E
:1045C0001DA0FBF783FE606D401E6065226DE16AF1
:1045D000914223D010BB201DFFF788F81A49012211
:1045E00050B9E06A00EB800351F8233023B92B69FE
:1045F00002FA00F083432B61206DE062C0F12000DD
:10460000A061E06A2B6982401A432A6100EB8000B6
:1046100001EB8000211DFFF7A2F80126304670BD96
:10462000580000202E2E5C4672656552544F535C34
:104630007461736B732E63004572726F723A2573E7
:104640002C25640D0A000000680500202DE9F041CA
:10465000C068C4682CB940F6554216A11AA0FBF7F1
:1046600035FE04F118000746FFF740F81A4D286B95
:10467000012660B139461948FFF771F8E06A2968E8
:10468000C96A884213D90120EE61BDE8F081201D7E
:10469000FFF72CF8E06A2A6906FA00F11143296154
:1046A0000F4900EB800001EB8000211DE4E70020B2
:1046B000EBE700002E2E5C4672656552544F535C4A
:1046C0007461736B732E63004572726F723A257357
:1046D0002C25640D0A00000058000020100800205E
:1046E000680500202DE9F0472B4D00242746286B54
:1046F00028B940F6990229A12DA0FBF7E7FDFFF7A5
:104700003BF8286B401E2863286BE8BBA8682C493F
:104710000126C8B3A1F52A798846D8F80010E9B176
:10472000D8F80C00C46804F11800FEF7DFFF201D64
:10473000FEF7DCFFE06A2A6906FA00F111432961FD
:1047400000EB800109EB8100211DFFF708F8E06A0A
:104750002968C96A8842E0D3EE61DEE70CB1FDF753
:10476000B9FDAC693CB1FFF7A1FE00B1EE61641E7A
:10477000F9D10020A861E86930B112490127380752
:104780000860BFF34F8F00E001E0BFF36F8FFFF7CA
:104790002FF83846BDE8F087580000202E2E5C46E2
:1047A00072656552544F535C7461736B732E630072
:1047B0004572726F723A25732C25640D0A00000051
:1047C0001008002004ED00E02DE9F0470746994667
:1047D00016460D462C20DDF820A0FDF759FE0400FA
:1047E0001ED0B84600204F4684F82800D1462DB987
:1047F00040F265120CA112A0FBF768FDFDF79EFACE
:1048000004F11801C4F8008081E8A002201DFEF721
:104810008BFF2EB194F8280040F0040184F8281092
:104820002046BDE8F08700002E2E5C46726565527A
:10483000544F535C74696D6572732E630000000001
:104840004572726F723A25732C25640D0A000000C0
:104850001CB50024FDF772FA0C48006868B10B49DA
:104860001F20091DCDE9000100234FF4827208A129
:104870000948FFF7DBFD040005D140F2131207A140
:104880000CA0FBF723FD20461CBD00009400002077
:10489000546D722053766300F12300082E2E5C467F
:1048A00072656552544F535C74696D6572732E6303
:1048B000000000004572726F723A25732C25640D5A
:1048C0000A0000002DE9FF47DDF830A09946904628
:1048D0000D4606004FF0000705D14FF4C17212A13A
:1048E00017A0FBF7F3FC1A4C206880B1CDE9005803
:1048F0000296062D11DAFFF7C5FD02284FF00003DE
:1049000009D0002269462068FFF766FB074604B01D
:104910003846BDE8F0875246F4E700234A46694628
:10492000FFF71EFCF2E700002E2E5C467265655212
:10493000544F535C74696D6572732E630000000000
:104940004572726F723A25732C25640D0A000000BF
:10495000940000206765745F636869705F69640034
:104960006D61696E00303132333435363738394154
:1049700042434445464030580030313233343536B6
:10498000373839616263646566403078000400003E
:1049900008000000000000000200010000100000FC
:1049A0000D0A20232323232323232323232323200C
:1049B000687474703A2F2F7777772E637367736DEF
:1049C0002E636F6D2F2023232323232323232323CD
:1049D00023230D0A202323232323232323232323D9
:1049E00023284175672033302032303233202D2088
:1049F00031343A34313A33372923232323232323F1
:104A000023232323230000003F000000646563008C
:104A10006964000072756E74696D650068656C701C
:104A2000000000006C697374000000006865780085
:104A3000766F69642077726974655F616464722857
:104A400075333220616464722C7533322076616C68
:104A5000290000006273705F6C65645F746F676744
:104A60006C652875696E74385F74206E29000000CB
:104A700075333220726561645F61646472287533D6
:104A80003220616464722900766F69642064656C09
:104A900061795F6D732875696E7433325F74206E4F
:104AA0006D732900766F69642064656C61795F7548
:104AB000732875696E7433325F74206E75732900C4
:104AC000E04A000800000020280200003001000831
:104AD000544B000828020020B03E00008C01000862
:104AE00001308201780D48E801030406080C101813
:104AF00020301D1A021304570708091AAA010124BD
:104B0000B9982994999813084A1B081C041A24047C
:104B10001A10041A2C041A0C041A140413C5251BA9
:104B200008700813993D1B083008132D1A1B0888BC
:104B3000081A65081AA4081305162B085430120128
:104B40001420892E140839281B08CD041AED0C1ADC
:044B5000056A01DC15
:040000050800028964
:00000001FF
