:020000040800F2
:10000000D03E00203D020008090D0008050D000843
:10001000070D0008BD090008A1130008000000003A
:10002000000000000000000000000000A501000822
:10003000690A000800000000E90100082D1000080E
:10004000570200085702000857020008570200082C
:1000500057020008570200086D0A0008B10A00089C
:10006000F50A0008390B000857020008570200087B
:1000700057020008570200085702000857020008FC
:1000800057020008570200085702000857020008EC
:10009000570200085702000857020008910B000899
:1000A0005702000857020008951000085702000880
:1000B00057020008570200085702000857020008BC
:1000C00057020008570200085702000857020008AC
:1000D0005702000831110008BD110008570200083E
:1000E000570200085702000857020008570200088C
:1000F0005702000800F002F800F045F80AA090E866
:10010000000C82448344AAF10107DA4501D100F0D2
:100110003AF8AFF2090EBAE80F0013F0010F18BF5A
:10012000FB1A43F0010318475838000078380000E4
:10013000103A24BF78C878C1FAD8520724BF30C813
:1001400030C144BF04680C607047000000230024E5
:1001500000250026103A28BF78C1FBD8520728BFD7
:1001600030C148BF0B607047642900F0E5807829F2
:1001700000F01E81732900F0DF82002070471FB558
:100180001FBD10B510BD00F045FB1146FFF7F7FF8E
:1001900001F0E2FB00F063FB03B4FFF7F2FF03BCE6
:1001A00001F006F9224B19680868B0E8F00F80F3F7
:1001B0000988BFF36F8F4FF0000080F311884EF075
:1001C0000D0E70470000000006480068006880F3CC
:1001D000088862B661B6BFF34F8FBFF36F8F00DF41
:1001E00000BF00BF08ED00E0EFF30980BFF36F8FA1
:1001F0000F4B1A6820E9F00F106008B54FF050005F
:1002000080F31188BFF34F8FBFF36F8F02F026FD8D
:100210004FF0000080F31188BDE8084019680868B5
:10022000B0E8F00F80F30988BFF36F8F704700BF0D
:1002300054000020EFF30580704700000948804714
:1002400009480047FEE7FEE7FEE7FEE7FEE7FEE7B8
:10025000FEE7FEE7FEE7FEE704480549054A064BD0
:100260007047000041100008F5000008D02E002063
:10027000D03E0020D03A0020D03A00207047000045
:100280000FB4044910B503AA029800F059FA10BC43
:100290005DF814FB2000002070B5044685690068F5
:1002A000C10601D5302600E02026C00707D070BD6A
:1002B000D4E9012130469047206A401C20626D1E1F
:1002C000F6D570BD70B5044685690078C00707D1C2
:1002D00070BDD4E9012120209047206A401C206293
:1002E0006D1EF6D570BD70B50C460546012A05D0C9
:1002F0002878800600D5EA69002302E0012305E0A2
:100300005B1C934202D2E05C0028F9D1A869E61890
:10031000C01AA861286A184428622846FFF7BCFF63
:1003200004E0D5E9012114F8010B9047B442F8D359
:100330002846FFF7C7FF70BD2DE9F04106460024AF
:1003400010687529314616A510D0AFF3008000283B
:1003500002DA404213A507E031688A0701D512A5E9
:1003600002E0490704D511A5012401E0AFF30080A4
:1003700000210A2206F1240709E0B0FBF2FCB0FBE1
:10038000F2F302FB1C00303078541846491C002858
:10039000F3D123462A463046BDE8F04100F048B983
:1003A000000000002D0000002B00000020000000D5
:1003B00070B504460D4621461068AFF300802188D1
:1003C000090502D50F4A7A4402E00E4A7A440E32F9
:1003D000002104F1240305E000F00F060009965DFA
:1003E0005E54491C0028F7D120780023000704D56B
:1003F000702D02D009B1022311322046BDE87040B1
:1004000000F016B9133500002DE9F05F8946044667
:100410004FF0000ADFF824B1FB44C0F820A02046CA
:10042000E168884700287DD0252806D0D4E901213D
:100430009047206A401C2062F1E700255F46204675
:10044000E16888472028064607DB312E05D2B81917
:1004500010F8200C08B10543F1E7A80701D525F0F5
:100460000405C4F81CA00027C4F818A02A2E09D03F
:10047000304600F096FF38B304EB8708303EC8F8EA
:10048000186019E059F8041B204604EB87029161BB
:10049000E1688847012F064618D1E069002820DA74
:1004A00025F020051DE0D8F8180000EB800006EBD1
:1004B00040003038C8F818002046E16888470646F2
:1004C00000F06FFF0028EED1012F0AD02E2E08D1A8
:1004D0002046E16888477F1C0646022F45F020052C
:1004E000C4DBA069002803DA404245F00105A061A1
:1004F000E80701D025F01005A6B1A6F141001928A2
:1005000002D8203645F400654A463146204625602B
:100510004D46FFF729FE60B1012807D0ED1D25F0FB
:10052000070000E007E000F1080978E705F1040999
:1005300075E730467AE7206ABDE8F09FE9340000AD
:10054000032A40F2308010F0030C00F0158011F8FF
:10055000013BBCF1020F624498BF11F801CB00F8D7
:10056000013B38BF11F8013BA2F1040298BF00F82B
:1005700001CB38BF00F8013B11F0030300F0F2801B
:10058000083AC0F0088051F8043B083A51F804CB0F
:10059000A0E80810F5E7121D5CBF51F8043B40F8D5
:1005A000043BAFF30080D20724BF11F8013B11F8E0
:1005B00001CB48BF11F8012B24BF00F8013B00F824
:1005C00001CB48BF00F8012B704702F0FF0343EA5C
:1005D000032242EA024200F0F9B84FF0000200B5EF
:1005E000134694469646203922BFA0E80C50A0E856
:1005F0000C50B1F12001BFF4F7AF090728BFA0E804
:100600000C5048BF0CC05DF804EB890028BF40F8CF
:10061000042B08BF704748BF20F8022B11F0804F11
:1006200018BF00F8012B704770477047704770473C
:100630002DE9F0470D4699469246044600F12408FC
:100640000168880604D5E06921F01001216000E00E
:100650000120A84201DD471B00E00027A1697A19AB
:1006600002EB0900081AA0612078C00602D42046D7
:10067000FFF712FE002608E0D4E901211AF806006F
:100680009047206A401C761C20624E45F4DB20789F
:10069000C0060AD52046FFF7FFFD06E0D4E9012198
:1006A00030209047206A401C2062381EA7F10107C5
:1006B000F4DC07E0D4E9012118F805009047206A2E
:1006C000401C2062281EA5F10105F3DC2046FFF73F
:1006D000F9FD2078000602D50220BDE8F087012050
:1006E000FBE7000001694A1C02610878704700B509
:1006F0008FB0CDE901310021059105497944CDE95B
:10070000031011466846FFF77FFE0FB000BD0000E2
:10071000E5FFFFFF10B5436913B1AFF3008001E0BF
:10072000FFF7E1FD012010BD127800F124010A70ED
:1007300000224A700122EDE711684FF0FF32E9E72D
:10074000074B70B50D467B44FFF7D1FF04462846A2
:1007500000F05CF810B14FF0FF3070BD204670BD66
:100760008311000010B5203AC0F00B80B1E818509A
:10077000203AA0E81850B1E81850A0E81850BFF48B
:10078000F5AF5FEA027C24BFB1E81850A0E818502A
:1007900044BF18C918C0BDE810405FEA827C24BF7E
:1007A00051F8043B40F8043B08BF7047D20728BF0C
:1007B00031F8023B48BF11F8012B28BF20F8023B5B
:1007C00048BF00F8012B70474FF000020429C0F029
:1007D000128010F0030C3FF402AFCCF1040CBCF11A
:1007E000020F18BF00F8012BA8BF20F8022BA1EBC5
:1007F0000C01FFF7F4BE5FEAC17C24BF00F8012BB7
:1008000000F8012B48BF00F8012B7047007B00F077
:1008100080007047754600F029F8AE46050069462D
:10082000534620F00700854618B020B5FFF714FDA9
:10083000BDE820404FF000064FF000074FF00008E1
:100840004FF0000B21F00701AC46ACE8C009ACE862
:10085000C009ACE8C009ACE8C0098D467047044641
:10086000AFF300802046FFF797FC00000048704778
:10087000702E0020FEB52F4D2F4C2B784BB1224609
:10088000002607CA012B09D0022B13D0032B2ED030
:1008900035E000F005FF00F0F3FE19E03223CDE96A
:1008A0000063002300F06CFB012828D100F000FF5A
:1008B00022A00BE04FF4FA73CDE90063002300F0AF
:1008C0005FFB01281BD100F0E3FE1FA0FFF7D8FC5F
:1008D000684600F00FFA9DE8070084E807002878D2
:1008E000401CC1B229701CA0FFF7CAFC07E003231B
:1008F000CDE90036002300F043FB012802D04FF081
:10090000FF30FEBD00F0BCFE18A0FFF7B9FC684642
:1009100000F0F0F99DE8070084E807002878401C03
:10092000C1B229700CA0FFF7ABFC14A000F028FDA9
:100930000120FEBD1C000020EC0000200D0A5642E4
:100940004154204F4E0D0A000D0A5057524B455945
:10095000204F4E0D0A0000000D0A735F756341546D
:100960005374613A25640D0A000000000D0A5057C7
:10097000524B4559204F46460D0A000041542B4921
:1009800050523D393630300D0A0000001CB50121AF
:10099000022000F00FFA4020009001208DF80400A2
:1009A000054C8DF805006946204600F059F94021B4
:1009B000204600F09CF91CBD00040240FEE7000048
:1009C00070B5084800244FF480752946C0F80441EA
:1009D000FFF703FE04482946C0F80441BDE8704013
:1009E000FFF7FBBDF8000020000200201CB5054900
:1009F0000220CDE900010023C82203A1064802F02D
:100A0000D1FC1CBD1000002052756E696E675F53EB
:100A10007461746500000000750E00081CB505497E
:100A20000620CDE900010023642203A1074802F05B
:100A3000B9FC1CBD18000020765472616E736D699C
:100A40007373696F6E5461736B000000D92C0008DA
:100A5000044A0029516801D0014300E081435160FC
:100A600070470000002004E07047000010B501202E
:100A700000F0B4F800280AD005A0FFF701FC6420BC
:100A800000F0FAFEBDE81040012000F0A1B810BD52
:100A90000D0A2045585449305F49525148616E64EF
:100AA0006C6572B2FAC9FAD6D0B6CF0D0A00000052
:100AB00010B5022000F092F800280AD005A0FFF738
:100AC000DFFB642000F0D8FEBDE81040022000F0FB
:100AD0007FB810BD0D0A2045585449315F49525125
:100AE00048616E646C6572B2FAC9FAD6D0B6CF0DA1
:100AF0000A00000010B5042000F070F800280AD0A9
:100B000005A0FFF7BDFB642000F0B6FEBDE8104075
:100B1000042000F05DB810BD0D0A2045585449323C
:100B20005F49525148616E646C6572B2FAC9FAD677
:100B3000D0B6CF0D0A00000010B5082000F04EF826
:100B4000002813D00A480178491C01700178032954
:100B500003D30021017001218170017805A0FFF706
:100B60008FFBBDE81040082000F032B810BD000037
:100B700026000020675F75634D70755F747269674A
:100B8000676572436E74203D202564210D0A0000C4
:100B900010B5802000F022F8002807D004A0FFF74D
:100BA0006FFBBDE81040802000F012B810BD0000BF
:100BB0000D0A20455854495F4C696E6520506F7787
:100BC0006572B2FAC9FAD6D0B6CF0D0A000000009D
:100BD000014908607047000014040140034A0146BF
:100BE000002012680A4200D001207047140401401E
:100BF00030B51A4A8379016853B313688B43136085
:100C0000111D0B680468A3430B60017911440B6844
:100C1000046823430B60114B083319680468A1432F
:100C200019601C1D21680568A943216041791029BC
:100C300005D011440A68006802430A6030BD196893
:100C4000026811431960216800680143216030BDCA
:100C50000079104402688A43026030BD00040140FC
:100C6000F0B5002201274FF0030E0B6807FA02F5DA
:100C70002B40AB4227D10668530091F804C00EFA0E
:100C800003F4A6430CFA03FC4CEA060CC0F800C0BF
:100C90000E79012E01D0022E0FD1866891F805C081
:100CA000A6430CFA03FC4CEA060CC0F808C0868880
:100CB000AE438D79954035438580C568A543CC7991
:100CC0009C402C43C460521C102ACED3F0BD4B076D
:100CD000DB0E9A40C90810B500EB8100016A0F24B1
:100CE0009C40A1430162016A1143016210BD41832E
:100CF0007047000002490EC980E80E0070470000EE
:100D000018030020FEE7FEE77047000030B50F2310
:100D1000C27801780125FAB1144A126801F1E02184
:100D200002F4E062C2F5E062C2F30722C2F10404F9
:100D3000D3404278A24084781C401443220181F8B9
:100D40000024007800F01F018D404009800000F170
:100D5000E020C0F8005130BD01F01F008540480977
:100D6000800000F1E020C0F8805130BD0CED00E0C3
:100D70000249084302490860704700000000FA0574
:100D80000CED00E0044A0029116801D0014300E0A5
:100D900081431160704700001C380240044A00295A
:100DA000116801D0014300E08143116070470000E9
:100DB00024380240044A0029116801D0014300E0B0
:100DC00081431160704700002038024030B5254B48
:100DD0001968A3F1040211F00C014FF4004405D08E
:100DE00004290AD008290AD00C290AD01168C1F3B5
:100DF0004231491C8C40046019E01B4916E01B4934
:100E000014E019681A6801F47011194C02F44002D8
:100E100004EB91410978012404EB92521C6814F40C
:100E2000803F1DD0114C6143B1FBF2F101601968A4
:100E30000F2202EA11110E4A0932545C0168E140A6
:100E400041601C68072505EA1424145D21FA04F4A6
:100E500084601B6805EAD323D25CD140C16030BDF9
:100E6000014CE0E7083802400024F40000127A0048
:100E7000D00000204FF4FA74012000F013FB20464C
:100E800001F098FD022000F00DFB204601F092FDDC
:100E9000F2E7000010B58A0721F003040649120F9B
:100EA00021440F238C6893409C438C608B68904056
:100EB00003438B6010BD0000000001400CB5002210
:100EC0002C4900920192086840F4803008604FF489
:100ED000A043086800F4003001900098401C009086
:100EE000019810B900989842F3D1086880033FD563
:100EF000012001902048026842F00402026002686A
:100F000042F002020260026842F0010202601948E7
:100F10002430026842F080520260C2141748026016
:100F20004268D206FCD413480830026802600268A6
:100F3000026002680260026822F47D0202600268B8
:100F400042F4110202600A6842F080720A600A6884
:100F50009201FCD5016821F003010160016841F0B4
:100F6000030101600168C1F381010329FAD10CBDBD
:100F700001920CBD00380240003C0240007000406D
:100F80002DE9FE4F0746DDE90CAB1E46884691462B
:100F90006846FFF7AFFE00243C252046E9FB0580AC
:100FA0004FF47A71A8FB013C00FB01C008FB04026E
:100FB000B8B213EB0009DDE901032146E3FB0501AB
:100FC0004FF47A73A0FB037801FB038100FB04104C
:100FD000BDF80010624117EB010C51462346E6FBB9
:100FE00005134FF47A75A1FB056803FB0583002701
:100FF00001FB0731604116EB0B036141BCEB0904B7
:1010000060EB02001A1B814102D20120BDE8FE8F75
:101010000020FBE74FF0E0210428086903D020F00E
:1010200004000861704740F00400FAE710B502F0D0
:10103000E5F9012803D0BDE8104001F0E5BE10BD80
:10104000104800B5016841F4807101600D49083114
:101050000A680D4B1A400A6002680C4B1A40026085
:10106000026822F480220260086820F47D00086093
:10107000091D00200860FFF721FF05494FF00060BF
:10108000086000BD003802400CC0FF88FEFFFEEE85
:1010900008ED00E070B5174D0221284600F033F846
:1010A000002825D00221284600F028F8124C20689C
:1010B00088B1206801281BD1284600F022F8E060A2
:1010C00000220221284600F02AF8D4E902018142D8
:1010D00007D9081A09E0284600F013F8A06001209B
:1010E00005E04FF6FF72101A08446060022020608D
:1010F00070BD0000000C014000000020C9430182C7
:101100007047406B704702460020138A92890B4259
:1011100002EA010202D0002A00D001207047002A12
:10112000828901D00A4300E08A438281704700002F
:101130002DE9F0411F4E40F225573946304600F068
:1011400081F81D4C0025A8B1D4F80401FF2802D96C
:10115000C4F804510AE0304600F0FEF8D4F8041157
:101160006054D4F80401401CC4F8040139463046E8
:1011700000F051F80821304600F05DF8012817D141
:10118000D4F80401FF2802D9C4F804510AE030461B
:1011900000F0E2F8D4F804116054D4F80401401CC3
:1011A000C4F804013046BDE8F041082100F030B831
:1011B000BDE8F08100380140F800002070B5134C04
:1011C00040F225552946204600F03CF8012809D177
:1011D000204600F0C1F8C0B200F01AFC29462046B3
:1011E00000F019F80821204600F025F801280BD15D
:1011F000204600F0B1F8C0B200F00AFC2046BDE87D
:101200007040082100F004B870BD000000440040A8
:10121000C943018070470A0A01219140C9430180F6
:1012200070470029818902D041F4005101E021F486
:101230000051818170470246002012880A4200D086
:101240000120704770B501F01F0501260024C1F38D
:10125000421306FA05F2012B0FD0022B0FD0838A1E
:101260004FEA11210088134206FA01F600EA06004F
:1012700001D000B10124204670BD8389F0E7038AC4
:10128000EEE710B5C1F3421301F01F040121A140A4
:10129000012B07D0022B07D01430002A026805D09A
:1012A0000A4304E00C30F8E71030F6E78A430260A6
:1012B00010BD00007FB50446008A0D4620F4405161
:1012C000E88808432082A18941F20C608143A88804
:1012D0002A8910436A890A431043A081A08A20F416
:1012E0004071A8890843A0826846FFF76FFD19483E
:1012F000844201D1039800E00298A189090400EB1F
:10130000C00101EB0010296801D5490000E0890007
:10131000B0FBF1F06422B0FBF2F109010B096FF0B0
:1013200018056B4300EB8300A3891D044FF03203C3
:1013300006D503EBC000B0FBF2F000F0070005E0BB
:1013400003EB0010B0FBF2F000F00F000843208127
:101350007FBD0000003801408088C0F3080070475E
:1013600010B506490C1D04E00B885B06FCD52280F5
:10137000401C0278002AF7D110BD0000003801405F
:1013800010B506490C1D04E00B885B06FCD52280D5
:10139000401C0278002AF7D110BD00000044004034
:1013A000FEE730380A2801D201207047002070473C
:1013B000704710B5FFF71AFBBDE81040FFF72EBBD2
:1013C00010B500F08FFA00F009F800F097F800F07F
:1013D000ADF9BDE81040FFF7D9BA00007CB5012196
:1013E0000846FFF7CFFC01258DF8045000248DF846
:1013F000064010208DF8055000908DF80740694692
:101400002648FFF72DFC01210420FFF7BBFC8DF8D7
:1014100004508DF806402020214E8DF80550009094
:101420008DF8074069463046FFF71AFC0121042079
:10143000FFF7A8FC8DF804508DF80640E8028DF8FF
:10144000055000908DF8074069463046FFF708FCCC
:1014500001210420FFF796FC8DF804508DF806401A
:1014600028038DF8055000908DF8074069463046F6
:10147000FFF7F6FB01210420FFF784FC8DF80450F0
:101480008DF80640A8028DF8055000908DF80740B1
:1014900069463046FFF7E4FB7CBD000000000240D7
:1014A000000802400F4908280AD2DFE800F00904CA
:1014B0000A09090E12160C48818A81F010018182F6
:1014C0007047088880F020000AE0088880F40060F7
:1014D00006E0088880F4805002E0088880F480608C
:1014E00008807047140802400000024002494FF48F
:1014F00000700880704700001A0402402DE9FC4784
:1015000001210220FFF73EFC01248DF80440002554
:101510008DF80650DFF85C818DF805404FF020090A
:101520008DF8075069464046CDF80090FFF798FBCC
:1015300001210420FFF726FC8DF804408DF80650A9
:101540000420DFF834A18DF8054000908DF8075095
:1015500069465046FFF784FB01210220FFF712FC89
:101560008DF804408DF806508DF8054066028DF820
:101570000750694640460096FFF772FB01210220A2
:10158000FFF700FC8DF804408DF806508DF80540FB
:1015900027028DF80750694640460097FFF760FB29
:1015A00001210420FFF7EEFB8DF804408DF8065072
:1015B0008DF805408DF80750694650460096FFF7B4
:1015C0004FFB01210846FFF7DDFB8DF804408DF845
:1015D0000650DFF8A8808DF805408DF80750694661
:1015E00040460097FFF73CFB01210420FFF7CAFBB0
:1015F0008DF804408DF806508DF805408DF80750A1
:10160000694650460096FFF72BFB01210846FFF77D
:10161000B9FB8DF804408DF806508DF805408DF823
:101620000750694640460097FFF71AFB012108461C
:10163000FFF7A8FB8DF804408DF806508DF80540A3
:1016400002248DF80750694640460094FFF708FBD6
:1016500008481830A0F80090811C0E8007800648CA
:101660001A30068000F02CF8A8F81840A8F81A7074
:10167000BDE8FC8700040240000802400000024070
:1016800002494FF400700880704700001A080240B9
:1016900002494FF4007008807047000018080240AB
:1016A00002494FF48070088070470000180402401F
:1016B00002494FF480700880704700001A0402400D
:1016C0007CB517480426068001210820FFF75AFB45
:1016D00001248DF8044000258DF806508DF8054052
:1016E0008DF8075069460F480096FFF7B9FA0D4884
:1016F0001A30068001210220FFF744FB8DF80440D8
:101700008DF806508DF8054018248DF8075069466D
:1017100005480094FFF7A4FA03481A3004807CBD02
:101720001A080240000C0240000402402DE9F0417A
:1017300086B001210220FFF725FB00254C4E8DF8D5
:10174000105080248DF8135003A930460394FFF7FE
:1017500087FA8DF810504FF007088DF8135003A941
:101760003046CDF80C80FFF77BFA01210846FFF7E1
:1017700021FB07210120FFF78DFB00948DF8045019
:101780000C278DF8057001248DF806406846FFF798
:101790002FFA17208DF808008DF809408DF80A50AF
:1017A0008DF80B4002A8FFF7B1FA324E306840F0D6
:1017B0008000306000210120FFF76CFB8DF80450A1
:1017C0008DF8057000948DF806406846FFF710FA12
:1017D00006208DF808008DF809508DF80A408DF824
:1017E0000B4002A8FFF792FA306840F00100306029
:1017F00001210846FFF74EFB02208DF804500090AF
:101800008DF805708DF806406846FFF7F1F98DF800
:1018100008808DF809508DF80A408DF80B4002A819
:10182000FFF774FA306840F00200306002210120B6
:10183000FFF730FB04208DF8045000908DF8057000
:101840008DF806406846FFF7D3F908208DF80800A8
:101850008DF809508DF80A408DF80B4002A8FFF76B
:1018600055FA306840F00400306006B0BDE8F08101
:101870000004024000040140014908807047000054
:101880002400002010B50420FFF7C4FB0C480D49CC
:101890000D4A0068B0FBF1F3B0FBF1F14FF47A7040
:1018A00041431370012050804FF0E020026942F064
:1018B000020202614161016941F00101016110BD53
:1018C0003400002040420F002A00002004490A880A
:1018D0005206FCD5024AC1B2121D118070470000A9
:1018E0000038014070B51149114A0020831893F85F
:1018F00050300B54401CC0B20C28F7D300F0FAFE55
:1019000034220C490CA0FEF7BBFC00F02FFF074D62
:101910000024295D0EA0FEF7B3FC641CE4B20C2C7D
:10192000F7D3BDE8704009A0FEF7AABC0803002069
:101930000000F81FCC38000844454255473A282596
:10194000732D2564294348495049443A0D0A000043
:1019500025303278000000001CB5012080F310888B
:101960000146FFF775F84FF44070FFF701FAFFF7F3
:1019700089FF4FF41654204600F04EFD204600F03B
:10198000ABFD204600F010FE0D48FEF779FCFFF796
:1019900017FD00F0AFFE53220A490BA0FEF770FCC2
:1019A00000F0E4FE15490120CDE900010202002308
:1019B00013A1164801F0F6FC01F0FEF8FEE7000066
:1019C00018390008D838000844454255473A2825B8
:1019D000732D2564294672656552544F532D535417
:1019E0004D33324C31353120323032332F30382FB5
:1019F000323520402076312E300D0A003000002094
:101A000073746172745F7461736B0000F923000872
:101A1000064AD2F80411FF2901D9002003E05054EE
:101A2000D2F80401401CC2F80401704700020020F3
:101A30002DE9F041184E0F460446F5683068001D48
:101A400000F012FE38B9306890F82C100120884060
:101A5000316981433161601C07D137B13168BDE81C
:101A6000F0410E48091D00F038BE30682C44AC42ED
:101A70004460316805D2B06BBDE8F041091D00F04B
:101A800014BE706B091D00F010FEB06A844200D2D3
:101A9000B462BDE8F081000054000020340600204C
:101AA0002DE9F041054600F025FE2D4EB068401CA2
:101AB000B06030682B4F10B1706930B32BE03560E7
:101AC000B068012827D1002404EB840007EB8000D4
:101AD00000F0DDFD641C202CF6D3234800F0D7FD78
:101AE0002148143000F0D3FD1F48283000F0CFFD0E
:101AF0001D483C3000F0CBFD1B48503000F0C7FDC6
:101B0000194870631430B06305E03068E96AC06A50
:101B1000884200D83560706A0121401C7062A86458
:101B2000E86A326981401143316100EB800007EBC4
:101B30008000291D00F0D1FD00F018FE706900281A
:101B40000CD03068E96AC06A884207D207494FF072
:101B500080500860BFF34F8FBFF36F8FBDE8F081F7
:101B60005400002064030020E405002004ED00E0A0
:101B700010B500F0BFFD0E4C2068A0B90D4800F074
:101B800086FD0C48143000F082FD0A48E0601430F5
:101B9000206100221021052001F04EF9206010B1D3
:101BA00005A100F0B9FEBDE8104000F0DFBD000067
:101BB0009000002048060020546D72510000000083
:101BC00030B4026C0B46002A0BD0C1681144C160CE
:101BD0008468A14201D30168C16030BC1846FEF799
:101BE000AFBC30BC70472DE9F041856B1746044609
:101BF0000026026C82B1C7B1E068FEF7A1FCE16883
:101C0000206C091AE1602268914202D2A168081A88
:101C1000E060022F16D017E02068A8B9A06801F094
:101C200077FC06460020A0600EE06068FEF788FCA6
:101C3000216C606808446060A168884204D3206811
:101C4000606001E005B16D1E6D1CA5633046BDE806
:101C5000F08110B50446006B00F0BAFD2046BDE8E7
:101C6000104000F0B5BD000010484FF4205142076D
:101C700006D0C01D0D4920F00700411AC1F52051C2
:101C80000B4A00230144C2E900030839183A21F045
:101C9000070111604B600B600B1AC0E900139360E1
:101CA0004FF0004053605061704700007006002004
:101CB000C8000020134E144DA6F52F774FF0805822
:101CC000DFF8489011E000F015FDF068C468201DB1
:101CD00000F0CAFCA868401EA8606868401E6860E2
:101CE00000F044FD2046FFF7B4FF68680028EAD101
:101CF00038680128F9D9C9F80080BFF34F8FBFF3C6
:101D00006F8FF2E7200600205400002004ED00E071
:101D10002DE9F05FDDE90B940E46174683469100EE
:101D20009A460A9DA522206BFEF74FFC6FF0030137
:101D3000206B01EB8701084420F00707780705D0E6
:101D40004FF459721CA121A0FEF79AFA4FF0000837
:101D500066B100202218315C82F83410315C11B178
:101D6000401C1428F6D384F8478001E084F83480BE
:101D7000202D00D31F25E562C4E91458201D00F072
:101D800091FC04F1180000F08DFC2461C5F12000E5
:101D90006462A061C4F8588084F85C805246594659
:101DA000384600F017FB2060B9F1000F01D0C9F8E8
:101DB0000040BDE8F09F00002E2E5C467265655223
:101DC000544F535C7461736B732E63004572726F72
:101DD000723A25732C25640D0A00000030B51149B4
:101DE00000E011460A688242FBD34B685C188442CB
:101DF00003D1406818444860084643681C18944260
:101E000009D1084C183C2468A24209D052681A44EF
:101E100042600A6812680260814200D0086030BDEA
:101E20000460F9E7C800002070B5002441600B4D44
:101E30000061914206D8D11A8269914206D2011DF1
:101E4000286907E09A4203D2994201D3012403E0B2
:101E5000011DE86800F029FC204670BD90000020BC
:101E600010B5044600F046FCA06B20B1002400F041
:101E70007DFC204610BD0124F9E70000F1B5009873
:101E80000026846C2CB940F6493216A11AA0FEF740
:101E9000F7F9A06BE16B884205D340F64A3211A1F5
:101EA00015A0FEF7EDF9A06BE16B88420CD294F916
:101EB0004550002269462046FFF795FE0646681CFD
:101EC00004D06D1C84F845503046F8BD606A002887
:101ED000FAD004F1240001F075FB0028F4D00126AB
:101EE000F2E700002E2E5C4672656552544F535C3B
:101EF00071756575652E63004572726F723A257350
:101F00002C25640D0A000000F8B5054617480E465A
:101F1000C068C068C468201D00F0A6FB94F82800C3
:101F2000410718D5A0692B46411932462046FFF7D4
:101F30007BFFA0B100200346014600902A462046C0
:101F400001F07CFC58B90A4940F2112201F1180055
:101F5000FEF796F903E020F0010084F82800216ADA
:101F600001B02046BDE8F040084700009000002086
:101F7000A037000870B586B03D4E70E0019800288B
:101F800006DADDE90301029A90470198002866DB32
:101F9000039C606910B1201D00F066FB05A800F0ED
:101FA000C3F8054601980A2859D2DFE800F0050574
:101FB000052F354C05052F3594F828002A4640F0AA
:101FC000010084F828000298A169034601442046D4
:101FD000FFF72AFF002842D0216A2046884794F85C
:101FE000280040073BD5002000900298A1690023FB
:101FF00042181946204601F021FC00282FD14FF449
:102000004B721CA121A0FEF73BF928E014F8280F21
:1020100020F00100207022E094F8280040F0010038
:1020200084F828000298A06128B94FF4517211A1D8
:1020300016A0FEF725F9A0692B4641191A4620463D
:10204000FFF7F2FE0BE094F82800810703D4204646
:1020500000F0BEFB03E020F0010084F8280000221D
:1020600001A9306801F0AEF8002887D106B070BD34
:10207000900000202E2E5C4672656552544F535CD2
:1020800074696D6572732E63000000004572726F93
:10209000723A25732C25640D0A000000F8B50D4630
:1020A000064600F0D3FD684600F03EF8044600986E
:1020B00010B101F0D3FAF8BD1148ADB1016909685A
:1020C000D9B10025311B2A46006800F037FC01F029
:1020D000C5FA0028EFD10B494FF080500860BFF3DC
:1020E0004F8FBFF36F8FF8BDA642EBD801F0B6FA61
:1020F00021463046FFF708FFF8BD0125E2E7000062
:102100009000002004ED00E00648416B096829B109
:10211000416BC968C9684968816270474FF0FF31F7
:10212000FAE700005400002070B5054601F074F98C
:10213000064E0446B068844203D200F009F801203C
:1021400000E0002028602046B46070BD90000020B0
:10215000F8B5194E27E0C068C4680568201D00F076
:1021600083FA216A2046884794F8280040071AD548
:10217000A0692844A84206D924616060211DF06846
:1021800000F093FA0FE000200346014600902A4633
:10219000204601F053FB30B9084940F29D3201F16D
:1021A0001800FEF76DF8F06801680029D3D1316995
:1021B000C6E90310F8BD000090000020A037000819
:1021C00008484068401C04D0CA2207A111A0FEF7AD
:1021D00057F8502080F31188BFF34F8FBFF36F8FF4
:1021E000FEE70000A40000202E2E5C4672656552BA
:1021F000544F535C706F727461626C655C525644EC
:10220000535C41524D5F434D335C706F72742E636B
:10221000000000004572726F723A25732C25640D20
:102220000A000000084CE068016839B1002139B1AA
:102230000020FFF733FFFFF79DFEF4E70121F6E7EB
:10224000C0680068F5E70000900000202DE9F0412B
:10225000044600F04FFA94F9455004F124060FE0CB
:10226000A06C18B12046FFF709FE04E0606A48B18F
:10227000304601F0A7F908B100F040FC6D1E6DB2C8
:10228000002DEDDC4FF0FF3684F8456000F06EFA6B
:1022900000F030FA94F9445004F1100709E0206985
:1022A00048B1384601F08EF908B100F027FC6D1EE8
:1022B0006DB2002DF3DC84F84460BDE8F04100F01D
:1022C00055BA00002DE9F0410546002600F0BEFC9D
:1022D000334F386808B9FFF7C7FC7869054252D117
:1022E000002D50D0083568070BD005F00700C0F16D
:1022F00008000544680704D097222AA131A0FDF701
:10230000BFFF002D3FD0786885423CD82449183162
:102310000846046801E0214604466068A84202D2EB
:1023200020680028F7D13868B84684422BD00E6860
:102330002068086060680836401B10280ED96719AD
:10234000780704D0C42217A11EA0FDF799FF60688A
:10235000401B786038466560FFF740FD6168D8F83B
:1023600004004246401AC8F80400D8F808309842E1
:1023700000D29060506901430020C4E90001D06898
:10238000401CC8F80C0001F069F9700705D040F254
:10239000051204A10BA0FDF773FF3046BDE8F081E4
:1023A000B00000202E2E5C4672656552544F535C7F
:1023B0004D656D4D616E675C686561705F342E635D
:1023C000000000004572726F723A25732C25640D6F
:1023D0000A00000010B5031F4FF080741C601B1F23
:1023E00021F001011960191F024B0B6014394038AC
:1023F0000A6010BDC121000810B500F07BF9FEF79E
:10240000D8FF0448006800F00BFBBDE8104000F066
:10241000ADB90000300000202DE9F04180460121D7
:1024200088B00846FEF7AEFC01218803FEF7C2FC27
:10243000274F072209213846FEF749FC07220A21C7
:102440003846FEF744FC02258DF8045078158DF8C7
:102450000550002400908DF8064001268DF8076095
:1024600069463846FEF7FCFB680200908DF8045080
:1024700069463846FEF7F4FB25208DF818008DF8E4
:1024800019608DF81A408DF81B6006A8FEF73EFC17
:10249000ADF80C40ADF80E40ADF81040ADF814406A
:1024A0000C200C4CADF81200CDF8088002A9204693
:1024B000FEF700FF012240F225512046FEF7E1FE23
:1024C00001212046FEF7ADFE08B0BDE8F081000016
:1024D00000000240003801402DE9F0418046012112
:1024E00088B00846FEF74EFC01214804FEF756FC72
:1024F0002B4F072202213846FEF7E9FB0722032172
:102500003846FEF7E4FB022504208DF8045003262C
:1025100000908DF8056000248DF806406946384625
:10252000FEF79EFB8DF80560082000908DF80450A2
:1025300001268DF8076069463846FEF791FB262094
:102540008DF818008DF819508DF81A408DF81B6021
:1025500006A8FEF7DBFBADF80C40ADF80E40ADF879
:102560001040ADF814400C200E4CADF81200CDF820
:10257000088002A92046FEF79DFE40F22555012263
:1025800029462046FEF77DFE01212046FEF749FE42
:10259000012229462046FEF774FE08B0BDE8F0810E
:1025A00000000240004400402DE9F041804688B020
:1025B00001210220FEF7E6FB01218804FEF7EEFB75
:1025C000274F07220A213846FEF781FB07220B21FD
:1025D0003846FEF77CFB02258DF8045038158DF83F
:1025E0000550002400908DF8064001268DF8076004
:1025F00069463846FEF734FBA80200908DF8045077
:1026000069463846FEF72CFB27208DF8180003207A
:102610008DF819008DF81A408DF81B6006A8FEF79A
:1026200075FBADF80C40ADF80E40ADF81040ADF8BC
:1026300014400C200B4CADF81200CDF8088002A914
:102640002046FEF737FE012240F225512046FEF7D4
:1026500018FE01212046FEF7E4FD08B0BDE8F08138
:102660000004024000480040D0E9013201699A604C
:10267000D0E901235A604A68824201D182684A60E7
:10268000002202610868401E08600868704700F177
:1026900008014FF0FF32C0E90112C1600161002161
:1026A0000160704700210161704730B50C68621C01
:1026B00002D000F1080202E0026904E01A46536801
:1026C0001D68A542FAD953684B6099608A605160D1
:1026D00008610168491C016030BD42684A60936826
:1026E0008B6093685960916008610168491C0160C2
:1026F00070470000502080F31188BFF34F8FBFF365
:102700006F8F09494868401C486001280AD1074872
:10271000006810F0FF0F05D04FF4B37204A10FA0B2
:10272000FDF7AEBD70470000A400002004ED00E0FE
:102730002E2E5C4672656552544F535C706F7274F6
:1027400061626C655C525644535C41524D5F434D2F
:10275000335C706F72742E63000000004572726FFC
:10276000723A25732C25640D0A00000010B5084C40
:10277000606828B940F26D1206A111A0FDF780FD36
:102780006068401E606001D180F3118810BD0000B8
:10279000A40000202E2E5C4672656552544F535C97
:1027A000706F727461626C655C525644535C415246
:1027B0004D5F434D335C706F72742E6300000000F8
:1027C0004572726F723A25732C25640D0A00000061
:1027D00070B500282DD0174DA0F108046068696914
:1027E000084205D140F2191213A11BA0FDF748FDC4
:1027F000206828B14FF48D720FA117A0FDF740FD9E
:1028000060686969084214D02268002A11D188439F
:10281000606000F01BFA60686968084468602046E0
:10282000FFF7DCFA2869401C2861BDE8704000F021
:1028300015BF70BDB00000202E2E5C46726565523B
:10284000544F535C4D656D4D616E675C686561709A
:102850005F342E63000000004572726F723A257378
:102860002C25640D0A0000004FF0E02000210161DA
:10287000816105494FF47A720968B1FBF2F1491E92
:1028800041610721016170473400002010B5FDF758
:10289000D1FC104C10280CD300F1E02090F8F0038C
:1028A0002178884205D240F2A6220BA115A0FDF79F
:1028B000E7FC18480068A16800F4E060884207D986
:1028C000BDE8104040F2B62203A10EA0FDF7D8BC2F
:1028D00010BD0000A40000202E2E5C4672656552DB
:1028E000544F535C706F727461626C655C525644F5
:1028F000535C41524D5F434D335C706F72742E6375
:10290000000000004572726F723A25732C25640D29
:102910000A0000000CED00E010B5074B002253F850
:1029200032401CB1521C082AF9D310BD43F83210B2
:1029300003EBC201486010BD2403002070B51546AA
:102940000E460446FFF7D6FE94F944100020491CB9
:1029500001D184F8440094F94510491C01D184F850
:102960004500FFF703FFA06B28B92A46314604F162
:10297000240000F0F3F82046BDE87040FFF766BC85
:102980000A490B4A08881278104480B20880B0F5D2
:102990007A7F0AD300220A804868401C48603C289D
:1029A00003D34A608868401C886070471803002081
:1029B0002E00002010B5040012D00E49096B29B179
:1029C00040F244520CA111A0FDF75AFC00F03EF970
:1029D00000212046FFF72CF800F040FE002807D128
:1029E0000E494FF080500860BFF34F8FBFF36F8FD9
:1029F00010BD0000540000202E2E5C46726565520A
:102A0000544F535C7461736B732E63004572726F25
:102A1000723A25732C25640D0A00000004ED00E0D5
:102A200070B50446FFF766FE234D04B92C68201DDF
:102A3000FFF71AFE58B9E06A204A00EB800152F80D
:102A4000211021B901218140286988432861A06AA9
:102A500018B104F11800FFF707FE686A401C6862AD
:102A60002868844207D1211D1548FFF736FE6868A3
:102A7000401C686007E0A868401EA8602046FFF779
:102A8000E8F8FFF741FBFFF771FE6869002812D0F4
:102A9000286884420FD1286B28B140F2DA4209A19C
:102AA0000DA0FDF7EDFB10494FF080500860BFF31B
:102AB0004F8FBFF36F8F70BD540000206403002060
:102AC000200600202E2E5C4672656552544F535CE2
:102AD0007461736B732E63004572726F723A257363
:102AE0002C25640D0A00000004ED00E002490A6A8A
:102AF0000260C9684160704754000020014901200C
:102B0000C86170475400002070B50D46040005D11F
:102B100040F6FA3207A10CA0FDF7B2FB0E4801689F
:102B200020461831FFF7C1FD2846BDE8704001215D
:102B3000FEF77EBF2E2E5C4672656552544F535C85
:102B40007461736B732E63004572726F723A2573F2
:102B50002C25640D0A0000005400002070B51446B6
:102B60000E46050005D140F6254209A10DA0FDF74E
:102B700087FB1048016828461831FFF7AEFD0CB1FD
:102B80004FF0FF3621463046BDE87040FEF750BF9B
:102B90002E2E5C4672656552544F535C7461736BA4
:102BA000732E63004572726F723A25732C25640D83
:102BB0000A000000540000201CB517480024CDE98D
:102BC00000402346822215A1164800F0EBFB0128A5
:102BD00003D100F0F9FD01280AD0401C1BD102B03E
:102BE00040F62A02BDE810400FA114A0FDF748BB33
:102BF000502080F31188BFF34F8FBFF36F8F0648CB
:102C00004FF0FF312C38816201214161C460BDE881
:102C10001C4000F07FB81CBD8000002049444C459A
:102C200000000000B51C00082E2E5C46726565523F
:102C3000544F535C7461736B732E63004572726FF3
:102C4000723A25732C25640D0A0000000248016BBE
:102C5000491C0163704700005400002070B5134DFB
:102C6000286B10B10120E86170BD0020E86128697F
:102C70000F4EB0FA80F0C0F11F0000EB800456F850
:102C8000240028B940F6E1320AA10FA0FDF7F8FAB6
:102C900006EB840000F108024168496841609142F6
:102CA00001D149684160C868286070BD54000020A7
:102CB000640300202E2E5C4672656552544F535CAF
:102CC0007461736B732E63004572726F723A257371
:102CD0002C25640D0A000000FEF708FCFDF7CAFD74
:102CE000401CFBD0094C0A4DD4F8040110B1074830
:102CF000FEF746FBD5F8040110B10548FEF730FB9E
:102D0000FDF75EFE3220FFF755FEEDE7F8000020EC
:102D1000000200207CB52A4D28780190FF20287001
:102D200028788DF800009DF800009DF8001000F054
:102D3000F000884205D04FF48A7222A12CA0FDF742
:102D40009FFA9DF800002E4C00F0500020700720E4
:102D5000A06006E0401EA0609DF8000040008DF8D5
:102D600000009DF800000006A068F3D403280ED0F0
:102D700040F2271213A11EA0FDF782FAA0680328D3
:102D800005D04FF498720FA119A0FDF779FA207AB7
:102D9000000200F4E060A060019828701948016802
:102DA00041F470010160016841F070410160FFF77A
:102DB0005BFD00206060FDF707FA00207CBD00008D
:102DC00000E400E02E2E5C4672656552544F535C61
:102DD000706F727461626C655C525644535C415210
:102DE0004D5F434D335C706F72742E6300000000C2
:102DF0004572726F723A25732C25640D0A0000002B
:102E0000A400002020ED00E010B5502080F31188D0
:102E1000BFF34F8FBFF36F8F00F004FB18B105496C
:102E20004FF080500860FFF7ABFD002080F3118861
:102E300010BD000004ED00E02DE9F04117460E46FC
:102E4000050005D14FF4BB720EA113A0FDF718FACF
:102E500005FB06F05430FFF735FA04000ED004F1FC
:102E600054006EB12060C4E90F562046012100F0E5
:102E70001BF884F8507000212046A164BDE8F08161
:102E80002460F0E72E2E5C4672656552544F535C09
:102E900071756575652E63004572726F723A2573A0
:102EA0002C25640D0A00000070B50D46040005D104
:102EB00040F203121CA121A0FDF7E2F9FFF71AFC72
:102EC000D4E90F20216802FB0011A1600021A16359
:102ED000216861600A46D4E90F01401E00FB012110
:102EE000E16021464FF0FF3001F8440F487004F1D3
:102EF00010004DB1FFF7CBFB04F12400FFF7C7FB37
:102F0000FFF734FC012070BD21690029F8D000F0E2
:102F100059FB0028F4D00D494FF080500860BFF3F2
:102F20004F8FBFF36F8FEBE72E2E5C4672656552B5
:102F3000544F535C71756575652E63004572726FF1
:102F4000723A25732C25640D0A00000004ED00E0A0
:102F50002DE9FF4F83B01F468B4604004FF000065B
:102F600005D140F2EA2252A156A0FDF789F9BBF142
:102F7000000F07D1206C28B140F2EB224CA151A0E8
:102F8000FDF77EF9022F08D1E06B012805D04FF440
:102F90003B7247A14BA0FDF773F900F02FFA38B947
:102FA000059828B140F2EF2241A146A0FDF768F94B
:102FB0004FF0000A4FF08058DFF81891FFF79AFBA6
:102FC000A06BE16B884205D3022F03D0059818B39C
:102FD0002EB328E0A56B3A4659462046FEF703FE7D
:102FE000A16C31B1022F00D185B92046FEF746FF12
:102FF00005E0616A19B104F1240000F0E3FA28B198
:10300000C9F80080BFF34F8FBFF36F8FFFF7AEFBA0
:10301000012007B0BDE8F08FFFF7A8FB21E068466C
:10302000FFF764FD0126FFF7A1FBFFF70FFEFFF797
:1030300061FB94F94400401C01D184F844A094F948
:103040004500401C01D184F845A0FFF78FFB05A97E
:10305000684600F05FF930B12046FFF7F7F800F05E
:10306000FDFA0020D5E7FFF745FBA06BE16B884236
:1030700001D1012500E00025FFF778FB95B104F1AF
:1030800010000599FFF740FD2046FFF7DFF800F03C
:10309000E5FA002892D1C9F80080BFF34F8FBFF343
:1030A0006F8F8BE72046FFF7D1F800F0D7FA85E75E
:1030B0002E2E5C4672656552544F535C7175657572
:1030C000652E63004572726F723A25732C25640D6C
:1030D0000A00000004ED00E02DE9F0471F46154608
:1030E0008A46040005D14FF46F722DA131A0FDF77F
:1030F000C7F8BAF1000F07D1206C28B140F2BD32F9
:1031000027A12CA0FDF7BCF8022F08D1E06B012805
:1031100005D040F2BE3222A126A0FDF7B1F8FFF79C
:10312000B5FB5021EFF3118081F31188BFF34F8F6E
:10313000BFF36F8F8046A06BE16B884206D3022FEE
:1031400004D0002088F31188BDE8F08794F9456029
:10315000D4F838903A4651462046FEF744FD701C9C
:1031600004D0761C84F845600120EBE7A06C0126B2
:1031700040B1022F02D1B9F1000FF5D12046FEF780
:103180007DFE06E0606A0028EED004F1240000F025
:1031900019FA0028E8D0002DE6D02E60E4E7000000
:1031A0002E2E5C4672656552544F535C7175657581
:1031B000652E63004572726F723A25732C25640D7B
:1031C0000A0000002DE9F74783B08A4604004FF05B
:1031D000000605D140F2045244A149A0FDF750F881
:1031E000BAF1000F07D1206C28B14FF4A1623FA1C2
:1031F00043A0FDF745F800F001F938B9059828B16A
:1032000040F20D5239A13EA0FDF73AF800274FF0E9
:103210008058DFF8FC90FFF76DFAA56BC5B15146F9
:103220002046FEF7CDFC6D1EA563206950B104F168
:10323000100000F0C7F928B1C9F80080BFF34F8F24
:10324000BFF36F8FFFF792FA012006B0BDE8F08759
:10325000059808B11EB106E0FFF788FA27E0684636
:10326000FFF744FC0126FFF781FAFFF7EFFCFFF7B9
:1032700041FA94F94400401C01D184F8447094F957
:103280004500401C01D184F84570FFF76FFA05A98D
:10329000684600F03FF8002820460AD0FEF7D6FF27
:1032A00000F0DCF92046FEF7DBFD0028B3D000205B
:1032B000CBE7FEF7D5FD90B104F124000599FFF7A7
:1032C00023FC2046FEF7C2FF00F0C8F90028A2D177
:1032D000C9F80080BFF34F8FBFF36F8F9BE7204685
:1032E000FEF7B4FF00F0BAF995E700002E2E5C4619
:1032F00072656552544F535C71756575652E630038
:103300004572726F723A25732C25640D0A00000015
:1033100004ED00E02DE9F0410C46050005D140F632
:10332000CE4216A11AA0FCF7ABFF2CB940F6CF4253
:1033300012A117A0FCF7A4FFFFF7DCF9184EF16803
:103340006B682268C81A571C07D02F68366AB742C4
:1033500009D08B4207D8012400E00024FFF706FAC9
:103360002046BDE8F081824205D9101A2060284627
:10337000FFF7BCFBF1E700202060ECE72E2E5C4657
:1033800072656552544F535C7461736B732E6300A6
:103390004572726F723A25732C25640D0A00000085
:1033A000540000202DE9FF5F8346DDE90E87994632
:1033B00016468A469000FEF785FF05001AD0602069
:1033C000FEF780FF040012D025630021CDE9024101
:1033D000CDE900874B46324651465846FEF798FCE9
:1033E0002046FEF75DFB012004B0BDE8F09F2846B3
:1033F000FFF7EEF94FF0FF30F6E7000005484169AE
:1034000019B1006B18B100207047012070470220ED
:1034100070470000540000200148C0687047000059
:10342000540000202DE9F0412E4F0026386B28B1C2
:10343000B869401CB8613046BDE8F081FD686D1C7C
:10344000FD6011D1786B006828B140F6A92226A151
:103450002AA0FCF715FF786BB96B7963B863386AFB
:10346000401C3862FEF750FEB86ADFF8A080854243
:1034700009D3786B0068A0B1786BC068C4686068D5
:10348000854211D2B8623868C06A00EB800158F8F2
:103490002100012800D90126F8690028CBD0012697
:1034A000C9E74FF0FF30EDE7201DFFF7DDF8A06A18
:1034B00018B104F11800FFF7D7F8E06A01213A6962
:1034C00081401143396100EB800108EB8100211D2F
:1034D000FFF703F9E06A3968C96A8842C9D301264F
:1034E000C7E70000540000202E2E5C46726565522E
:1034F000544F535C7461736B732E63004572726F2B
:10350000723A25732C25640D0A0000006403002024
:1035100070B504004FF000063CD01F4D286884426F
:1035200005D041F213021DA121A0FCF7A9FE606D98
:1035300028B941F2140219A11DA0FCF7A1FE606D8B
:10354000401E6065226DE16A914223D010BB201DB0
:10355000FFF78AF81A49012250B9E06A00EB8003AC
:1035600051F8233023B92B6902FA00F083432B6111
:10357000206DE062C0F12000A061E06A2B6982400A
:103580001A432A6100EB800001EB8000211DFFF748
:10359000A4F80126304670BD540000202E2E5C4653
:1035A00072656552544F535C7461736B732E630084
:1035B0004572726F723A25732C25640D0A00000063
:1035C000640300202DE9F041C068C4682CB940F6BE
:1035D000554216A11AA0FCF753FE04F11800074645
:1035E000FFF742F81A4D286B012660B13946194899
:1035F000FFF773F8E06A2968C96A884213D9012085
:10360000EE61BDE8F081201DFFF72EF8E06A2A691F
:1036100006FA00F1114329610F4900EB800001EB2C
:103620008000211DE4E70020EBE700002E2E5C4621
:1036300072656552544F535C7461736B732E6300F3
:103640004572726F723A25732C25640D0A000000D2
:10365000540000200C060020640300202DE9F047F0
:103660002B4D00242746286B28B940F6990229A142
:103670002DA0FCF705FEFFF73DF8286B401E2863E0
:10368000286BE8BBA8682C490126C8B3A1F52A79A4
:103690008846D8F80010E9B1D8F80C00C46804F1E5
:1036A0001800FEF7E1FF201DFEF7DEFFE06A2A6941
:1036B00006FA00F11143296100EB800109EB81005A
:1036C000211DFFF70AF8E06A2968C96A8842E0D339
:1036D000EE61DEE70CB1FEF717FDAC693CB1FFF718
:1036E000A1FE00B1EE61641EF9D10020A861E86975
:1036F00030B11249012738070860BFF34F8F00E04F
:1037000001E0BFF36F8FFFF731F83846BDE8F0876F
:10371000540000202E2E5C4672656552544F535C57
:103720007461736B732E63004572726F723A257306
:103730002C25640D0A0000000C06002004ED00E0BA
:103740002DE9F0470746994616460D462C20DDF830
:1037500020A0FEF7B7FD04001ED0B84600204F465B
:1037600084F82800D1462DB940F265120CA112A0B0
:10377000FCF786FDFEF7FCF904F11801C4F800809F
:1037800081E8A002201DFEF78DFF2EB194F82800DD
:1037900040F0040184F828102046BDE8F0870000BE
:1037A0002E2E5C4672656552544F535C74696D658C
:1037B00072732E63000000004572726F723A2573B7
:1037C0002C25640D0A0000001CB50024FEF7D0F97A
:1037D0000C48006868B10B491F20091DCDE90001A4
:1037E00000234FF4827208A10948FFF7DBFD0400B3
:1037F00005D140F2131207A10CA0FCF741FD2046B1
:103800001CBD000090000020546D722053766300B0
:10381000252200082E2E5C4672656552544F535C7B
:1038200074696D6572732E63000000004572726FDB
:10383000723A25732C25640D0A0000002DE9FF471C
:10384000DDF830A0994690460D4606004FF000077F
:1038500005D14FF4C17212A117A0FCF711FD1A4C4B
:10386000206880B1CDE900580296062D11DAFFF7E5
:10387000C5FD02284FF0000309D0002269462068E8
:10388000FFF766FB074604B03846BDE8F0875246AE
:10389000F4E700234A466946FFF71EFCF2E7000002
:1038A0002E2E5C4672656552544F535C74696D658B
:1038B00072732E63000000004572726F723A2573B6
:1038C0002C25640D0A000000900000206765745FDD
:1038D000636869705F6964006D61696E00303132E0
:1038E0003334353637383941424344454640305801
:1038F00000303132333435363738396162636465CC
:10390000664030780004000008000000000000005D
:1039100002000100001000000D0A202323232323AE
:103920002323232323232320687474703A2F2F77B3
:1039300077772E637367736D2E636F6D2F2023234C
:10394000232323232323232323230D0A2023232379
:10395000232323232323232323284175672032395C
:103960002032303233202D2031363A30323A313560
:10397000292323232323232323232323230000007A
:10398000A039000800000020EC0000003001000811
:103990008C3A0008EC000020E43D00004C010008D7
:1039A0000000000000000000000000000000000017
:1039B0000000000000000000000000000000000007
:1039C00000000000000000000000000000000100F6
:1039D000000000000048E801030406080C1018204D
:1039E0003000000000000000000102030406070888
:1039F00009000000000000000000000000000000BE
:103A000000000000000000000000000000000000B6
:103A100000000000000000000000000000000000A6
:103A20000000000000000000000000000000000096
:103A30000000000000000000000000000000000086
:103A40000000000000000000AAAAAAAA00000000CE
:103A50000000000000000000000000000000000066
:103A60000000000000000000000000000000000056
:103A7000030406080C1018203000000000010203A7
:0C3A80000401020304060708090000000E
:040000050800023DB0
:00000001FF
