:020000040800F2
:1000000030410020890200082B100008151000085C
:1000100029100008C90C00086D1800080000000035
:10002000000000000000000000000000F1010008D6
:10003000750D00080000000035020008F9130008E3
:10004000A3020008A3020008A3020008A3020008FC
:10005000A3020008A3020008790D0008BD0D0008E6
:10006000010E0008450E0008A3020008A3020008C4
:10007000A3020008A3020008A3020008A3020008CC
:10008000A3020008A3020008A3020008A3020008BC
:10009000A3020008A3020008A30200089D0E0008A6
:1000A000A3020008A302000861140008A3020008CC
:1000B000A3020008A3020008C9140008A302000854
:1000C000A3020008A3020008A3020008A30200087C
:1000D000A3020008FD15000889160008A302000805
:1000E000A3020008A3020008A3020008A30200085C
:1000F000A302000800F002F800F06BF80AA090E8F4
:10010000000C82448344AAF10107DA4501D100F0D2
:1001100060F8AFF2090EBAE80F0013F0010F18BF34
:10012000FB1A43F001031847785800009858000064
:100130000A444FF0000C10F8013B13F0070408BF0D
:1001400010F8014B1D1108BF10F8015B641E05D0AB
:1001500010F8016B641E01F8016BF9D113F0080F60
:100160001EBF10F8014BAD1C0C1B09D16D1E58BFF2
:1001700001F801CBFAD505E014F8016B01F8016B29
:100180006D1EF9D59142D6D370470000002300249C
:1001900000250026103A28BF78C1FBD8520728BF97
:1001A00030C148BF0B607047642900F0EB807529AF
:1001B00000F0E880782900F02181632900F038837D
:1001C000732900F03D83002070471FB51FBD10B597
:1001D00010BD00F0A3FB1146FFF7F7FF02F088FA0D
:1001E00000F0C1FB03B4FFF7F2FF03BC01F046FBD4
:1001F000224B19680868B0E8F00F80F30988BFF354
:100200006F8F4FF0000080F311884EF00D0E704795
:100210000000000006480068006880F3088862B6A5
:1002200061B6BFF34F8FBFF36F8F00DF00BF00BF1A
:1002300008ED00E0EFF30980BFF36F8F0F4B1A68F2
:1002400020E9F00F106008B54FF0500080F31188DE
:10025000BFF34F8FBFF36F8F04F030FC4FF00000FF
:1002600080F31188BDE8084019680868B0E8F00F0D
:1002700080F30988BFF36F8F704700BF5C000020D8
:10028000EFF30580704700000948804709480047A0
:10029000FEE7FEE7FEE7FEE7FEE7FEE7FEE7FEE736
:1002A000FEE7FEE704480549054A064B7047000093
:1002B0000D140008F5000008303100203041002006
:1002C000303D0020303D0020704700000FB404494D
:1002D00010B503AA029800F0B7FA10BC5DF814FB41
:1002E0002C00002070B5044685690068C10601D560
:1002F000302600E02026C00707D070BDD4E90121D8
:1003000030469047206A401C20626D1EF6D570BDB5
:1003100070B5044685690078C00707D170BDD4E97F
:10032000012120209047206A401C20626D1EF6D5D6
:1003300070BD70B50C460546012A05D028788006A8
:1003400000D5EA69002302E0012305E05B1C93422B
:1003500002D2E05C0028F9D1A869E618C01AA861A9
:10036000286A184428622846FFF7BCFF04E0D5E954
:10037000012114F8010B9047B442F8D32846FFF747
:10038000C7FF70BD2DE9F0410646002410687529AD
:10039000314616A510D0AFF30080002802DA4042A3
:1003A00013A507E031688A0701D512A502E04907C5
:1003B00004D511A5012401E0AFF3008000210A2239
:1003C00006F1240709E0B0FBF2FCB0FBF2F302FBFC
:1003D0001C00303078541846491C0028F3D12346BD
:1003E0002A463046BDE8F04100F0A6B90000000002
:1003F0002D0000002B0000002000000070B5044616
:100400000D4621461068AFF300802188090502D50A
:100410000F4A7A4402E00E4A7A440E32002104F177
:10042000240305E000F00F060009965D5E54491CA8
:100430000028F7D120780023000704D5702D02D0C2
:1004400009B1022311322046BDE8704000F074B9B2
:10045000275300002DE9F05F894604464FF0000A5B
:10046000DFF874B1FB44C0F820A02046E16888475B
:10047000002874D0252806D0D4E901219047206AAD
:10048000401C2062F1E700265F462046E16888476D
:100490002028054607DB312D05D2781910F8200CED
:1004A00008B10643F1E7B00701D526F00406C4F809
:1004B0001CA00027C4F818A02A2D09D0284601F056
:1004C000D6F938B304EB8708303DC8F8185019E066
:1004D00059F8041B204604EB87029161E1688847C4
:1004E000012F054618D1E069002820DA26F0200601
:1004F0001DE0D8F8180000EB800005EB4000303814
:10050000C8F818002046E1688847054601F0AFF9B1
:100510000028EED1012F0AD02E2D08D12046E16807
:1005200088477F1C0546022F46F02006C4DBA069E1
:10053000002803DA404246F00106A061F00701D02E
:1005400026F010066C2D0BD0682D09D04C2D39D01B
:100550006A2D35D0742D35D07A2D33D016E038E0A1
:10056000E1682F4620468847B842054609D16C2FDE
:1005700026D04FF48060E168064320468847054650
:1005800004E06C2F1AD04FF4807006430DB3A5F130
:100590004100192802D8203546F400664A4629460B
:1005A000204626604E46FFF7FFFD80B101280BD0A4
:1005B000F61D26F0070000F1080956E74020E4E7A1
:1005C0008020D8E70020D6E706F104094DE7284649
:1005D00052E7206ABDE8F09FFD52000030B50546A5
:1005E0000B462A4613F8014B12F8010B08B1A04242
:1005F000F8D01CB1002802D06D1CF1E7284630BDB0
:1006000040EA0103024630B59B0710D14FF0013498
:1006100000E008C208C91D1B9D4315EAC41FF8D09D
:1006200013F0FF0102F8011B0DD01B0AF8E711F8C7
:10063000013B002B02F8013B05D011F8013B002BD8
:1006400002F8013BF3D130BD032A40F2308010F0B4
:10065000030C00F0158011F8013BBCF1020F62445D
:1006600098BF11F801CB00F8013B38BF11F8013BEE
:10067000A2F1040298BF00F801CB38BF00F8013B9B
:1006800011F0030300F0F280083AC0F0088051F83E
:10069000043B083A51F804CBA0E80810F5E7121D16
:1006A0005CBF51F8043B40F8043BAFF30080D20735
:1006B00024BF11F8013B11F801CB48BF11F8012B01
:1006C00024BF00F8013B00F801CB48BF00F8012B24
:1006D000704702F0FF0343EA032242EA024200F0BD
:1006E000F9B84FF0000200B51346944696462039FB
:1006F00022BFA0E80C50A0E80C50B1F12001BFF4DB
:10070000F7AF090728BFA0E80C5048BF0CC05DF840
:1007100004EB890028BF40F8042B08BF704748BF8E
:1007200020F8022B11F0804F18BF00F8012B704702
:1007300070477047704770472DE9F0470D4699465E
:100740009246044600F124080168880604D5E06951
:1007500021F01001216000E00120A84201DD471BCB
:1007600000E00027A1697A1902EB0900081AA061CC
:100770002078C00602D42046FFF7B4FD002608E02A
:10078000D4E901211AF806009047206A401C761C23
:1007900020624E45F4DB2078C0060AD52046FFF7DC
:1007A000A1FD06E0D4E9012130209047206A401CD9
:1007B0002062381EA7F10107F4DC07E0D4E901212B
:1007C00018F805009047206A401C2062281EA5F1F9
:1007D0000105F3DC2046FFF79BFD2078000602D5DB
:1007E0000220BDE8F0870120FBE7000001694A1CF8
:1007F00002610878704700B58FB0CDE90131002162
:10080000059105497944CDE9031011466846FFF783
:1008100021FE0FB000BD0000E5FFFFFF10B54369EA
:1008200013B1AFF3008001E0FFF783FD012010BD9D
:10083000127800F124010A7000224A700122EDE7CB
:1008400011684FF0FF32E9E7074B70B50D467B4466
:10085000FFF7D1FF0446284600F05CF810B14FF0D6
:10086000FF3070BD204670BD931C000010B5203ACB
:10087000C0F00B80B1E81850203AA0E81850B1E859
:100880001850A0E81850BFF4F5AF5FEA027C24BF0F
:10089000B1E81850A0E8185044BF18C918C0BDE806
:1008A00010405FEA827C24BF51F8043B40F8043BCF
:1008B00008BF7047D20728BF31F8023B48BF11F884
:1008C000012B28BF20F8023B48BF00F8012B7047DE
:1008D0004FF000020429C0F0128010F0030C3FF426
:1008E00002AFCCF1040CBCF1020F18BF00F8012BD1
:1008F000A8BF20F8022BA1EB0C01FFF7F4BE5FEAC2
:10090000C17C24BF00F8012B00F8012B48BF00F880
:10091000012B7047007B00F080007047754600F0A7
:1009200029F8AE4605006946534620F00700854683
:1009300018B020B5FFF7B6FCBDE820404FF0000628
:100940004FF000074FF000084FF0000B21F00701B7
:10095000AC46ACE8C009ACE8C009ACE8C009ACE8FA
:10096000C0098D4670470446AFF300802046FFF76C
:1009700039FC000000487047D03000200029816811
:1009800002D041F0040101E021F0040181607047D0
:100990000029816802D041F0010101E021F001014C
:1009A00081607047074910B588420AD1441501217A
:1009B000204600F09BFB2046BDE81040002100F0DF
:1009C00095BB10BD00240140806D80B27047024687
:1009D000002012680A4200D00120704730B54268FA
:1009E0000F4B0C791A400B6842EA04221343436010
:1009F00082680C4B4D791A40D1E9034323438C683C
:100A000044EA4504234313438360026B097D22F0CB
:100A1000F872491EC9B242EA0151016330BD0000BB
:100A2000FFFEFFFCFDF7FFC070B507251D290AD9A1
:100A3000C66DA1F11E0404EB4404A540AE43A340DF
:100A40001E43C66521E013290AD9C668A1F1140422
:100A500004EB4404A540AE43A3401E43C66014E02B
:100A600009290AD90669A1F10A0404EB4404A54046
:100A7000AE43A3401E43066107E0466901EB410413
:100A8000A540AE43A3401E4346611F23072A09D257
:100A9000046C521E02EB820293409C4391400C4333
:100AA000046470BD0D2A09D2C46BD21F02EB82020E
:100AB00093409C4391400C43C46370BD132A09D2F8
:100AC000846B0D3A02EB820293409C4391400C43AD
:100AD000846370BD192A09D2446B133A02EB820277
:100AE00093409C4391400C43446370BD046B193A9E
:100AF00002EB820293409C4391400C43046370BD1F
:100B0000816841F0804181607047000005490028FC
:100B1000086802D040F4000001E020F40000086002
:100B20007047000004270140FEB5474D474C2B7825
:100B300093B12246002607CA012B12D0022B1CD0EB
:100B4000032B29D06427042B5DD0052B43D0062B23
:100B500059D0072B5FD065E001F04EFA01F03CFA66
:100B600042E03223CDE90063002300F0EFFB0128CF
:100B700058D101F049FA36A00BE04FF4FA73CDE9F1
:100B80000063002300F0E2FB01284BD101F02CFAB6
:100B900032A0FFF79BFB27E00323CDE900360023BB
:100BA00000F0D4FB01283DD101F016FA2FA0FFF789
:100BB0008DFB684600F026FA9DE8070084E80700F0
:100BC0002878401CC1B229702CA0FFF77FFB36E0CB
:100BD00001F0F2F908E00023CDE9006700F0B6FB70
:100BE00001281FD101F0F0F9684600F00BFA9DE8EA
:100BF000070084E807002878401CC1B229701FA0B4
:100C0000FFF764FB0EE00023CDE9006700F09EFBD8
:100C10000128DDD006E00023CDE9006700F096FB57
:100C200001280DD01A48D0F8040150B1184800F03E
:100C3000FDFD18A11648FFF7D1FC686008B101203E
:100C4000FEBD4FF0FF30FEBD1C0000205C02002006
:100C50000D0A56424154204F4E0D0A000D0A5057BE
:100C6000524B4559204F4E0D0A0000000D0A5057B7
:100C7000524B4559204F46460D0A00000D0A735F3E
:100C8000756341545374613A25640D0A00000000F5
:100C900060040020524459001CB50121022000F0DC
:100CA00019FA4020009001208DF80400054C8DF8C1
:100CB00005006946204600F059F94021204600F021
:100CC0009CF91CBD00040240FEE7000070B5084816
:100CD00000244FF480752946C0F80441FFF701FD58
:100CE00004482946C0F80441BDE87040FFF7F9BC4C
:100CF00058030020600400201CB505490220CDE9FE
:100D000000010023C82203A1064804F07BFA1CBDA1
:100D10001000002052756E696E675F5374617465D0
:100D200000000000E11100081CB505490620CDE9CE
:100D300000010023642203A1074804F063FA1CBDEC
:100D400018000020765472616E736D697373696F59
:100D50006E5461736B000000394B0008044A00298F
:100D6000516801D0014300E08143516070470000A9
:100D7000002004E07047000010B5012000F0B4F836
:100D800000280AD005A0FFF7A1FA642001F050FA6C
:100D9000BDE81040012000F0A1B810BD0D0A2045AB
:100DA000585449305F49525148616E646C6572B263
:100DB000FAC9FAD6D0B6CF0D0A00000010B502204D
:100DC00000F092F800280AD005A0FFF77FFA64200F
:100DD00001F02EFABDE81040022000F07FB810BDEF
:100DE0000D0A2045585449315F49525148616E649B
:100DF0006C6572B2FAC9FAD6D0B6CF0D0A000000FF
:100E000010B5042000F070F800280AD005A0FFF704
:100E10005DFA642001F00CFABDE81040042000F0F7
:100E20005DB810BD0D0A2045585449325F495251F2
:100E300048616E646C6572B2FAC9FAD6D0B6CF0D4D
:100E40000A00000010B5082000F04EF8002813D06A
:100E50000A480178491C01700178032903D3002155
:100E6000017001218170017805A0FFF72FFABDE81C
:100E70001040082000F032B810BD0000260000200D
:100E8000675F75634D70755F7472696767657243FC
:100E90006E74203D202564210D0A000010B58020CD
:100EA00000F022F8002807D004A0FFF70FFABDE8F1
:100EB0001040802000F012B810BD00000D0A20453F
:100EC0005854495F4C696E6520506F776572B2FA6D
:100ED000C9FAD6D0B6CF0D0A00000000014908605B
:100EE0007047000014040140034A014600201268C4
:100EF0000A4200D0012070471404014030B51A4A5C
:100F00008379016853B313688B431360111D0B6819
:100F10000468A3430B60017911440B680468234300
:100F20000B60114B083319680468A14319601C1D3C
:100F300021680568A94321604179102905D0114431
:100F40000A68006802430A6030BD196802681143EC
:100F50001960216800680143216030BD00791044A8
:100F600002688A43026030BD00040140F0B50022EF
:100F700001274FF0030E0B6807FA02F52B40AB4236
:100F800027D10668530091F804C00EFA03F4A64373
:100F90000CFA03FC4CEA060CC0F800C00E79012ED6
:100FA00001D0022E0FD1866891F805C0A6430CFA35
:100FB00003FC4CEA060CC0F808C08688AE438D7965
:100FC000954035438580C568A543CC799C402C432A
:100FD000C460521C102ACED3F0BD4B07DB0E9A40E2
:100FE000C90810B500EB8100016A0F249C40A143A1
:100FF0000162016A1143016210BD418370470183A0
:101000007047000002490EC980E80E0070470000DA
:1010100078050020FEE7000002494AF6AA20086091
:101020007047000000300040FEE7704730B50F23E6
:10103000C27801780125FAB1144A126801F1E02161
:1010400002F4E062C2F5E062C2F30722C2F10404D6
:10105000D3404278A24084781C401443220181F896
:101060000024007800F01F018D404009800000F14D
:10107000E020C0F8005130BD01F01F008540480954
:10108000800000F1E020C0F8805130BD0CED00E0A0
:101090000249084302490860704700000000FA0551
:1010A0000CED00E0044A0029116801D0014300E082
:1010B00081431160704700001C380240044A002937
:1010C000116801D0014300E08143116070470000C6
:1010D00024380240044A0029116801D0014300E08D
:1010E000814311607047000020380240044A002903
:1010F000116801D0014300E0814311607047000096
:101100001438024030B5254B1968A3F1040211F0E0
:101110000C014FF4004405D004290AD008290AD054
:101120000C290AD01168C1F34231491C8C4004607B
:1011300019E01B4916E01B4914E019681A6801F40C
:101140007011194C02F4400204EB9141097801241A
:1011500004EB92521C6814F4803F1DD0114C614383
:10116000B1FBF2F1016019680F2202EA11110E4A77
:101170000932545C0168E14041601C68072505EABA
:101180001424145D21FA04F484601B6805EAD32357
:10119000D25CD140C16030BD014CE0E7083802406C
:1011A0000024F40000127A00D8000020024600203B
:1011B0005109012909D00649096802F01F020123DB
:1011C00093400B4200D00120704701493439F3E7C6
:1011D000343802400149086070470000000047426F
:1011E0004FF4FA74012000F001FE204603F012FBD8
:1011F000022000F0FBFD204603F00CFBF2E7002983
:10120000018802D041F0400101E021F0400101805D
:1012100070470246002012890A4200D00120704720
:10122000808970478181704730B502884C8802F40C
:1012300041530A88CD8822438C882C4322430C8951
:1012400022434C8922438C892243CC8922431A436E
:101250000280828B22F400628283098A018230BD7F
:1012600010B58A0721F003040649120F21440F2309
:101270008C6893409C438C608B68904003438B60E8
:1012800010BD0000000001400CB500222C49009266
:101290000192086840F4803008604FF4A043086869
:1012A00000F4003001900098401C0090019810B9A3
:1012B00000989842F3D1086880033FD5012001903F
:1012C0002048026842F004020260026842F0020212
:1012D0000260026842F0010202601948243002688C
:1012E00042F080520260C214174802604268D2067F
:1012F000FCD4134808300268026002680260026889
:101300000260026822F47D020260026842F4110267
:1013100002600A6842F080720A600A689201FCD595
:10132000016821F003010160016841F003010160DF
:101330000168C1F381010329FAD10CBD01920CBDF2
:1013400000380240003C0240007000402DE9FE4F92
:101350000746DDE90CAB1E46884691466846FFF716
:1013600051FE00243C252046E9FB05804FF47A71AC
:10137000A8FB013C00FB01C008FB0402B8B213EB60
:101380000009DDE901032146E3FB05014FF47A730F
:10139000A0FB037801FB038100FB0410BDF80010E3
:1013A000624117EB010C51462346E6FB05134FF44F
:1013B0007A75A1FB056803FB0583002701FB073154
:1013C000604116EB0B036141BCEB090460EB0200CA
:1013D0001A1B814102D20120BDE8FE8F0020FBE7ED
:1013E0004FF0E0210428086903D020F004000861D0
:1013F000704740F00400FAE710B503F02FFF012812
:1014000003D0BDE8104003F02FBC10BD104800B55C
:10141000016841F4807101600D4908310A680D4B83
:101420001A400A6002680C4B1A400260026822F4FB
:1014300080220260086820F47D000860091D0020F9
:101440000860FFF721FF05494FF00060086000BD0C
:10145000003802400CC0FF88FEFFFEEE08ED00E001
:1014600070B5174D0221284600F057F8002825D006
:101470000221284600F042F8124C206888B120680A
:1014800001281BD1284600F046F8E0600022022126
:10149000284600F04EF8D4E90201814207D9081A23
:1014A00009E0284600F037F8A060012005E04FF67B
:1014B000FF72101A084460600220206070BD0000B6
:1014C000000C01400000002010B50A4C2088C00725
:1014D0000BD0094800698047064900201431086094
:1014E00004494FF47A701C310860208820F0010014
:1014F000208010BD1008004068010020C94301820F
:1015000070470029018802D041F0010101E021F07B
:10151000010101807047406B704702460020138A2A
:1015200092890B4202EA010202D0002A00D0012077
:101530007047002A828901D00A4300E08A438281F1
:10154000704700000288B0F1804F08D00F4B9842DE
:1015500005D00F4B984202D00E4B984203D122F097
:1015600070034A881A430C4B984206D00B4B9842A2
:1015700003D022F440730A891A4302804A68C26287
:101580000988018501218182704700000004004024
:1015900000080040000C0040001000400014004013
:1015A0007FB50D46044601210420FFF787FD019415
:1015B0000020ADF80050104CADF80800ADF8020066
:1015C00069462046FFF7BEFF012241212046FFF772
:1015D000B0FF1E218DF80C1003218DF80D108DF831
:1015E0000E1001208DF80F0003A8FFF71FFD012149
:1015F0002046FFF786FF7FBD0008004070B51F4DF5
:1016000040F22551284600F083F8F8B1284600F052
:1016100009F9C4B2204601F0BFFE194A1188080436
:1016200014D448044FF0000304D50A2C0DD141F422
:1016300000401FE00D2C1BD0124EC1F30D00491CC1
:10164000345488B21080C72800D913800821284656
:1016500000F057F801280FD1284600F0E3F8C0B297
:1016600001F09AFE2846BDE87040082100F036B827
:1016700041F480401080E9E770BD0000003801406F
:101680002A0000209002002070B5134C40F225552E
:101690002946204600F03CF8012809D1204600F0F8
:1016A000C1F8C0B201F086F82946204600F019F8CA
:1016B0000821204600F025F801280BD1204600F033
:1016C000B1F8C0B201F076F82046BDE870400821BC
:1016D00000F004B870BD000000440040C943018020
:1016E00070470A0A01219140C943018070470029CF
:1016F000818902D041F4005101E021F4005181813F
:1017000070470246002012880A4200D0012070472C
:1017100070B501F01F0501260024C1F3421306FA3B
:1017200005F2012B0FD0022B0FD0838A4FEA112133
:101730000088134206FA01F600EA060001D000B163
:101740000124204670BD8389F0E7038AEEE710B5D7
:10175000C1F3421301F01F040121A140012B07D066
:10176000022B07D01430002A026805D00A4304E097
:101770000C30F8E71030F6E78A43026010BD000035
:101780007FB50446008A0D4620F44051E88808439E
:101790002082A18941F20C608143A8882A891043E4
:1017A0006A890A431043A081A08A20F44071A88965
:1017B0000843A0826846FFF7A5FC1948844201D17E
:1017C000039800E00298A189090400EBC00101EB35
:1017D0000010296801D5490000E08900B0FBF1F054
:1017E0006422B0FBF2F109010B096FF018056B439D
:1017F00000EB8300A3891D044FF0320306D503EBF1
:10180000C000B0FBF2F000F0070005E003EB0010B1
:10181000B0FBF2F000F00F00084320817FBD000014
:10182000003801408088C0F30800704710B50649B1
:101830000C1D04E00B885B06FCD52280401C02785E
:10184000002AF7D110BD00000038014010B506494C
:101850000C1D04E00B885B06FCD52280401C02783E
:10186000002AF7D110BD000000440040FEE73038E8
:101870000A2801D20120704700207047704710B538
:10188000FFF73AFABDE81040FFF74EBA10B5012055
:1018900080F3108800F032FE00F044FA00F0CAFA3B
:1018A00000F020FC00F09CF9FFF7F6F900F008FAD0
:1018B000C82000F003FD00F044FD78B10CA0FEF755
:1018C00005FD00F04FF800F035F80C4801680C48B1
:1018D000814205D00BA0FEF7F9FC04E00CA0EEE776
:1018E0000EA0FEF7F3FC002080F3108810BD00006E
:1018F000454550524F4D210D0A0000007402002052
:101900001820C2004E4F466C617368210D0A00001A
:101910004E4F454550524F4D210D0A00466C6173A4
:101920006820436869704944203D2030782530386C
:10193000780D0A0010B501F033FC01F06FFC0020B7
:1019400001F0CEFC0421064800F0B3FB012001F0B9
:10195000C7FC01F0D1FCBDE81040002001F0E4BC60
:101960000038004070B501218D0388B02846FFF78C
:10197000A5FB01210220FFF795FB274E05220D2133
:101980003046FFF72AFB05220E213046FFF725FBE4
:1019900005220F213046FFF720FB02208DF81800AA
:1019A00000248DF81A408DF81B4003208DF8190093
:1019B0006810059005A93046FFF7D8FA05A930460A
:1019C0000595FFF7D3FA6800059005A93046FFF7A3
:1019D000CDFAADF800404FF48270ADF80200ADF8DA
:1019E00008406811ADF80A000820ADF80C00ADF809
:1019F0000440ADF80640ADF80E400720074CADF8A6
:101A0000100069462046FFF70FFC01212046FFF732
:101A1000F6FB08B070BD0000000402400038004032
:101A200030B50025294600EB410430F811306288BA
:101A3000934203D9638020F811200125491CC9B2C3
:101A40001729F0D3002DECD10022114600EB410301
:101A5000491C1B8AC9B21A440829F7D3D00830BDE3
:101A600070B58CB00120FFF751F8214D01212846B7
:101A7000FEF78EFF40212846FEF7A9FF0028F9D087
:101A80000623012211212846FEF7CEFF00246E46D0
:101A90002846FFF735F802212846FEF798FF002870
:101AA000F9D02846FEF790FF26F814000A2000F02F
:101AB0003BFC641CE4B2182CEAD30020FFF726F8A4
:101AC00000212846FEF764FF6846FFF7A9FF094991
:101AD00080B2B1F8F81040F6B8325143B1FBF0F0E3
:101AE00084B20A2000F020FC0CB0204670BD00003B
:101AF000002401400000F81F70B51B4D8CB001217F
:101B00002846FEF745FF40212846FEF760FF0028E3
:101B1000F9D00623012207212846FEF785FF00247D
:101B20006E462846FEF7ECFF02212846FEF74FFFDF
:101B30000028F9D02846FEF747FF26F814000A20AF
:101B400000F0F2FB641CE4B2182CEAD30021284612
:101B5000FEF71EFF6846FFF763FF84B20A2000F01D
:101B6000E3FB0CB0204670BD0024014070B51B4D56
:101B70008CB001212846FEF70BFF40212846FEF7D6
:101B800026FF0028F9D00623012219462846FEF731
:101B90004BFF00246E462846FEF7B2FF022128467E
:101BA000FEF715FF0028F9D02846FEF70DFF26F8AE
:101BB00014000A2000F0B8FB641CE4B2182CEAD32D
:101BC00000212846FEF7E4FE6846FFF729FF84B2AD
:101BD0000A2000F0A9FB0CB0204670BD0024014093
:101BE0002DE9F0414FF4007888B000214046FFF71E
:101BF00071FA01210846FFF755FA03268DF80460B3
:101C000001248DF8064020202B4F8DF8054000253B
:101C100000908DF8075069463846FFF7A7F9012173
:101C20000846FFF73FFA8DF804608DF80640402023
:101C30008DF8054000908DF8075069463846FFF74B
:101C400095F901210846FFF72DFA8DF804608DF80B
:101C5000064080208DF8054000908DF807506946B9
:101C60003846FFF783F90120FFF7B4FA2120FFF788
:101C70009DFA0028FAD001214046FFF72BFA0F4EBB
:101C80003046FEF78FFE02958DF80C408DF80D4022
:101C9000049506958DF81C4002A93046FEF79EFE7D
:101CA00000213046FEF774FE00213046FEF766FE46
:101CB00008B0BDE8F08100000000024000240140AF
:101CC0002DE9FC4101210846FFF7ECF901248DF8CC
:101CD00004408DF806400025E002104F8DF80750B3
:101CE000022600908DF8056069463846FFF73EF9F8
:101CF00001210846FFF7D6F98DF804408DF806401B
:101D000020038DF8075000908DF80560694638462D
:101D1000FFF72CF900F0C4FCBDE8FC810000024094
:101D2000FFF77AB97CB501210846FFF7BBF9012519
:101D30008DF8045000248DF8064010208DF80550D1
:101D400000908DF8074069462648FFF70FF90121FA
:101D50000420FFF7A7F98DF804508DF806402020E5
:101D6000214E8DF8055000908DF8074069463046A9
:101D7000FFF7FCF801210420FFF794F98DF80450D7
:101D80008DF80640E8028DF8055000908DF8074068
:101D900069463046FFF7EAF801210420FFF782F98F
:101DA0008DF804508DF8064028038DF805500090FA
:101DB0008DF8074069463046FFF7D8F80121042026
:101DC000FFF770F98DF804508DF80640A8028DF8E1
:101DD000055000908DF8074069463046FFF7C6F879
:101DE0007CBD000000000240000802400F490828A6
:101DF0000AD2DFE800F009040A09090E12160C489D
:101E0000818A81F0100181827047088880F020006B
:101E10000AE0088880F4006006E0088880F48050BA
:101E200002E0088880F4806008807047140802404F
:101E3000000002402DE9FC4701210220FFF732F9A2
:101E400001248DF8044000258DF80650DFF85C81F0
:101E50008DF805404FF020098DF80750694640463F
:101E6000CDF80090FFF782F801210420FFF71AF95E
:101E70008DF804408DF806500420DFF834A18DF869
:101E8000054000908DF8075069465046FFF76EF800
:101E900001210220FFF706F98DF804408DF8065065
:101EA0008DF8054066028DF8075069464046009659
:101EB000FFF75CF801210220FFF7F4F88DF80440E9
:101EC0008DF806508DF8054027028DF807506946B9
:101ED00040460097FFF74AF801210420FFF7E2F897
:101EE0008DF804408DF806508DF805408DF80750A8
:101EF000694650460096FFF739F801210846FFF77A
:101F0000D1F88DF804408DF80650DFF8A8808DF8E0
:101F100005408DF80750694640460097FFF726F8C0
:101F200001210420FFF7BEF88DF804408DF806501B
:101F30008DF805408DF80750694650460096FFF72A
:101F400015F801210846FFF7ADF88DF804408DF82B
:101F500006508DF805408DF80750694640460097B9
:101F6000FFF704F801210846FFF79CF88DF80440BC
:101F70008DF806508DF8054002248DF8075069460B
:101F800040460094FEF7F2FF08481830A0F8009091
:101F9000811C0E80078006481A30068000F03CF84D
:101FA000A8F81840A8F81A70BDE8FC8700040240A1
:101FB000000802400000024002494FF4807048834C
:101FC000704700000000024002494FF4807008830F
:101FD000704700000000024002494FF40070088082
:101FE000704700001A08024002494FF40070088050
:101FF000704700001808024002494FF480700880C2
:10200000704700001804024002494FF480700880B5
:10201000704700001A0402407CB517480426068069
:1020200001210820FFF73EF801248DF80440002527
:102030008DF806508DF805408DF8075069460F4819
:102040000096FEF793FF0D481A300680012102200A
:10205000FFF728F88DF804408DF806508DF80540FC
:1020600018248DF80750694605480094FEF77EFF56
:1020700003481A3004807CBD1A080240000C02405C
:102080000004024010B5044602212046FFF7C1F8C3
:102090000028F9D000212046FFF7C4F8012120468E
:1020A000FFF7B7F80028F9D02046FFF7B9F8C0B21B
:1020B00010BD70B50D46044602212046FFF7A9F871
:1020C0000028F9D029462046FFF7ACF80121204628
:1020D000FFF79FF80028F9D02046BDE87040FFF7D1
:1020E0009FB800002DE9F04186B001210220FEF7E3
:1020F000D9FF00254C4E8DF8105080248DF81350D8
:1021000003A930460394FEF731FF8DF810504FF0CD
:1021100007088DF8135003A93046CDF80C80FEF760
:1021200025FF01210846FEF7D5FF07210120FFF713
:1021300097F800948DF804500C278DF80570012451
:102140008DF806406846FEF7D9FE17208DF8080086
:102150008DF809408DF80A508DF80B4002A8FEF763
:1021600065FF324E306840F0800030600021012071
:10217000FFF776F88DF804508DF8057000948DF80F
:1021800006406846FEF7BAFE06208DF808008DF876
:1021900009508DF80A408DF80B4002A8FEF746FF63
:1021A000306840F00100306001210846FFF758F820
:1021B00002208DF8045000908DF805708DF80640CF
:1021C0006846FEF79BFE8DF808808DF809508DF863
:1021D0000A408DF80B4002A8FEF728FF306840F057
:1021E0000200306002210120FFF73AF804208DF848
:1021F000045000908DF805708DF806406846FEF793
:102200007DFE08208DF808008DF809508DF80A40F1
:102210008DF80B4002A8FEF709FF306840F004007B
:10222000306006B0BDE8F0810004024000040140C7
:102230000149088070470000240000203EB5044694
:102240006846FEF7DFFE09499DE80D0081E80D00B4
:1022500007484FF0400124B103B0BDE83040FEF71D
:10226000CEBE03B0BDE83040FEF7C7BE6802002016
:102270000004024010B50420FFF7B2F80C480D49E5
:102280000D4A0068B0FBF1F3B0FBF1F14FF47A7046
:1022900041431370012050804FF0E020026942F06A
:1022A000020202614161016941F00101016110BD59
:1022B0003C00002040420F003000002070B5044672
:1022C00002F0CCFF01280CD0094D6888844203D36A
:1022D000B4FBF0F002F09EFA6888B4FBF0F100FB6A
:1022E00011444FF47A706043BDE8704000F002B8CA
:1022F0003000002070B54FF0E02500216C69094ADC
:10230000AB6912785043AA699A42FCD002D2A3EB7F
:10231000020302E0A4EB020633441944134681424F
:10232000F1D370BD3000002070B5054600244FF495
:102330007A7603E03046FFF7DDFF641CAC42F9D348
:1023400070BD10B5A02000F025F918B100F0A8F973
:10235000002010BD012010BD2DE9F04115460E46AC
:10236000074600F089F90E2000EAD61444F0A000D8
:1023700000F060F900F0A4F970B9F0B200F05AF979
:1023800000F09EF940B900F077F944F0A10000F0A8
:1023900051F900F095F920B100F082F90020BDE874
:1023A000F08100246E1E0BE000F026F93855B4428F
:1023B00002D000F0DDF801E000F00CF9641CA4B2DA
:1023C000AC42F1D300F06CF90120E8E770B5C0B081
:1023D000064600206D462954401C1028FBD31023CC
:1023E00032462946002000F025F800221046A85465
:1023F000521C102AFBD3102231466846FFF7ACFF6F
:10240000002431192B5D224603A0FDF75FFF641CF9
:10241000102CF6D340B070BD5F7573416464726573
:1024200073733A25782C6275665B25645D3D2025C3
:10243000640D0A002DE9FF5F9B4692461546002673
:102440004FF00E094FF47A782CE00EB128071AD11C
:1024500000F026F909EAD510002440F0A00700F0AA
:102460000BF9384600F0E6F800F02AF918B1641CC0
:10247000A4B24445F3D3444530D0E8B200F0DAF8D2
:1024800000F01EF950BB009808B1FF2001E0019850
:10249000805D00F0CFF800F013F9F8B96D1C761CE0
:1024A000ADB2B6B25E45D0D300F0FAF809EADA1060
:1024B000002440F0A005464600F0DEF8284600F073
:1024C000B9F800F0FDF818B1641CA4B2B442F3D31B
:1024D000B44203D0012004B0BDE8F09F00F0E0F862
:1024E0000020F8E704490A885206FCD5024AC1B226
:1024F000121D1180704700000038014070B511496D
:10250000114A0020831893F850300B54401CC0B27D
:102510000C28F7D302F01EF834220C490CA0FDF76A
:10252000D5FE02F053F8074D0024295D0EA0FDF7FB
:10253000CDFE641CE4B20C2CF7D3BDE8704009A0BA
:10254000FDF7C4BE680500200000F81F2C570008E6
:1025500044454255473A2825732D25642943484967
:102560005049443A0D0A000025303278000000003E
:1025700070B5074C4FF48056668300F025F8E514DB
:10258000258300F021F8658300F01EF8268370BDD6
:10259000000002400B4910B50A8A0446D0040ED54B
:1025A000088A00050BD500F067F8204600F042F8D5
:1025B00000F086F8044600F073F8204610BD0120B4
:1025C00010BD0000000002400020401CC0B21E28C8
:1025D000FBD3704770B5074C4FF480502083FFF752
:1025E000F3FFE5142583FFF7EFFF6583BDE8704037
:1025F000FFF7EABF000002402DE9F04100240C4E35
:1026000025464FF400676006040E3783FFF7DCFFB2
:10261000308AC00401D5641CE4B27783FFF7D4FF8D
:102620006D1CEDB2082DEED32046BDE8F081000010
:10263000000002402DE9F0410E4E002405464FF403
:102640008058F7142806404601D5308300E0708397
:10265000FFF7BAFF3783FFF7B7FF77836806641C7D
:10266000050EE4B2082CEDD3FFF7AEFFA6F81880F4
:10267000BDE8F0810000024070B5084C4FF4805670
:102680002683E5142583FFF79FFF6683FFF79CFFF2
:102690006583BDE87040FFF797BF0000000002406F
:1026A00070B5064C4FF480556583E0142083FFF726
:1026B0008BFF2583BDE87040FFF786BF0000024016
:1026C00070B50A4D4FF480502883FFF77DFFEE145C
:1026D0002E83FFF779FF288AC00401D5012400E08A
:1026E00000246E83FFF770FF204670BD000002409B
:1026F0001CB5012080F310880146FEF72FFB4FF434
:102700004070FEF7C5FCFFF7B5FD4FF4165000F022
:1027100021FF4FF4E134204600F04EFE204600F049
:10272000B9FE0F48FDF7D2FDFFF7B0F801F012FF38
:1027300054220C490CA0FDF7C9FD01F047FF1748D2
:1027400041682020884716490120CDE90001020296
:10275000002314A1164802F055FD02F05DF9FEE7D2
:10276000785700083857000844454255473A28250D
:10277000732D2564294672656552544F532D535469
:102780004D33324C31353120323032332F30382F07
:10279000323520402076312E300D0A0068010020AD
:1027A0003800002073746172745F7461736B000091
:1027B00079330008064AD2F80411FF2901D9002014
:1027C00003E05054D2F80401401CC2F804017047E1
:1027D000600400202DE9F041184E0F460446F568CC
:1027E0003068001D01F070FE38B9306890F82C1088
:1027F00001208840316981433161601C07D137B1C4
:102800003168BDE8F0410E48091D01F096BE306800
:102810002C44AC424460316805D2B06BBDE8F04155
:10282000091D01F072BE706B091D01F06EFEB06AE9
:10283000844200D2B462BDE8F08100005C00002058
:10284000940800202DE9F041054601F083FE2D4E4D
:10285000B068401CB06030682B4F10B1706930B365
:102860002BE03560B068012827D1002404EB8400F8
:1028700007EB800001F03BFE641C202CF6D32348BC
:1028800001F035FE2148143001F031FE1F48283098
:1028900001F02DFE1D483C3001F029FE1B48503050
:1028A00001F025FE194870631430B06305E030680C
:1028B000E96AC06A884200D83560706A0121401C0C
:1028C0007062A864E86A326981401143316100EBAB
:1028D000800007EB8000291D01F02FFE01F076FE3D
:1028E000706900280CD03068E96AC06A884207D253
:1028F00007494FF080500860BFF34F8FBFF36F8FD1
:10290000BDE8F0815C000020C405002044080020E0
:1029100004ED00E010B501F01DFE0E4C2068A0B9DA
:102920000D4801F0E4FD0C48143001F0E0FD0A48C8
:10293000E0601430206100221021052002F0ACF983
:10294000206010B105A101F017FFBDE8104001F0B3
:102950003DBE000098000020A8080020546D725170
:102960000000000030B4026C0B46002A0BD0C16896
:102970001144C1608468A14201D30168C16030BCC8
:102980001846FDF761BE30BC70472DE9F041856BFC
:10299000174604460026026C82B1C7B1E068FDF715
:1029A00053FEE168206C091AE1602268914202D26C
:1029B000A168081AE060022F16D017E02068A8B9B5
:1029C000A06802F0D5FC06460020A0600EE060681A
:1029D000FDF73AFE216C606808446060A168884297
:1029E00004D32068606001E005B16D1E6D1CA56315
:1029F0003046BDE8F08110B50446006B01F018FECA
:102A00002046BDE8104001F013BE000010484FF40E
:102A10002051420706D0C01D0D4920F00700411A81
:102A2000C1F520510B4A00230144C2E900030839D3
:102A3000183A21F0070111604B600B600B1AC0E9D6
:102A4000001393604FF000405360506170470000E6
:102A5000D0080020D0000020134E144DA6F52F778B
:102A60004FF08058DFF8489011E001F073FDF068F6
:102A7000C468201D01F028FDA868401EA860686891
:102A8000401E686001F0A2FD2046FFF7B4FF6868B1
:102A90000028EAD138680128F9D9C9F80080BFF3C5
:102AA0004F8FBFF36F8FF2E7800800205C0000209B
:102AB00004ED00E02DE9F05FDDE90B940E461746CA
:102AC000834691009A460A9DA522206BFDF701FEE0
:102AD0006FF00301206B01EB8701084420F007072A
:102AE000780705D04FF459721CA121A0FDF7EEFB29
:102AF0004FF0000866B100202218315C82F83410D3
:102B0000315C11B1401C1428F6D384F8478001E0F1
:102B100084F83480202D00D31F25E562C4E91458C1
:102B2000201D01F0EFFC04F1180001F0EBFC246122
:102B3000C5F120006462A061C4F8588084F85C800C
:102B400052465946384600F017FB2060B9F1000F95
:102B500001D0C9F80040BDE8F09F00002E2E5C4671
:102B600072656552544F535C7461736B732E6300CE
:102B70004572726F723A25732C25640D0A000000AD
:102B800030B5114900E011460A688242FBD34B6818
:102B90005C18844203D14068184448600846436882
:102BA0001C18944209D1084C183C2468A24209D050
:102BB00052681A4442600A6812680260814200D07A
:102BC000086030BD0460F9E7D000002070B5002433
:102BD00041600B4D0061914206D8D11A8269914241
:102BE00006D2011D286907E09A4203D2994201D317
:102BF000012403E0011DE86801F087FC204670BD58
:102C00009800002010B5044601F0A4FCA06B20B190
:102C1000002401F0DBFC204610BD0124F9E7000090
:102C2000F1B500980026846C2CB940F6493216A103
:102C30001AA0FDF74BFBA06BE16B884205D340F671
:102C40004A3211A115A0FDF741FBA06BE16B884250
:102C50000CD294F94550002269462046FFF795FEB4
:102C60000646681C04D06D1C84F845503046F8BDFB
:102C7000606A0028FAD004F1240002F0D3FB002897
:102C8000F4D00126F2E700002E2E5C4672656552F4
:102C9000544F535C71756575652E63004572726F94
:102CA000723A25732C25640D0A000000F8B505461C
:102CB00017480E46C068C068C468201D01F004FCB7
:102CC00094F82800410718D5A0692B4641193246CF
:102CD0002046FFF77BFFA0B100200346014600908D
:102CE0002A46204602F0DAFC58B90A4940F211227D
:102CF00001F11800FDF7EAFA03E020F0010084F882
:102D00002800216A01B02046BDE8F04008470000D5
:102D1000980000200056000870B586B03D4E70E067
:102D20000198002806DADDE90301029A904701982C
:102D3000002866DB039C606910B1201D01F0C4FB14
:102D400005A800F0C3F8054601980A2859D2DFE823
:102D500000F00505052F354C05052F3594F82800A2
:102D60002A4640F0010084F828000298A169034631
:102D700001442046FFF72AFF002842D0216A20465E
:102D8000884794F8280040073BD50020009002981F
:102D9000A169002342181946204602F07FFC002852
:102DA0002FD14FF44B721CA121A0FDF78FFA28E020
:102DB00014F8280F20F00100207022E094F8280079
:102DC00040F0010084F828000298A06128B94FF46F
:102DD000517211A116A0FDF779FAA0692B4641198D
:102DE0001A462046FFF7F2FE0BE094F82800810710
:102DF00003D4204601F01CFC03E020F0010084F81D
:102E00002800002201A9306802F00CF9002887D1BF
:102E100006B070BD980000202E2E5C46726565528B
:102E2000544F535C74696D6572732E63000000002B
:102E30004572726F723A25732C25640D0A000000EA
:102E4000F8B50D46064601F031FE684600F03EF842
:102E50000446009810B102F031FBF8BD1148ADB145
:102E600001690968D9B10025311B2A46006801F0C3
:102E700095FC02F023FB0028EFD10B494FF0805066
:102E80000860BFF34F8FBFF36F8FF8BDA642EBD83A
:102E900002F014FB21463046FFF708FFF8BD01257C
:102EA000E2E700009800002004ED00E00648416BD6
:102EB000096829B1416BC968C9684968816270476E
:102EC0004FF0FF31FAE700005C00002070B50546C6
:102ED00002F0D2F9064E0446B068844203D200F0F4
:102EE00009F8012000E0002028602046B46070BD91
:102EF00098000020F8B5194E27E0C068C46805683E
:102F0000201D01F0E1FA216A2046884794F8280044
:102F100040071AD5A0692844A84206D924616060F8
:102F2000211DF06801F0F1FA0FE000200346014690
:102F300000902A46204602F0B1FB30B9084940F221
:102F40009D3201F11800FDF7C1F9F0680168002910
:102F5000D3D13169C6E90310F8BD00009800002004
:102F60000056000808484068401C04D0CA2207A147
:102F700011A0FDF7ABF9502080F31188BFF34F8FFC
:102F8000BFF36F8FFEE70000AC0000202E2E5C46E2
:102F900072656552544F535C706F727461626C65F8
:102FA0005C525644535C41524D5F434D335C706FED
:102FB00072742E63000000004572726F723A2573BE
:102FC0002C25640D0A000000084CE068016839B146
:102FD000002139B10020FFF733FFFFF79DFEF4E732
:102FE0000121F6E7C0680068F5E7000098000020BE
:102FF0002DE9F041044601F0ADFA94F9455004F191
:1030000024060FE0A06C18B12046FFF709FE04E08B
:10301000606A48B1304602F005FA08B101F09EFC42
:103020006D1E6DB2002DEDDC4FF0FF3684F845606B
:1030300001F0CCFA01F08EFA94F9445004F1100733
:1030400009E0206948B1384602F0ECF908B101F016
:1030500085FC6D1E6DB2002DF3DC84F84460BDE884
:10306000F04101F0B3BA00002DE9F0410546002619
:1030700001F01CFD334F386808B9FFF7C7FC7869C9
:10308000054252D1002D50D0083568070BD005F00D
:103090000700C0F108000544680704D097222AA160
:1030A00031A0FDF713F9002D3FD0786885423CD858
:1030B000244918310846046801E021460446606846
:1030C000A84202D220680028F7D13868B846844266
:1030D0002BD00E682068086060680836401B1028F6
:1030E0000ED96719780704D0C42217A11EA0FDF7D6
:1030F000EDF86068401B786038466560FFF740FD7A
:103100006168D8F804004246401AC8F80400D8F8AC
:103110000830984200D29060506901430020C4E911
:103120000001D068401CC8F80C0002F0C7F9700715
:1031300005D040F2051204A10BA0FDF7C7F83046F8
:10314000BDE8F081B80000202E2E5C467265655205
:10315000544F535C4D656D4D616E675C6865617081
:103160005F342E63000000004572726F723A25735F
:103170002C25640D0A00000010B5031F4FF0807469
:103180001C601B1F21F001011960191F024B0B600D
:10319000143940380A6010BD652F00080068704778
:1031A0001CB501210220FDF77DFF012000F098F8F9
:1031B00001208DF8040000208DF806008DF807002E
:1031C00003208DF805004FF48050009069460248B6
:1031D000FDF7CCFE1CBD00000004024070B50020CD
:1031E00000F07EF80C4D9F212846FEF762FF28462E
:1031F000FEF748FF04462846FEF744FF06462846E9
:10320000FEF740FF0546012000F06AF8200440EA7E
:103210000620284370BD0000003800402DE9F04131
:10322000FFF7DCFF184C19494FF40016421AF7005B
:103230007512206088421FD00BDC154940180FD052
:103240001449C8420AD114A1201DFDF7D9F96661BD
:1032500017E01448101805D001280BD012A1F3E78D
:1032600015A1F1E717A1201DFDF7CAF94FF40000E1
:10327000606106E015A100E016A1201DFDF7C0F970
:1032800067612583BDE8F081740200201820C20028
:10329000BFDA40FF2C05FDFF4D5832354C3136303A
:1032A0003645000001E0D2FF556E6B6E6F77204609
:1032B0006C61736800000000535354323556463039
:1032C00031364200573235513634000057323551CD
:1032D000313238004D5832354C3132380000000060
:1032E0004FF4805110B10348018070470148801CA1
:1032F000FAE700001804024010B50020FFF7F0FFC5
:10330000084C05212046FEF7D4FE01E0FEF708FD3B
:103310002046FEF7B7FEC007F8D1BDE810400120F7
:10332000FFF7DEBF0038004070B5104A104B114D5A
:10333000126804469A4209D10020FFF7D1FF5021BC
:103340002846FEF7B6FE0120FFF7CAFF0020FFF770
:10335000C7FF01212846FEF7ACFE21462846FEF7AE
:10336000A8FEBDE870400120FFF7BABF740200203C
:103370004125BF000038004010B501F0EBF8FEF722
:103380007EFA0448006801F07BFABDE8104001F0C5
:103390001DB9000038000020064AD2F80411FF29A8
:1033A00001D9002003E05054D2F80401401CC2F8B7
:1033B00004017047580300202DE9F04381460121A4
:1033C00087B00846FDF76EFE01214804FDF776FE42
:1033D000DFF8B880072202214046FDF7FEFD0722F4
:1033E00003214046FDF7F9FD02258DF8045003271F
:1033F00004208DF80570002400908DF80640012609
:103400008DF8076069464046FDF7B0FD8DF8057000
:1034100008208DF8045000908DF806408DF8076064
:1034200069464046FDF7A2FD26208DF818008DF86C
:1034300019508DF81A408DF81B6006A8FDF7F6FDAF
:10344000ADF80C40ADF80E40ADF81040ADF81440AA
:103450000C200F4CADF81200CDF8089002A92046C0
:10346000FEF78EF940F22555012229462046FEF747
:103470006EF901212046FEF73AF90122294620463D
:10348000FEF765F907B0BDE8F083000000000240D8
:10349000004400402DE9F041804688B0012102201F
:1034A000FDF700FE01218804FDF708FE274F0722E3
:1034B0000A213846FDF791FD07220B213846FDF71A
:1034C0008CFD02258DF8045038158DF80550002428
:1034D00000908DF8064001268DF807606946384651
:1034E000FDF744FDA80200908DF804506946384667
:1034F000FDF73CFD27208DF8180003208DF81900FA
:103500008DF81A408DF81B6006A8FDF78FFDADF809
:103510000C40ADF80E40ADF81040ADF814400C2052
:103520000B4CADF81200CDF8088002A92046FEF73A
:1035300027F9012240F225512046FEF708F9012122
:103540002046FEF7D4F808B0BDE8F0810004024040
:10355000004800402DE9F0418046012188B008462E
:10356000FDF7A0FD01218803FDF7B4FD274F0722D9
:1035700009213846FDF731FD07220A213846FDF7BB
:103580002CFD02258DF8045078158DF80550002487
:1035900000908DF8064001268DF807606946384690
:1035A000FDF7E4FC680200908DF804506946384647
:1035B000FDF7DCFC25208DF818008DF819608DF8DA
:1035C0001A408DF81B6006A8FDF730FDADF80C40E1
:1035D000ADF80E40ADF81040ADF814400C200C4C86
:1035E000ADF81200CDF8088002A92046FEF7C8F811
:1035F000012240F225512046FEF7A9F8012120467C
:10360000FEF775F808B0BDE8F08100000000024048
:103610000038014070B594B0064613AB11AA694654
:1036200000F0DAF9002824D18DF840001D4C042563
:1036300014E0206805EBC10113AB405812AA08A999
:1036400000F0CAF9002814D1694608A800F0E6FB8A
:1036500088B19DF84000401C8DF84000207D9DF809
:1036600040108842E5D8207D9DF8401088420ED158
:10367000042014B070BD9DF848009DF844108842A5
:1036800001D90220F5E79DF84000A075EBE710A9ED
:10369000304600F055FA0028EBD19DF840006075E7
:1036A0000020E6E7680100202DE9F0417F4E002769
:1036B0009AB0B57D307DA8427CD90421306801EBF9
:1036C000C50119AB405818AA10A900F085F910A936
:1036D00077A0FCF7FBFD00240DF1180832E0308BD9
:1036E0000121A140084217D0222173A0FCF7EEFD72
:1036F000204600F08DFA811970A02431FCF7E6FD18
:1037000022216DA0FCF7E2FD204600F081FA304452
:10371000243048F824000BE0204600F079FA3044C9
:10372000416A48F82410F07D00B365A0FCF7CEFD97
:103730009DF86000401E844202D063A0FCF7C6FDE5
:10374000641CE4B29DF860008442C8D35FA0FCF71B
:10375000BDFD00F0A3FA707D0B2814D2DFE800F065
:10376000080D31384048525E6B78880058A0DDE77C
:10377000306850F83500804704E0306850F8351064
:1037800006988847074600F055FA9DF8640001281E
:103790007DD050A0FCF79AFD96F8EC0000280DD0E3
:1037A000D6F8F0000A21B0FBF1F201FB1202B0FBE7
:1037B000F1F100E002E048A0FCF788FD1AB0BDE896
:1037C000F081306850F83520DDE906019047D9E7EF
:1037D000306806AC50F8353094E807009847D1E7D8
:1037E000306806AF50F8354097E80F00A047C9E7AA
:1037F0000A980090306806AF50F8354097E80F00FF
:10380000A047BFE7DDE90A01CDE90001306806AF56
:1038100050F8354097E80F00A047B3E70AAB06AF72
:1038200093E807008DE80700306850F8354097E8C6
:103830000F00A047A6E70AAC06AF94E80F008DE89A
:103840000F00306850F8354097E80F00A04799E71F
:103850000BAC06AF94E80F0001AC84E80F000A98A7
:103860000090306850F8354097E80F00A04789E78E
:103870000CAC06AF94E80F0002AC84E80F00DDE961
:103880000A01CDE90001306850F8354000E003E05E
:1038900097E80F00A04775E7F07D394618B116A0EC
:1038A000FCF714FD78E717A0FAE700006801002094
:1038B0000D0A257328000000256300002573000011
:1038C00030582558000000002C000000290000009E
:1038D000256C75003B0D0A0046756E6374696F6E4A
:1038E0002052756E2054696D653A25642E25316429
:1038F0006D730D0A000000003D305825583B0D0A3D
:10390000000000003D256C753B0D0A00F0B5002558
:103910002E462F462C4603782C2B03D0292B04D07F
:103920001BB103E014B9012600E05CB317B1222BF0
:1039300026D026E0A3F1300CBCF1090F15D9A3F174
:10394000610CBCF1050F10D9A3F1410CBCF1050FBE
:103950000BD9582B09D0782B07D0222B0CD0202B39
:103960001ED02C2B1CD0FF270CE05EB9612B00D39E
:10397000203B01F8013B13E026B901273C460FE04C
:10398000002426B10020087017702846F0BD3CB115
:103990005C2B02D16D1CEDB2401C037801F8013B99
:1039A0006D1CEDB2401CB6E730B5002515700AE07D
:1039B00001F8014B1478401C641CE4B214709C4262
:1039C00001D3012030BD0478202C01D0002CEFD190
:1039D0000D70002030BD00002DE9FF4F002482B0A3
:1039E00089469846A2462746012526462246EB46AA
:1039F000029915E0202810D002F07F03052B0CD28D
:103A000002B9802202F07F03042B01D12A280AD1B7
:103A1000521C0BF80300D2B201E0852A04D0491CE5
:103A200008780028E6D16AB102F07F0200200BF886
:103A3000020041A1584600F0F1F938B1012188F89F
:103A4000001000224FF00008029B15E0002088F8CB
:103A50000000F6E708F1010000F0FF0813F8010F7D
:103A6000202801D02A2807D1184600F07FF92828FD
:103A700002D02A2800D0C2461878282801D0002871
:103A8000E8D10299BAF1000F01D05144491C4FF01E
:103A900000084346087888B1282804D0292806D091
:103AA000222810D011E083B9641CE4B20DE063B9A0
:103AB00024B1641E14F0FF0402D00DE04FF00108A1
:103AC000012F27D02FE04BB100234CB12C280CD074
:103AD000202816D0282814D05AB110E00123F4E78A
:103AE000202815D009F8010B12E00125521CD2B292
:103AF00007E0052E03D20BF80600761CF6B26D1C0B
:103B0000EDB2012C04D1022D02D103257F1CFFB29E
:103B1000491CBFE700200BF8060007A1684600F02B
:103B20007DF900B9002704980770002089F800008B
:103B300006B04046BDE8F08F766F69640000000073
:103B40002DE9F04300248946304DB5B02146224688
:103B50006B18491CC9B29A760A29F9D302E010F809
:103B6000011F99B101782829F9D1461C4FF00108AD
:103B700033AA69463046FFF7C9FE06449DF8CC00DB
:103B800040B1012824D0FF2836D10BE0012035B008
:103B9000BDE8F0839DF8000070B334A9684600F0DA
:103BA000EDF808B10220F2E7204600F031F8284491
:103BB00034994162298B08FA04F081432983042057
:103BC00029198876641CE4B20A2C15D90320DEE793
:103BD000684600F038F9471C204600F019F84119F2
:103BE0006846243100F026F9298B08FA04F00143D5
:103BF000281929838776E5E73078292801D000281D
:103C0000B6D189F800400020C1E70000680100201B
:103C1000024610B500200146054B05E05C18491C22
:103C2000A47EC9B22044C0B29142F7D310BD0000B7
:103C300068010020094800880949C007D1F8F00050
:103C400004D04FF6FF721044C1F8F000034A14325A
:103C500012681044C1F8F0007047000010080040DE
:103C60006801002000EBC00101EB00104FF0FF31B4
:103C700001EB800010B581B24FF47A70FDF790FC33
:103C800001490120C87510BD6801002003460120CC
:103C900000E05843491EC9B2FBD27047084801886A
:103CA00021F00101018006494FF6FF701C310860C8
:103CB00003490020143108600249C1F8F000704740
:103CC00010080040680100202DE9F041164E3088B0
:103CD000010426D51549C0B2154F00250D54B96809
:103CE0001248884704000FD0104800F0B5F80128AA
:103CF00001D0040014D0012C09D0022C09D0032CCF
:103D000009D0042C0CD108E0F868804708E009A02D
:103D100004E00BA002E00DA000E00FA0FCF7D6FA33
:103D20003580BDE8F08100002A00002090020020CC
:103D300068010020BAAFCAFDB4EDCEF3210D0A0030
:103D4000B2CECAFDB4EDCEF3210D0A00B2CECAFD4B
:103D5000CCABB6E0210D0A00CEB4D5D2B5BDC6A518
:103D6000C5E4B5C4BAAFCAFD210D0A0010F8011FA1
:103D7000202901D10028F9D1C8B270472DE9F041BE
:103D80000024884605460A260C600178A1F130021D
:103D9000092A0DD9113A052A0AD9582905D011F056
:103DA000FF0F0CD00120BDE8F081012C02D0F9E713
:103DB000412900D31026641CE4B2401CE5E7102E14
:103DC00001D084B112E0032C01D20220EBE7287865
:103DD000302802D16878582801D00320E3E7A41ED8
:103DE000E4B2AD1C01E00420DDE70CB1641EE4B2D6
:103DF0002F783846303F092F01D9A0F137072146E7
:103E00003046FFF743FFD8F8001007FB0011C8F851
:103E1000001015F8010F0028E7D1C4E702780B78ED
:103E20009A4201D00120704712B1401C491CF5E7AD
:103E30000020704702780A700278002A02D0401CE5
:103E4000491CF7E77047002102781AB1491CC9B232
:103E5000401CF9E708467047F0B58DB004461E23B4
:103E600008AA6946FFF7A0FD0990002872D19DF8C5
:103E70002000271800253E4C8DF820509DF820008A
:103E800054F820106846FFF7C9FF38B19DF82000AC
:103E9000401CC0B28DF820000728EFD39DF8200009
:103EA0000426344C072855D2DFE800F00404395AC0
:103EB000605F5E0030A0FCF709FA30A0FCF706FA5C
:103EC0003EA0FCF703FA4DA0FCF700FA5BA0FCF75C
:103ED000FDF96AA0FCF7FAF978A0FCF7F7F985A0DC
:103EE000FCF7F4F98AA0FCF7F1F98FA0FCF7EEF9E2
:103EF00093A0FCF7EBF998A0FCF7E8F99DA0FCF77C
:103F0000E5F9A3A0FCF7E2F9AFA0FCF7DFF9BCA04C
:103F1000FCF7DCF9C7A0FCF7D9F9D3A01BE016A089
:103F2000FCF7D4F9E0A0FCF7D1F98DF820500BE0B4
:103F3000216806EBC0000958EBA0FCF7C7F99DF813
:103F40002000401C8DF82000217D9DF8200081423A
:103F5000EED84EE24FE2FCF7B9F900200DB0F0BD0B
:103F600005A0FCF7B3F9C3E124E204E2E3E10000B9
:103F7000F4000020680100200D0A00002D2D2D2DD9
:103F80002D2D2D2D2D2D2D2D2D2D2D2D2D2D2D2D61
:103F90002D2D2D2D55534D4152542056332E312D5C
:103FA0002D2D2D2D2D2D2D2D2D2D2D2D2D2D2D2D41
:103FB0002D2D2D2D2D2D2D200D0A0000202020200F
:103FC00055534D415254CAC7D3C9414C49454E542B
:103FD000454BBFAAB7A2B5C4D2BBB8F6C1E9C7C9A1
:103FE000B5C4B4AEBFDAB5F7CAD4BBA5BDBBD7E97B
:103FF000BCFE2CCDA8B9FD200D0A0000CBFC2CC4C2
:10400000E3BFC9D2D4CDA8B9FDB4AEBFDAD6FACADF
:10401000D6B5F7D3C3B3CCD0F2C0EFC3E6B5C4C8AE
:10402000CEBACEBAAFCAFD2CB2A2D6B4D0D02ED260
:10403000F2B4CB2CC4E3BFC90D0A0000D2D4CBE646
:10404000D2E2B8FCB8C4BAAFCAFDB5C4CAE4C8EB82
:10405000B2CECAFD28D6A7B3D6CAFDD7D6283130EE
:104060002F3136BDF8D6C629A1A2D7D6B7FBB4AE3C
:10407000A1A2BAAFCAFDC8EB0D0A0000BFDAB5D8DD
:10408000D6B7B5C8D7F7CEAAB2CECAFD292CB5A5EA
:10409000B8F6BAAFCAFDD7EEB6E0D6A7B3D6313080
:1040A000B8F6CAE4C8EBB2CECAFD2CB2A2D6A7B30A
:1040B000D6BAAFCAFDB7B5200D0A0000BBD8D6B539
:1040C000CFD4CABE2ED0C2D4F6B2CECAFDCFD4CA87
:1040D000BEBDF8D6C6C9E8D6C3B9A6C4DC2CD0C2CA
:1040E000D4F6BDF8D6C6D7AABBBBB9A6C4DC2E0D84
:1040F0000A000000BCBCCAF5D6A7B3D63A777777DA
:104100002E6F70656E6564762E636F6D0D0A00000C
:1041100055534D415254D3D037B8F6CFB5CDB3C374
:10412000FCC1EE3A0D0A00003F3A2020202020205A
:10413000BBF1C8A1B0EFD6FAD0C5CFA20D0A0000DE
:1041400068656C703A202020BBF1C8A1B0EFD6FAA8
:10415000D0C5CFA20D0A00006C6973743A202020EC
:10416000BFC9D3C3B5C4BAAFCAFDC1D0B1ED0D0A42
:104170000A00000069643A2020202020BFC9D3C370
:10418000BAAFCAFDB5C44944C1D0B1ED0D0A0A00A9
:104190006865783A20202020B2CECAFD3136BDF8BD
:1041A000D6C6CFD4CABE2CBAF3B8FABFD5B8F12B55
:1041B000CAFDD7D6BCB4D6B4D0D0BDF8D6C6D7AA1F
:1041C000BBBB0D0A0A0000006465633A2020202072
:1041D000B2CECAFD3130BDF8D6C6CFD4CABE2CBAD5
:1041E000F3B8FABFD5B8F12BCAFDD7D6BCB4D6B454
:1041F000D0D0BDF8D6C6D7AABBBB0D0A0A000000B6
:1042000072756E74696D653A312CBFAAC6F4BAAF87
:10421000CAFDD4CBD0D0BCC6CAB13B302CB9D8B1C2
:10422000D5BAAFCAFDD4CBD0D0BCC6CAB13B0D0AFB
:104230000A000000C7EBB0B4D5D5B3CCD0F2B1E0E2
:10424000D0B4B8F1CABDCAE4C8EBBAAFCAFDC3FB6B
:10425000BCB0B2CECAFDB2A2D2D4BBD8B3B5BCFCFE
:10426000BDE1CAF82E0D0A002D2D2D2D2D2D2D2D41
:104270002D2D2D2D2D2D2D2D2D2D2D2D2D2D2D2D6E
:104280002D2D414C49454E54454B2D2D2D2D2D2D79
:104290002D2D2D2D2D2D2D2D2D2D2D2D2D2D2D2D4E
:1042A0002D2D2D200D0A00002D2D2D2D2D2D2D2DE8
:1042B0002D2D2D2D2D2D2D2D2D2D2D2D2D2D2D2D2E
:1042C0002DBAAFCAFDC7E5B5A52D2D2D2D2D2D2D50
:1042D0002D2D2D2D2D2D2D2D2D2D2D2D2D2D2D2D0E
:1042E0002D2D2D2D200D0A0025730D0A0000000034
:1042F00042A0FBF7EBFF8DF8205016E0216806EB9B
:10430000C0000BAB08580AAA6946FFF765FB9DF889
:104310002010206850F83120694648A0FBF7D6FFEE
:104320009DF82000401C8DF82000217D9DF8200084
:104330008142E3D85DE0AFF2C030FBF7C7FF08AAC7
:1043400069463846FFF7E2FA9DF82000002843D17D
:1043500009A96846FFF712FD8DF8200010B1042866
:104360003AD102E03AA009991CE03CA0FBF7AEFF6D
:104370000120E0753DE038A0FBF7A8FF08AA6946D8
:104380003846FFF7C3FA9DF8200028BB09A9684604
:10439000FFF7F4FC8DF8200010B104281CD104E0D4
:1043A00033A00999FBF792FF23E034A0FBF78EFFBF
:1043B000E5751EE028A0FBF789FF08AA6946384684
:1043C000FFF7A4FA9DF8200030B909A96846FFF765
:1043D000D5FC8DF8200008B10220BFE5099810F047
:1043E000FF0084F8EC0001D029A000E02FA0FBF72B
:1043F0006DFF19A0AFE50120B0E500002D2D2D2D9A
:104400002D2D2D2D2D2D2D2D2D2D2D2D2D2D2D2DDC
:104410002D2D2D2D2DBAAFCAFD204944202D2D2D37
:104420002D2D2D2D2D2D2D2D2D2D2D2D2D2D2D2DBC
:104430002D2D2D2D2D2D2D2D200D0A0025732069BC
:10444000642069733A0D0A3058253038580D0A0037
:104450004845583A305825580D0A00003136BDF805
:10446000D6C6B2CECAFDCFD4CABE210D0A00000006
:104470004445433A256C750D0A0000003130BDF803
:10448000D6C6B2CECAFDCFD4CABE210D0A000000E6
:1044900052756E2054696D652043616C63756C6163
:1044A00074696F6E204F4E0D0A00000052756E2029
:1044B00054696D652043616C63756C6174696F6EDE
:1044C000204F46460D0A0000D0E9013201699A608A
:1044D000D0E901235A604A68824201D182684A6069
:1044E000002202610868401E08600868704700F1F9
:1044F00008014FF0FF32C0E90112C16001610021E3
:104500000160704700210161704730B50C68621C82
:1045100002D000F1080202E0026904E01A46536882
:104520001D68A542FAD953684B6099608A60516052
:1045300008610168491C016030BD42684A609368A7
:104540008B6093685960916008610168491C016043
:1045500070470000502080F31188BFF34F8FBFF3E6
:104560006F8F09494868401C486001280AD10748F4
:10457000006810F0FF0F05D04FF4B37204A10FA034
:10458000FBF7A4BE70470000AC00002004ED00E083
:104590002E2E5C4672656552544F535C706F727478
:1045A00061626C655C525644535C41524D5F434DB1
:1045B000335C706F72742E63000000004572726F7E
:1045C000723A25732C25640D0A00000010B5084CC2
:1045D000606828B940F26D1206A111A0FBF776FEC3
:1045E0006068401E606001D180F3118810BD00003A
:1045F000AC0000202E2E5C4672656552544F535C11
:10460000706F727461626C655C525644535C4152C7
:104610004D5F434D335C706F72742E630000000079
:104620004572726F723A25732C25640D0A000000E2
:1046300070B500282DD0174DA0F108046068696995
:10464000084205D140F2191213A11BA0FBF73EFE50
:10465000206828B14FF48D720FA117A0FBF736FE2A
:1046600060686969084214D02268002A11D1884321
:10467000606000F01BFA6068696808446860204662
:10468000FEF77EFA2869401C2861BDE8704000F002
:1046900015BF70BDB80000202E2E5C4672656552B5
:1046A000544F535C4D656D4D616E675C686561701C
:1046B0005F342E63000000004572726F723A2573FA
:1046C0002C25640D0A0000004FF0E020002101615C
:1046D000816105494FF47A720968B1FBF2F1491E14
:1046E00041610721016170473C00002010B5FBF7D4
:1046F000C7FD104C10280CD300F1E02090F8F00317
:104700002178884205D240F2A6220BA115A0FBF722
:10471000DDFD18480068A16800F4E060884207D910
:10472000BDE8104040F2B62203A10EA0FBF7CEBDBB
:1047300010BD0000AC0000202E2E5C467265655254
:10474000544F535C706F727461626C655C52564476
:10475000535C41524D5F434D335C706F72742E63F6
:10476000000000004572726F723A25732C25640DAB
:104770000A0000000CED00E010B5074B002253F8D2
:1047800032401CB1521C082AF9D310BD43F8321034
:1047900003EBC201486010BD8405002070B51546CA
:1047A0000E460446FFF7D6FE94F944100020491C3B
:1047B00001D184F8440094F94510491C01D184F8D2
:1047C0004500FFF703FFA06B28B92A46314604F1E4
:1047D000240000F0F3F82046BDE87040FEF708BC66
:1047E0000A490B4A08881278104480B20880B0F554
:1047F0007A7F0AD300220A804868401C48603C281F
:1048000003D34A608868401C8860704778050020A0
:104810003400002010B5040012D00E49096B29B1F4
:1048200040F244520CA111A0FBF750FD00F03EF9FC
:1048300000212046FDF7CEFF00F040FE002807D102
:104840000E494FF080500860BFF34F8FBFF36F8F5A
:1048500010BD00005C0000202E2E5C467265655283
:10486000544F535C7461736B732E63004572726FA7
:10487000723A25732C25640D0A00000004ED00E057
:1048800070B50446FFF766FE234D04B92C68201D61
:10489000FFF71AFE58B9E06A204A00EB800152F88F
:1048A000211021B901218140286988432861A06A2B
:1048B00018B104F11800FFF707FE686A401C68622F
:1048C0002868844207D1211D1548FFF736FE686825
:1048D000401C686007E0A868401EA8602046FEF7FC
:1048E0008AF8FEF7E3FAFFF771FE6869002812D034
:1048F000286884420FD1286B28B140F2DA4209A11E
:104900000DA0FBF7E3FC10494FF080500860BFF3A7
:104910004F8FBFF36F8F70BD5C000020C405002077
:10492000800800202E2E5C4672656552544F535C01
:104930007461736B732E63004572726F723A2573E4
:104940002C25640D0A00000004ED00E002490A6A0B
:104950000260C968416070475C0000200149012085
:10496000C86170475C00002070B50D46040005D199
:1049700040F6FA3207A10CA0FBF7A8FC0E4801682C
:1049800020461831FFF7C1FD2846BDE870400121DF
:10499000FDF720BF2E2E5C4672656552544F535C66
:1049A0007461736B732E63004572726F723A257374
:1049B0002C25640D0A0000005C00002070B5144630
:1049C0000E46050005D140F6254209A10DA0FBF7D2
:1049D0007DFC1048016828461831FFF7AEFD0CB188
:1049E0004FF0FF3621463046BDE87040FDF7F2BE7D
:1049F0002E2E5C4672656552544F535C7461736B26
:104A0000732E63004572726F723A25732C25640D04
:104A10000A0000005C0000201CB517480024CDE906
:104A200000402346822215A1164800F0EBFB012826
:104A300003D100F0F9FD01280AD0401C1BD102B0BF
:104A400040F62A02BDE810400FA114A0FBF73EBCBF
:104A5000502080F31188BFF34F8FBFF36F8F06484C
:104A60004FF0FF312C38816201214161C460BDE803
:104A70001C4000F07FB81CBD8800002049444C4514
:104A800000000000592A00082E2E5C46726565520F
:104A9000544F535C7461736B732E63004572726F75
:104AA000723A25732C25640D0A0000000248016B40
:104AB000491C0163704700005C00002070B5134D75
:104AC000286B10B10120E86170BD0020E861286901
:104AD0000F4EB0FA80F0C0F11F0000EB800456F8D2
:104AE000240028B940F6E1320AA10FA0FBF7EEFB43
:104AF00006EB840000F10802416849684160914278
:104B000001D149684160C868286070BD5C00002020
:104B1000C40500202E2E5C4672656552544F535CCE
:104B20007461736B732E63004572726F723A2573F2
:104B30002C25640D0A000000FBF7F6FF401CFBD09B
:104B4000094C0A4DD4F8040110B10748FCF77EFE69
:104B5000D5F8040110B10548FCF768FEFCF7B6F87B
:104B60003220FFF757FEEDE75803002060040020D5
:104B7000016070477CB52A4D28780190FF2028708D
:104B800028788DF800009DF800009DF8001000F0D6
:104B9000F000884205D04FF48A7222A12CA0FBF7C6
:104BA00095FB9DF800002E4C00F05000207007206F
:104BB000A06006E0401EA0609DF8000040008DF857
:104BC00000009DF800000006A068F3D403280ED072
:104BD00040F2271213A11EA0FBF778FBA068032860
:104BE00005D04FF498720FA119A0FBF76FFB207A44
:104BF000000200F4E060A060019828701948016884
:104C000041F470010160016841F070410160FFF7FB
:104C10005BFD00206060FBF7FDFA00207CBD00001A
:104C200000E400E02E2E5C4672656552544F535CE2
:104C3000706F727461626C655C525644535C415291
:104C40004D5F434D335C706F72742E630000000043
:104C50004572726F723A25732C25640D0A000000AC
:104C6000AC00002020ED00E010B5502080F311884A
:104C7000BFF34F8FBFF36F8F00F004FB18B10549EE
:104C80004FF080500860FFF7ABFD002080F31188E3
:104C900010BD000004ED00E02DE9F04117460E467E
:104CA000050005D14FF4BB720EA113A0FBF70EFB5C
:104CB00005FB06F05430FEF7D7F904000ED004F1DE
:104CC00054006EB12060C4E90F562046012100F067
:104CD0001BF884F8507000212046A164BDE8F081E3
:104CE0002460F0E72E2E5C4672656552544F535C8B
:104CF00071756575652E63004572726F723A257322
:104D00002C25640D0A00000070B50D46040005D185
:104D100040F203121CA121A0FBF7D8FAFFF71AFCFE
:104D2000D4E90F20216802FB0011A1600021A163DA
:104D3000216861600A46D4E90F01401E00FB012191
:104D4000E16021464FF0FF3001F8440F487004F154
:104D500010004DB1FFF7CBFB04F12400FFF7C7FBB8
:104D6000FFF734FC012070BD21690029F8D000F064
:104D700059FB0028F4D00D494FF080500860BFF374
:104D80004F8FBFF36F8FEBE72E2E5C467265655237
:104D9000544F535C71756575652E63004572726F73
:104DA000723A25732C25640D0A00000004ED00E022
:104DB0002DE9FF4F83B01F468B4604004FF00006DD
:104DC00005D140F2EA2252A156A0FBF77FFABBF1CF
:104DD000000F07D1206C28B140F2EB224CA151A06A
:104DE000FBF774FA022F08D1E06B012805D04FF4CD
:104DF0003B7247A14BA0FBF769FA00F02FFA38B9D4
:104E0000059828B140F2EF2241A146A0FBF75EFAD7
:104E10004FF0000A4FF08058DFF81891FFF79AFB27
:104E2000A06BE16B884205D3022F03D0059818B31D
:104E30002EB328E0A56B3A4659462046FDF7A5FD5E
:104E4000A16C31B1022F00D185B92046FDF7E8FEF3
:104E500005E0616A19B104F1240000F0E3FA28B119
:104E6000C9F80080BFF34F8FBFF36F8FFFF7AEFB22
:104E7000012007B0BDE8F08FFFF7A8FB21E06846EE
:104E8000FFF764FD0126FFF7A1FBFFF70FFEFFF719
:104E900061FB94F94400401C01D184F844A094F9CA
:104EA0004500401C01D184F845A0FFF78FFB05A900
:104EB000684600F05FF930B12046FEF799F800F03F
:104EC000FDFA0020D5E7FFF745FBA06BE16B8842B8
:104ED00001D1012500E00025FFF778FB95B104F131
:104EE00010000599FFF740FD2046FEF781F800F01D
:104EF000E5FA002892D1C9F80080BFF34F8FBFF3C5
:104F00006F8F8BE72046FEF773F800F0D7FA85E73E
:104F10002E2E5C4672656552544F535C71756575F3
:104F2000652E63004572726F723A25732C25640DED
:104F30000A00000004ED00E02DE9F0471F46154689
:104F40008A46040005D14FF46F722DA131A0FBF702
:104F5000BDF9BAF1000F07D1206C28B140F2BD3283
:104F600027A12CA0FBF7B2F9022F08D1E06B012892
:104F700005D040F2BE3222A126A0FBF7A7F9FFF729
:104F8000B5FB5021EFF3118081F31188BFF34F8FF0
:104F9000BFF36F8F8046A06BE16B884206D3022F70
:104FA00004D0002088F31188BDE8F08794F94560AB
:104FB000D4F838903A4651462046FDF7E6FC701C7E
:104FC00004D0761C84F845600120EBE7A06C012634
:104FD00040B1022F02D1B9F1000FF5D12046FDF703
:104FE0001FFE06E0606A0028EED004F1240000F005
:104FF00019FA0028E8D0002DE6D02E60E4E7000082
:105000002E2E5C4672656552544F535C7175657502
:10501000652E63004572726F723A25732C25640DFC
:105020000A0000002DE9F74783B08A4604004FF0DC
:10503000000605D140F2045244A149A0FBF746F90D
:10504000BAF1000F07D1206C28B14FF4A1623FA143
:1050500043A0FBF73BF900F001F938B9059828B1F6
:1050600040F20D5239A13EA0FBF730F900274FF076
:105070008058DFF8FC90FFF76DFAA56BC5B151467B
:105080002046FDF76FFC6D1EA563206950B104F149
:10509000100000F0C7F928B1C9F80080BFF34F8FA6
:1050A000BFF36F8FFFF792FA012006B0BDE8F087DB
:1050B000059808B11EB106E0FFF788FA27E06846B8
:1050C000FFF744FC0126FFF781FAFFF7EFFCFFF73B
:1050D00041FA94F94400401C01D184F8447094F9D9
:1050E0004500401C01D184F84570FFF76FFA05A90F
:1050F000684600F03FF8002820460AD0FDF778FF08
:1051000000F0DCF92046FDF77DFD0028B3D000203B
:10511000CBE7FDF777FD90B104F124000599FFF787
:1051200023FC2046FDF764FF00F0C8F90028A2D157
:10513000C9F80080BFF34F8FBFF36F8F9BE7204606
:10514000FDF756FF00F0BAF995E700002E2E5C46F9
:1051500072656552544F535C71756575652E6300B9
:105160004572726F723A25732C25640D0A00000097
:1051700004ED00E02DE9F0410C46050005D140F6B4
:10518000CE4216A11AA0FBF7A1F82CB940F6CF42E7
:1051900012A117A0FBF79AF8FFF7DCF9184EF16897
:1051A0006B682268C81A571C07D02F68366AB74246
:1051B00009D08B4207D8012400E00024FFF706FA4B
:1051C0002046BDE8F081824205D9101A20602846A9
:1051D000FFF7BCFBF1E700202060ECE72E2E5C46D9
:1051E00072656552544F535C7461736B732E630028
:1051F0004572726F723A25732C25640D0A00000007
:105200005C0000202DE9FF5F8346DDE90E879946AB
:1052100016468A469000FDF727FF05001AD0602049
:10522000FDF722FF040012D025630021CDE90241E1
:10523000CDE900874B46324651465846FDF73AFCC9
:105240002046FDF7FFFA012004B0BDE8F09F284694
:10525000FFF7EEF94FF0FF30F6E70000054841692F
:1052600019B1006B18B1002070470120704702206F
:10527000704700005C0000200148C06870470000D3
:105280005C0000202DE9F0412E4F0026386B28B13C
:10529000B869401CB8613046BDE8F081FD686D1CFE
:1052A000FD6011D1786B006828B140F6A92226A1D3
:1052B0002AA0FBF70BF8786BB96B7963B863386A8F
:1052C000401C3862FDF7F2FDB86ADFF8A080854225
:1052D00009D3786B0068A0B1786BC068C468606857
:1052E000854211D2B8623868C06A00EB800158F874
:1052F0002100012800D90126F8690028CBD0012619
:10530000C9E74FF0FF30EDE7201DFFF7DDF8A06A99
:1053100018B104F11800FFF7D7F8E06A01213A69E3
:1053200081401143396100EB800108EB8100211DB0
:10533000FFF703F9E06A3968C96A8842C9D30126D0
:10534000C7E700005C0000202E2E5C4672656552A7
:10535000544F535C7461736B732E63004572726FAC
:10536000723A25732C25640D0A000000C405002044
:1053700070B504004FF000063CD01F4D28688442F1
:1053800005D041F213021DA121A0FAF79FFF606D25
:1053900028B941F2140219A11DA0FAF797FF606D18
:1053A000401E6065226DE16A914223D010BB201D32
:1053B000FFF78AF81A49012250B9E06A00EB80032E
:1053C00051F8233023B92B6902FA00F083432B6193
:1053D000206DE062C0F12000A061E06A2B6982408C
:1053E0001A432A6100EB800001EB8000211DFFF7CA
:1053F000A4F80126304670BD5C0000202E2E5C46CD
:1054000072656552544F535C7461736B732E630005
:105410004572726F723A25732C25640D0A000000E4
:10542000C40500202DE9F041C068C4682CB940F6DD
:10543000554216A11AA0FAF749FF04F118000746D1
:10544000FFF742F81A4D286B012660B1394619481A
:10545000FFF773F8E06A2968C96A884213D9012006
:10546000EE61BDE8F081201DFFF72EF8E06A2A69A1
:1054700006FA00F1114329610F4900EB800001EBAE
:105480008000211DE4E70020EBE700002E2E5C46A3
:1054900072656552544F535C7461736B732E630075
:1054A0004572726F723A25732C25640D0A00000054
:1054B0005C0000206C080020C40500202DE9F047A6
:1054C0002B4D00242746286B28B940F6990229A1C4
:1054D0002DA0FAF7FBFEFFF73DF8286B401E28636E
:1054E000286BE8BBA8682C490126C8B3A1F52A7926
:1054F0008846D8F80010E9B1D8F80C00C46804F167
:105500001800FEF7E1FF201DFEF7DEFFE06A2A69C2
:1055100006FA00F11143296100EB800109EB8100DB
:10552000211DFFF70AF8E06A2968C96A8842E0D3BA
:10553000EE61DEE70CB1FDF7B9FCAC693CB1FFF7F9
:10554000A1FE00B1EE61641EF9D10020A861E869F6
:1055500030B11249012738070860BFF34F8F00E0D0
:1055600001E0BFF36F8FFFF731F83846BDE8F087F1
:105570005C0000202E2E5C4672656552544F535CD1
:105580007461736B732E63004572726F723A257388
:105590002C25640D0A0000006C08002004ED00E0DA
:1055A0002DE9F0470746994616460D462C20DDF8B2
:1055B00020A0FDF759FD04001ED0B84600204F463C
:1055C00084F82800D1462DB940F265120CA112A032
:1055D000FAF77CFEFDF79EF904F11801C4F800808B
:1055E00081E8A002201DFEF78DFF2EB194F828005F
:1055F00040F0040184F828102046BDE8F087000040
:105600002E2E5C4672656552544F535C74696D650D
:1056100072732E63000000004572726F723A257338
:105620002C25640D0A0000001CB50024FDF772F95A
:105630000C48006868B10B491F20091DCDE9000125
:1056400000234FF4827208A10948FFF7DBFD040034
:1056500005D140F2131207A10CA0FAF737FE20463D
:105660001CBD000098000020546D7220537663002A
:10567000C92F00082E2E5C4672656552544F535C4C
:1056800074696D6572732E63000000004572726F5D
:10569000723A25732C25640D0A0000002DE9FF479E
:1056A000DDF830A0994690460D4606004FF0000701
:1056B00005D14FF4C17212A117A0FAF707FE1A4CD8
:1056C000206880B1CDE900580296062D11DAFFF767
:1056D000C5FD02284FF0000309D00022694620686A
:1056E000FFF766FB074604B03846BDE8F087524630
:1056F000F4E700234A466946FFF71EFCF2E7000084
:105700002E2E5C4672656552544F535C74696D650C
:1057100072732E63000000004572726F723A257337
:105720002C25640D0A000000980000206765745F56
:10573000636869705F6964006D61696E0030313261
:105740003334353637383941424344454640305882
:10575000003031323334353637383961626364654D
:1057600066403078000400000800000000000000DF
:1057700002000100001000000D0A20232323232330
:105780002323232323232320687474703A2F2F7735
:1057900077772E637367736D2E636F6D2F202323CE
:1057A000232323232323232323230D0A20232323FB
:1057B00023232323232323232328536570202035E9
:1057C0002032303233202D2031373A30313A3134E3
:1057D00029232323232323232323232323000000FC
:1057E0003F000000646563006964000072756E74B8
:1057F000696D650068656C70000000006C69737409
:10580000000000006865780075696E7431365F7459
:10581000206273705F6370755F6164635F67657456
:105820005F6261747465727928766F6964292020DB
:1058300000000000766F69642065655F54657374CD
:105840002875696E7431365F74205F7573416464C6
:10585000726573732C753820696E7075746E756D12
:105860006229000075696E7433325F742073665F5D
:1058700052656164494428766F696429000000001C
:1058800075696E7431365F74206273705F63707512
:105890005F6164635F6765745F6368616E6E656CAA
:1058A000312875696E7431365F74207672656629A9
:1058B0000000000075696E7431365F742062737089
:1058C0005F6370755F6164635F6765745F63686180
:1058D0006E6E656C322875696E7431365F74207631
:1058E0007265662900000000766F6964207772692E
:1058F00074655F6164647228753332206164647218
:105900002C7533322076616C290000006273705F61
:105910006C65645F746F67676C652875696E743851
:105920005F74206E29000000753332207265616457
:105930005F61646472287533322061646472290087
:10594000766F69642062757A7A65725F62656570E8
:105950002875696E7431365F74206D696C6C69737B
:1059600065636F6E64732900766F69642064656C8B
:1059700061795F6D732875696E7433325F74206E60
:105980006D732900766F69642064656C61795F7559
:10599000732875696E7433325F74206E75732900D5
:1059A000C0590008000000205C020000300100081F
:1059B000605A00085C020020D43E00008C01000800
:1059C00001348201780D48E801030406080C101820
:1059D00020301D1A021304570708091AAA010124CE
:1059E000B9982994999813E0571B08F4041AFC04F9
:1059F0001AE8041304581B08E4081AEC04139D3138
:105A0000140828591C08714B1C191813BD221B08B7
:105A100068101AF5081A840813ED1D1B080C0813EA
:105A2000F91A1B088020136D1B1B08B4081A61109B
:105A30001A080813CD231B0834081ADD481A640815
:105A40001A3D381A40301310011420653C14081513
:105A5000361B08A9041AC90C1A0B9A01DC000000B5
:040000050800028964
:00000001FF
